:020000040800F2
:100000006804002045010008B90500084104000803
:10001000B505000885010008AF07000800000000D2
:10002000000000000000000000000000DD050008E6
:100030008901000800000000BB05000871060008E7
:100040005B0100085B0100085B0100085B01000820
:100050005B0100085B0100085B0100085B01000810
:100060005B0100085B0100085B0100085B01000800
:100070005B0100085B0100085B0100085B010008F0
:100080005B0100085B0100085B0100085B010008E0
:100090005B0100085B0100085B0100085B010008D0
:1000A0005B0100085B0100085B0100085B010008C0
:1000B0005B010008750600085B0100085B01000891
:1000C0005B0100085B0100085B0100085B010008A0
:1000D0005B0100081D0700085B0100085B010008C8
:1000E0008D0100085B0100085B0100085B0100084E
:1000F0005B0100085B0100085B0100085B01000870
:100100005B0100085B0100085B0100085B0100085F
:100110005B0100085B0100085B0100085B0100084F
:100120005B0100085B0100085B0100085B0100083F
:10013000DFF80CD000F014F800480047E908000888
:100140006804002005480047FEE7FEE7FEE7FEE7FB
:10015000FEE7FEE7FEE7FEE7FEE7FEE73101000807
:10016000064C074D06E0E06840F0010394E8070004
:1001700098471034AC42F6D3FFF7DEFFD4090008ED
:10018000F409000800BFFEE77047000070B50020CA
:100190004D4908704FF42F7000F020FB4FF4805150
:1001A0004A4800F044F9002877D14FF47A7404E00B
:1001B000012000F013FB601E84B24FF480514348CD
:1001C00000F035F908B9002CF2DC4FF480513F48BB
:1001D00000F02DF9012857D14FF4FA7404E0012002
:1001E00000F0FCFA601E84B24FF48051374800F0F2
:1001F0001EF9012801D1002CF1DC002542E0002687
:100200003CE03C2404E0012000F0E8FA601E84B2E7
:100210004FF480512D4800F00AF908B9002CF2DCA7
:100220004FF4FA740EE00A2000F0D8FA264800785D
:10023000401C25490870601E84B2084600781E28BC
:1002400000DD70BD4FF48051204800F0F0F8012827
:1002500001D1002CE7DC1E48405D40101C49485588
:1002600019480078082804DB0846405D40F080000B
:100270004855002014490870701CC6B2082EC0DB17
:10028000681CC5B2042DBADB114880781049C978C2
:10029000C943884201D0D4E7FFE70E48006808B997
:1002A000012000E000200B4908604FF4805000F06E
:1002B00015F80748807820B105488178064800F095
:1002C00072FA00BFBDE7000004000020000C0140EE
:1002D00005000020840121420038014001490860E6
:1002E00070470000140401402DE9F84307460C460E
:1002F00015461E46DDF820800121304600F05EF9EB
:100300008DF80340ADF800508DF8028069463846FC
:1003100000F002F8BDE8F8832DE9F041024600251F
:100320000026002000230024002791F803C00CF0D1
:100330000F0591F803C00CF0100CBCF1000F03D0B6
:1003400091F802C04CEA050591F800C0BCF1000F1D
:1003500031D0146800202BE04FF0010C0CFA00F3B0
:10036000B1F800C00CEA03069E4220D183004FF092
:100370000F0C0CFA03F7BC4305FA03FC4CEA040427
:1003800091F803C0BCF1280F06D14FF0010C0CFA14
:1003900000FCC2F814C00AE091F803C0BCF1480F99
:1003A00005D14FF0010C0CFA00FCC2F810C0401C43
:1003B0000828D1D31460B1F800C0BCF1FF0F34DDC0
:1003C000546800202EE000F1080C4FF0010808FAF4
:1003D0000CF3B1F800C00CEA03069E4221D1830061
:1003E0004FF00F0C0CFA03F7BC4305FA03FC4CEA80
:1003F000040491F803C0BCF1280F05D100F1080CEA
:1004000008FA0CF8C2F8148091F803C0BCF1480F48
:1004100007D100F1080C4FF0010808FA0CF8C2F8F7
:100420001080401C0828CED35460BDE8F0810246FD
:10043000002093680B400BB1012000E000207047C2
:1004400000BFFEE7F8B504460D46164610208DF8AD
:100450000300102C51D2DFE804F0080C1014181C13
:100460002024282D32373C41464B0120ADF80000B6
:1004700048E00220ADF8000044E00420ADF80000A0
:1004800040E00820ADF800003CE01020ADF800008E
:1004900038E02020ADF8000034E04020ADF8000046
:1004A00030E08020ADF800002CE04FF48070ADF813
:1004B000000027E04FF40070ADF8000022E04FF498
:1004C0008060ADF800001DE04FF40060ADF8000062
:1004D00018E04FF48050ADF8000013E04FF40050E6
:1004E000ADF800000EE04FF48040ADF8000009E0E8
:1004F0004FF40040ADF8000004E04FF6FF70ADF897
:10050000000000BF00BF022D07D00A2D09D0322DF8
:100510000BD103208DF8020008E002208DF80200C4
:1005200004E001208DF8020000E000BF00BF694632
:100530003046FFF7F1FEF8BD00B50020154908610F
:10054000C8601420486100208861C86108460068BE
:1005500040F001000860084640680F4908400D4916
:100560004860084600680D4908400A490860084686
:10057000006820F4802008600846406820F4FE00EF
:1005800048600020886000214FF0006000F008F80B
:1005900000BD0000001002400000FFF8FFFFF6FE63
:1005A000024A0A400243024B1A60704780FFFF1F55
:1005B00008ED00E000BFFEE77047704729B1064A2A
:1005C00092690243044B9A6104E0034A92698243B0
:1005D000014B9A6170470000001002407047000014
:1005E00030B504460025FFF7A7FF1F48006840F418
:1005F00080301D49086000BF1B480068400C00287F
:10060000FAD04FF4806018494860A01EC4B2084672
:10061000406840EA844048600846406840F48030C2
:1006200048601248006840F03200104908600E48E7
:10063000006840F080700C49086000BF0A480068FC
:10064000400E0028FAD00848406840F002000649F1
:10065000486005E004484068C0F3870505F00305DD
:10066000022DF7D130BD00000010024000200240F2
:100670007047000010B50121194800F03EF801282C
:100680000ED118480068401C1649086008460068EA
:100690003C2801DB002008600121114800F02AF805
:1006A0001048006810490860084600683B2815D1CA
:1006B0000E480068401C0D490860084600683B2849
:1006C0000CDD002008600A480068401C08490860EA
:1006D00008460068182801DB0020086010BD0000F3
:1006E000000400400C00002018000020140000202E
:1006F00010000020CA430282704730B50246002035
:1007000000230024158A05EA0103958905EA0104FE
:1007100013B10CB1012000E0002030BD10B540F253
:100720002551074800F010F848B1054800F036F8A8
:100730000449087008460178014800F034F810BDFB
:10074000003801401C00002070B502460024002340
:100750000025002040F66A16B14200D100BFC1F367
:10076000421501F01F03012606FA03F3012D02D101
:100770009689334006E0022D02D1168A334001E00B
:10078000968A33400C12012606FA04F41688344087
:1007900013B10CB1012000E0002070BD0146888833
:1007A000C0F308007047C1F308028280704700BFA1
:1007B000FEE702E008C8121F08C1002AFAD17047FC
:1007C0007047002001E001C1121F002AFBD17047D1
:1007D00010B50446A0B200F029F810BD10B50446CB
:1007E00004EB8401480000F03FF810BD4FF0E02119
:1007F000096921F004014FF0E0221161C21700EBFA
:100800005272C2F3C702074B1A701946097801EBFE
:100810004102C2EBC1114FF6FF7202EAC101024A66
:1008200011807047000000200200002001460D4AA0
:1008300012884A434FF0E0235A6100229A61012254
:100840001A6100BF4FF0E022106900F001021AB1F6
:1008500000F48032002AF5D000224FF0E0231A6124
:100860009A6170470200002001460D4A12784A43FF
:100870004FF0E0235A6100229A6101221A6100BF01
:100880004FF0E022106900F001021AB100F480324A
:10089000002AF5D000224FF0E0231A619A617047D8
:1008A0000000002010B5002400200D490860382009
:1008B00000F054F80E2000F051F8062000F04EF839
:1008C000402000F04BF800BF04E00649085D00F04E
:1008D00065F8641C082CF8DD802000F03FF810BD9E
:1008E000808121422600002008B50920FFF778FE0C
:1008F0004820FFF77BFF032004234FF6FF721021EF
:1009000000901448FFF7F0FC01210820FFF756FE85
:10091000114A32210020FFF795FD0F4A32210120B4
:10092000FFF790FD0C4A32210220FFF78BFDFFF705
:10093000B9FF0620FFF74CFF412000F02FF81420EC
:10094000FFF746FF822000F009F8002000F026F8AB
:1009500000BFFEE700080140000C014010B504464E
:1009600000200B4908600B49C1F888010A4804605F
:100970000520FFF72DFF01200549091F086005200C
:10098000FFF726FF00200349C1F8800110BD0000D9
:1009900084812142008021420C08014010B50446A8
:1009A000012009490860094804600520FFF710FF8D
:1009B00001200749C1F880010520FFF709FF002049
:1009C0000149091F086010BD848121420C080140C3
:1009D00000802142F40900080000002068000000A7
:1009E000B20700085C0A000868000020000400004C
:1009F000C207000800000000000000000000000026
:100A000000000000000000000000000000000000E6
:100A100000001006090808090600F7ABCB003E08E5
:100A2000087F000E0000001F00000E00000E0000F6
:100A30001F001F1115151F111F001E08081E0A0A8E
:100A40001F00081F120F0A1F02000F090F090F09CC
:0C0A500013001F11111F11111F000000E6
:0400000508000131BD
:00000001FF
