S315080000007004002045010008090D0008810B00084E
S31508000010550C000815080008731B000800000000AE
S315080000200000000000000000000000003D1000086D
S315080000302B08000800000000A90E00084911000856
S315080000405B0100085B0100085B0100085B01000812
S315080000505B0100085B0100085B0100085B01000802
S315080000605B0100085B0100085B0100085B010008F2
S315080000705B0100085B0100085B0100085B010008E2
S315080000805B0100085B0100085B0100085B010008D2
S315080000905B0100085B0100085B0100085B010008C2
S315080000A05B0100085B0100085B0100085B010008B2
S315080000B05B0100085B0100085B0100085B010008A2
S315080000C05B0100085B0100085B0100085B01000892
S315080000D05B010008691900085B0100085B0100085C
S315080000E05B0100085B0100085B0100085B01000872
S315080000F05B0100085B0100085B0100085B01000862
S315080001005B0100085B0100085B0100085B01000851
S315080001105B0100085B0100085B0100085B01000841
S315080001205B0100085B0100085B0100085B01000831
S31508000130DFF80CD000F0A0FA004800476D2300084D
S315080001407004002005480047FEE7FEE7FEE7FEE7E5
S31508000150FEE7FEE7FEE7FEE7FEE7FEE731010008F9
S315080001602DE9FE4F804681EA0300C00F0C46009039
S3150800017021F0004123F00045B8EB0200A94105D261
S315080001804046214690461C460B46024623F0004050
S31508000190104347D0270DC7F30A00C3F30A5102904C
S315080001A0401A019040286BDAC3F3130040F4801B11
S315080001B00098924620B10023D2EB030A63EB0B0B9F
S315080001C001985946C0F14002504600F028F9064603
S315080001D00D4650465946019A00F040F910EB0800C2
S315080001E06141002487EA115284EAE7731A4340D032
S315080001F0009A62B3019A012A4FEA075215DC001BDE
S3150800020061EB02014FF0004202EA0752CDE90042D3
S31508000210001C41F5801132462B4600F040F903B028
S31508000220BDE8F08F40462146F9E7001B61EB020165
S31508000230001C41F5801300185B412018A2F5001731
S3150800024047EB030140EAD570B6196D4111E06D0818
S315080002504FEA360645EAC0754FEA0752001B61EBBE
S315080002600201001C41F5801149084FEA30000019C7
S31508000270514132462B4603B0BDE8F04F00F000B9B5
S315080002800098012240000023D0EB020263EBE073E2
S31508000290009821464FEAE074B8EB000061EB0401D0
S315080002A0E9E783F000435BE781F0004158E72DE971
S315080002B0FE4F81EA030404F0004421F00041009453
S315080002C04FF0000B23F0004350EA01045ED052EAD7
S315080002D003045BD0C3F30A54C1F30A552C44A4F2B1
S315080002E0F3340194A0FB0254C1F3130141F48011C5
S315080002F0C3F3130343F4801301FB024400FB034ECC
S31508000300840A970A44EA815447EA8357A4FB076894
S3150800031002958D0A05FB07854FEA932C04FB0C54BE
S315080003202705029D4FEA065847EA1637B5EB080532
S315080003306EEB070C870E920E47EA811742EA831284
S31508000340A7FB0201B6EB0B0164EB00042B0D43EA95
S315080003500C335E1844EB1C50DA465146E7FB0201A3
S31508000360C5F313044FEA0B3343EA14534FEA043236
S31508000370019C43EA0603A4F10C040294009CCDE90F
S3150800038000B400F08CF803B0BDE8F08F00200146F9
S31508000390F9E70EB5C10F80EAE0700844CA070021E4
S315080003A040F233438DE80E000A460B4600F077F814
S315080003B003B000BD70B5C1F30A5201F00045002430
S315080003C0C1F3130140F2FF3341F480119A4201DA76
S315080003D0002070BD40F233439A42A2F2334203DC56
S315080003E0524200F02BF800E090402C43F1D04042F6
S315080003F070BD30B50B46014600202022012409E0D5
S3150800040021FA02F59D4205D303FA02F5491B04FABF
S3150800041002F52844151EA2F10102F1DC30BD202A9E
S3150800042004DB203A00FA02F1002070479140C2F13D
S31508000430200320FA03F3194390407047202A04DB6F
S31508000440203A21FA02F00021704721FA02F3D0403F
S31508000450C2F120029140084319467047202A06DB5C
S31508000460CB17203A41FA02F043EAE07306E041FA74
S3150800047002F3D040C2F12002914008431946704762
S3150800048010B5141E73F1000408DA401C41F100018E
S3150800049092185B411A4301D120F0010010BD2DE9E5
S315080004A0F04D92469B4611B1B1FA81F202E0B0FADC
S315080004B080F220329046FFF7B2FF04460F4640EA24
S315080004C00A0041EA0B0153465A46084313D011461F
S315080004D053EA010019D0C8F140025046FFF7AEFFB3
S315080004E005460E46504659464246FFF798FF0843CA
S315080004F005D0012004E020463946BDE8F08D0020ED
S31508000500054346EAE0762C4337430A986305E40A2E
S31508000510A0EB08000022FD0A44EA47540A3002D537
S3150800052000200146E9E7010510196941DDE908459A
S3150800053000196941BDE8F04DA2E72DE9F04D81EAC1
S31508000540030404F0004B21F0004514464FF0000A5E
S3150800055023F0004150EA050220D054EA01021DD0DA
S31508000560C5F30A570246C5F31303C1F31300C1F3D3
S315080005700A5640F4801543F48013A7EB0608101BAF
S31508000580D64608F2FD3873EB050002D308F10108D8
S3150800059001E092185B41B8F1000F03DA002001462A
S315080005A0BDE8F08D00204FF48011064684460EE023
S315080005B0171B73EB050705D3121B63EB05030643ED
S315080005C04CEA010C49084FEA300092185B4150EAA0
S315080005D00107EDD152EA030012D082EA040083EA49
S315080005E00501084305D0101BAB4106D201220023A2
S315080005F006E000224FF0004302E06FF001025310BC
S315080006001AEB06004CEB085110EB0A0041EB0B0104
S31508000610BDE8F04DFFF734BF70B521F00043034342
S315080006200CD0C1F30A550024D5EB040564EB04038A
S31508000630D617AD1AB34102DB0020014670BD20185B
S3150800064041EB025170BD000030B5041E71F1000483
S3150800065004DB4FF00044404264EB0101141E73F1C1
S31508000660000405DB1C464FF00043524263EB0403CB
S31508000670994208BF904230BD064C074D06E0E06837
S3150800068040F0010394E8070098471034AC42F6D3CB
S31508000690FFF752FD802F0008A02F00082DE9F04D26
S315080006A000231A461B1A8A4103DB00200146BDE8CF
S315080006B0F08DC1F30A52C1F3130141F480154FF0CE
S315080006C0000BD10702D100186D41521E00270446BF
S315080006D040F2FF11384601EB620A3E468046024662
S315080006E000204FF48011FFF7A9FEC2197141BB180B
S315080006F046EB0100B4EB030C75EB000C04D3E41ACB
S3150800070065EB000517460E46241908F101006D41F0
S3150800071080463428E3DDF91946EB0600091BA84193
S3150800072003D24FF0FF32134601E0002213461BEBBB
S31508000730070046EB0A51BDE8F04DFFF7A1BE0000E1
S315080007402DE9F04F8FB0054689464FF0000A002480
S315080007500026A34600200A900B900C900D900E9050
S3150800076018E0285D01F0D4FD40B1CB4504D12A5DDF
S315080007703046761C0BA90A5401200A90641C0A9874
S31508000780012807D1285D01F0C3FD18B90BF1010B4B
S3150800079000200A90285D0028E3D1761E00242AE06E
S315080007A03046FFF7F6FD07463A460B46002018493D
S315080007B001F01EFECDE902012146641C0BAA515C1C
S315080007C0A1F13000FFF7E5FDCDE90001DDE90223DF
S315080007D0FFF76DFDCDE906015046FFF7DAFDCDE9D5
S315080007E00401DDE90623FFF7BBFCCDE90801FFF7A5
S315080007F0E1FD8246761E0BA8005D0028D0DC6878ED
S315080008002D2801D1CAF1000A50460FB0BDE8F08F75
S315080008100000244000BFFEE710B501214FF46160D7
S3150800082000F0B6FA00F0C2F810BD704700B587B000
S3150800083001210D2000F05AFB01212A4800F058F941
S315080008400121294800F054F90820ADF818000420C1
S315080008508DF81B0003208DF81A0006A9234800F01E
S31508000860BBF84FF40040ADF8180006A9204800F080
S31508000870B3F80121084600F019FB4FF0804000F05C
S31508000880A1FD03A801F046F80020ADF80C004FF6CC
S31508000890FF70ADF810000020ADF81200ADF80E009C
S315080008A003A94FF0804000F0E3FF00231A46032116
S315080008B04FF0804000F07AFE684600F0EFFE002018
S315080008C0ADF8080069464FF0804000F091FE002020
S315080008D04FF0804188840121880700F066FD07B043
S315080008E000BD00000002300000031800000C0140A3
S315080008F00008014000B587B00121092000F0F6FA8A
S315080009003020ADF8180004208DF81B0003208DF860
S315080009101A0006A91D4800F05FF80121022000F020
S31508000920C5FA01211A4800F0E3F81A4800F04AFD12
S3150800093003A800F0EFFF0020ADF80C004FF6FF709B
S31508000940ADF810000020ADF81200ADF80E0003A9AE
S31508000950104800F08DFF00231A4603210D4800F0C9
S3150800096025FE684600F09AFE0020ADF808006946A4
S31508000970084800F03DFE0021064800F04AFF012124
S31508000980044800F012FD07B000BD0000000C01404D
S3150800099000081A000004004047F230504FF080412A
S315080009A088840149088070472404004008B501215D
S315080009B0082000F09BFA4FF47040ADF800001020B4
S315080009C08DF8030003208DF802006946014800F0FF
S315080009D003F808BD000C01402DE9F0410246002548
S315080009E00026002000230024002791F803C00CF0FD
S315080009F00F0591F803C00CF0100CBCF1000F03D0E2
S31508000A0091F802C04CEA050591F800C0BCF1000F48
S31508000A1031D0146800202BE04FF0010C0CFA00F3DB
S31508000A20B1F800C00CEA03069E4220D183004FF0BD
S31508000A300F0C0CFA03F7BC4305FA03FC4CEA040452
S31508000A4091F803C0BCF1280F06D14FF0010C0CFA3F
S31508000A5000FCC2F814C00AE091F803C0BCF1480FC4
S31508000A6005D14FF0010C0CFA00FCC2F810C0401C6E
S31508000A700828D1D31460B1F800C0BCF1FF0F34DDEB
S31508000A80546800202EE000F1080C4FF0010808FA1F
S31508000A900CF3B1F800C00CEA03069E4221D183008C
S31508000AA04FF00F0C0CFA03F7BC4305FA03FC4CEAAB
S31508000AB0040491F803C0BCF1280F05D100F1080C15
S31508000AC008FA0CF8C2F8148091F803C0BCF1480F74
S31508000AD007D100F1080C4FF0010808FA0CF8C2F823
S31508000AE01080401C0828CED35460BDE8F081000071
S31508000AF0F0B50A46002300240021002500F0004630
S31508000B00B6F1004F02D11D4EF16901E01B4E716826
S31508000B10C0F3034583B200F44016B6F5401F08D16A
S31508000B2021F07061154E766826F07066134F7E6068
S31508000B3012E000F48016B6F5801F06D1032606FAE1
S31508000B4005F4A14341F0706106E0460D360103FA4B
S31508000B5006F6B14341F0706122B1460D360103FA3B
S31508000B6006F6314300F00046B6F1004F02D1034EB7
S31508000B70F16101E0014E7160F0BD00000000014026
S31508000B8000BFFEE7F8B507460C4615461E46012186
S31508000B90384600F0ABF904208DF80300ADF8005094
S31508000BA08DF8026069462046FFF716FFF8BDF8B5CE
S31508000BB007460C4615461E460121384600F096F9AA
S31508000BC010208DF80300ADF800508DF802606946D4
S31508000BD02046FFF701FFF8BD00B50020154908615A
S31508000BE0C8601420486100208861C861084600680A
S31508000BF040F001000860084640680F4908400D4962
S31508000C004860084600680D4908400A4908600846D1
S31508000C10006820F4802008600846406820F4FE003A
S31508000C2048600020886000214FF0006000F008F856
S31508000C3000BD0000001002400000FFF8FFFFF6FEAE
S31508000C40024A0A400243024B1A60704780FFFF1FA0
S31508000C5008ED00E000BFFEE700B587B001210420DB
S31508000C6000F044F90121880300F040F918208DF8B6
S31508000C701B004FF40070ADF8180003208DF81A0019
S31508000C8006A91F48FFF7A8FE04208DF81B000002DE
S31508000C90ADF8180006A91A48FFF79EFE4FF4E13092
S31508000CA001900020ADF810000C20ADF80E000020D1
S31508000CB0ADF80C00ADF80A00ADF8080001A9114816
S31508000CC000F0E2FE4FF4A06000F058F825208DF8F9
S31508000CD0140001208DF817008DF8150000208DF8F6
S31508000CE0160005A800F012F8012240F22551054821
S31508000CF000F0A5FE0121034800F05EFE07B000BD26
S31508000D0000080140003801407047000070B5002116
S31508000D1000230F22C47804B3154C246804F4E06455
S31508000D20C4F5E064210AC1F10403CA40447804FA10
S31508000D3003F184781440214309010E4C0678A15525
S31508000D40047804F01F050124AC4005786D11AD0048
S31508000D5005F1E025C5F8004109E0047804F01F050F
S31508000D600124AC40044D0678761145F8264070BD3E
S31508000D700CED00E000E400E080E100E002490143F8
S31508000D80024A1160704700000000FA050CED00E009
S31508000D9030B589B005460C460121082000F0A6F8B2
S31508000DA04FF44070ADF8040018208DF807000320B2
S31508000DB08DF8060001A92848FFF70EFE0121042038
S31508000DC000F074F8681E80B2ADF80C00601E80B2A0
S31508000DD0ADF808000020ADF80E00ADF80A0002A92B
S31508000DE01E4800F045FD01211C4800F0DBFA0122EF
S31508000DF011461A4800F05BFC6020ADF8140001208B
S31508000E00ADF816000020ADF81A00ADF81C0005A9CB
S31508000E10124800F055FC0821104800F0A1FC60209B
S31508000E20ADF814000120ADF816000020ADF81A0040
S31508000E30ADF81C0005A9094800F0A0FC08210748E0
S31508000E4000F0DAFC0121054800F0A0FA0121034868
S31508000E5000F0ABFA09B030BD000C014000080040B4
S31508000E607FB505460C466020ADF800000120ADF8B8
S31508000E700200ADF8065069460A4800F021FC082130
S31508000E80084800F06DFCADF806406946054800F0D4
S31508000E9075FC0821034800F0AFFC0121014800F069
S31508000EA075FA7FBD000800407047000029B1064A60
S31508000EB0D2690243044BDA6104E0034AD2698243E9
S31508000EC0014BDA61704700000010024029B1064A5A
S31508000ED012690243044B1A6104E0034A1269824309
S31508000EE0014B1A61704700000010024029B1064AFA
S31508000EF092690243044B9A6104E0034A9269824369
S31508000F00014B9A61704700000010024029B1064A59
S31508000F10D2680243044BDA6004E0034AD26882438B
S31508000F20014BDA60704700000010024030B500211E
S31508000F300022002400232D4D6D6805F00C0121B117
S31508000F40042905D0082923D105E0294D056022E0AA
S31508000F50274D05601FE0254D6D6805F47012234D79
S31508000F606D6805F48034022505EB92421CB9214DC3
S31508000F70554305600BE01D4D6D6805F400351DB140
S31508000F801C4D5543056002E0194D5543056002E0C6
S31508000F90174D056000BF00BF144D6D6805F0F001E0
S31508000FA00909154D6B5C0568DD4045600F4D6D6898
S31508000FB005F4E061090A104D6B5C4568DD40856003
S31508000FC00A4D6D6805F46051C90A0B4D6B5C45689E
S31508000FD0DD40C560054D6D6805F44041890B074D38
S31508000FE06B5CC568B5FBF3F5056130BD00100240C2
S31508000FF000127A0000093D000000002010000020C1
S315080010000146022902D0032912D109E04FF0804295
S31508001010928C10B247F230524FF080439A8409E01E
S31508001020054A128810B247F23052034B1A8001E083
S31508001030002000BF00BF704724040040704700002E
S3150800104010B506E000F0EAFF01F00EFF012008499E
S3150800105008600748783800680028F3D10449086012
S3150800106001F0F0FE4FF47A7001F0EEF810BD0000C2
S31508001070B401224210B501F0A3F800F055FC01F0C6
S31508001080E1FE4FF47A7001F0DFF810BD10B506E006
S3150800109000F0C4FF01F0E8FE012006490860054893
S315080010A0783800680028F3D10249086001F0CAFEC2
S315080010B010BD0000B401224230B504460025FFF7F2
S315080010C08BFD1F48006840F480301D49086000BF4A
S315080010D01B480068400C0028FAD04FF48060184975
S315080010E04860A01EC4B20846406840EA844048608A
S315080010F00846406840F4803048601248006840F06E
S315080011003200104908600E48006840F080700C49AB
S31508001110086000BF0A480068400E0028FAD0084850
S31508001120406840F002000649486005E00448406807
S31508001130C0F3870505F00305022DF7D130BD000081
S31508001140001002400020024070470000F0B50C462F
S31508001150154600220021068C4FF6FE773E4006848F
S31508001160028B018C4FF60C7632407E1C06EA03167B
S315080011702E433243104EB0420ED0104EB0420BD022
S31508001180B0F1804F08D00E4EB04205D00D4EB04299
S3150800119002D00D4EB04206D14FF6FD76314044F0EE
S315080011A00106314305E04FF6F576314044F0010675
S315080011B0314302830184F0BD002C01400034014014
S315080011C00004004000080040000C0040F0B50C4642
S315080011D01546002200210026078C4FF6EF7C07EA09
S315080011E00C070784028B018C4FF6FF7707EA041673
S315080011F040F6FF473A404FF6FF7707EA03373A4388
S315080012004FF6FF7707EA05273A43114FB8420ED043
S31508001210104FB8420BD0B0F1804F08D00E4FB842ED
S3150800122005D00E4FB84202D00D4FB84206D14FF640
S31508001230DF77394046F01007394305E04FF65F7708
S31508001240394044F01007394302830184F0BD000099
S31508001250002C014000340140000400400008004012
S31508001260000C0040F0B50C46154600220021002669
S31508001270078C4FF6FF6C07EA0C070784828B018CF4
S315080012804FF6FF7707EA04264FF60C773A404FF6F3
S31508001290FF7707EA03172F433A43114FB8420ED098
S315080012A0104FB8420BD0B0F1804F08D00E4FB8425D
S315080012B005D00E4FB84202D00D4FB84206D14FF6B0
S315080012C0FF57394046F48077394305E04FF2FF5718
S315080012D0394044F48077394382830184F0BD0000A5
S315080012E0002C014000340140000400400008004082
S315080012F0000C0040F0B50C461546002200210026D9
S31508001300078C4EF6FF7C07EA0C070784828B018C54
S315080013104FF6FF7707EA043640F6FF473A404FF69E
S31508001320FF7707EA05273A434FF6FF7707EA0337B9
S315080013303A43114FB8420ED0104FB8420BD0B0F115
S31508001340804F08D00E4FB84205D00E4FB84202D093
S315080013500D4FB84206D14DF6FF77394046F480570F
S31508001360394305E047F6FF57394044F48057394377
S3150800137082830184F0BD0000002C01400034014046
S315080013800004004000080040000C004021B102881B
S3150800139042F08002028004E002884FF67F731A400A
S315080013A002807047CA430282704721B1028842F020
S315080013B00102028004E002884FF6FE731A4002809A
S315080013C07047000010B504466848844208D10121D8
S315080013D0C014FFF79BFD0021E014FFF797FDC4E05A
S315080013E0B4F1804F08D101210846FFF76FFD0021AF
S315080013F00120FFF76BFDB8E05D48844208D1012162
S315080014000220FFF763FD00210220FFF75FFDACE035
S315080014105848844208D101210420FFF757FD0021CE
S315080014200420FFF753FDA0E05348844208D1012168
S315080014300820FFF74BFD00210820FFF747FD94E041
S315080014404E48844208D101211020FFF73FFD0021B4
S315080014501020FFF73BFD88E04948844208D1012166
S315080014602020FFF733FD00212020FFF72FFD7CE029
S315080014704448844208D101214014FFF747FD002162
S315080014806014FFF743FD70E03F48844209D101210B
S31508001490C804FFF73BFD00214FF40020FFF736FD97
S315080014A063E03A48844209D101210805FFF72EFD79
S315080014B000214FF48010FFF729FD56E03448844296
S315080014C009D101214805FFF721FD00214FF400103D
S315080014D0FFF71CFD49E02F48844208D1012140202E
S315080014E0FFF7F4FC00214020FFF7F0FC3DE02A4816
S315080014F0844208D101218020FFF7E8FC00218020E2
S31508001500FFF7E4FC31E02548844208D10121801523
S31508001510FFF7DCFC0021A015FFF7D8FC25E02048E2
S31508001520844209D101210804FFF7F0FC00214FF499
S315080015308030FFF7EBFC18E01A48844209D10121F4
S315080015404804FFF7E3FC00214FF40030FFF7DEFC08
S315080015500BE01548844208D101218804FFF7D6FC20
S3150800156000214FF48020FFF7D1FC10BD002C01406C
S315080015700004004000080040000C00400010004035
S315080015800014004000340140004C01400050014066
S315080015900054014000180040001C00400020004094
S315080015A0004001400044014000480140F0B50C46A7
S315080015B015461E460021002200230189028B038C52
S315080015C04FF6F877394021434FF6FC473A4040F248
S315080015D001173A434FF6DD773B404FF6FF7707EAA8
S315080015E006172F433B43018102830384F0BD0000A5
S315080015F070B505460C46244885420ED023488542D8
S315080016000BD0B5F1804F08D02148854205D0214836
S31508001610854202D02048854200D100E000BF2088DC
S3150800162050B92389A28861882846FFF78FFDE1888B
S31508001630284600F0F0F825E0208804280AD12389F6
S31508001640A28861882846FFF7C1FDE188284600F090
S31508001650EBF817E0208808280AD12389A288618830
S315080016602846FFF7FFFDE188284600F0EAF809E07A
S315080016702389A28861882846FFF73CFEE188284628
S3150800168000F0E8F870BD0000002C0140003401406D
S315080016900004004000080040000C004000210180C2
S315080016A04180012181800021C180018170471AB1E2
S315080016B083890B43838102E083898B438381704747
S315080016C070B5002400220023058C4FF6FF663540CE
S315080016D00584028C8388848B4FF68F752C404FF6D1
S315080016E0FC752C400D882C434FF6FF552A400D8972
S315080016F04FF6FF7606EA05252A434D8806EA0525AC
S315080017002A43154DA84202D0144DA8421DD14FF2C6
S31508001710FF752A404D894FF6FF7606EA05252A43C6
S315080017204FF6FF352A408D8806EA05252A434EF6E8
S31508001730FF752B404DF6FF752B408D8906EA05157A
S315080017402B43CD8906EA05152B4383808483CD88F0
S315080017508587028470BD0000002C014000340140DA
S315080017600A460021018C4FF6FF5319404FF6FF73C6
S3150800177003EA0223194301847047000070B500226A
S3150800178000230024058C4EF6FF7635400584038C2D
S315080017908488828B48F6FF752A404FF6FF452A4013
S315080017A00D884FF6FF7606EA05252A434DF6FF759E
S315080017B02B400D8906EA05352B434D8806EA053583
S315080017C02B430B4DA84202D00A4DA84208D14BF62E
S315080017D0FF752C408D894FF6FF7606EA85152C4352
S315080017E084808283CD88A0F84050038470BD0000B1
S315080017F0002C0140003401400A460021018C4DF6B8
S31508001800FF7319404FF6FF7303EA02331943018445
S31508001810704781847047028B4FF6F3731A40028330
S31508001820028B0A4302837047028B4FF2FF331A403A
S315080018300283028B4FF6FF7303EA01231A430283DE
S315080018407047828B4FF6F3731A408283828B0A4362
S3150800185082837047828B4FF2FF331A408283828BD2
S315080018604FF6FF7303EA01231A4382837047000089
S31508001870002202881D4B98420ED01D4B98420BD071
S31508001880B0F1804F08D01B4B984205D01A4B9842AE
S3150800189002D01A4B984204D14FF68F731A404B88E0
S315080018A01A43174B984207D0164B984204D04FF666
S315080018B0FF431A40CB881A4302808B8883850B889E
S315080018C003850A4B98420BD0094B984208D00E4B19
S315080018D0984205D00D4B984202D00D4B984201D143
S315080018E00B7A03860123838270470000002C01408F
S315080018F0003401400004004000080040000C00408D
S31508001900001000400014004000400140004401401F
S31508001910004801404FF6FF71818000210180C18097
S31508001920418001727047000010B501200C4908601B
S3150800193000200C49C1F8B4010120094908310860A2
S3150800194000200849C1F8BC0140F6980140F6CA00D3
S31508001950FFF786FA4FF4967000F076FC10BD00008B
S31508001960B08121420080214210B540F225510F482E
S3150800197000F03BF8C0B10D4800F0F2F8C4B22146B9
S315080019800A4800F0F2F80A4801680068401C084A4C
S31508001990106008484454104600680F2801DA0A2CDB
S315080019A002D100200249086010BD0000003801403D
S315080019B04C0000205800002021B1828942F40052D0
S315080019C0828104E082894DF6FF731A40828170474E
S315080019D002460020B1F5007F00D100BF13880B40F6
S315080019E00BB1012000E00020704770B502460024C4
S315080019F000230025002040F66A16B14200D100BF38
S31508001A00C1F3421501F01F03012606FA03F3012D5F
S31508001A1002D19689334006E0022D02D1168A334058
S31508001A2001E0968A33400C12012606FA04F4168859
S31508001A30344013B10CB1012000E0002070BDF0B5B0
S31508001A400346002400260025002040F66A17B942FE
S31508001A5000D100BF1846C1F3421401F01F06012742
S31508001A6007FA06F5012C01D10C3004E0022C01D14D
S31508001A70103000E014301AB107682F43076002E0FF
S31508001A800768AF430760F0BD2DE9F04786B0054605
S31508001A900E460024A24600BFA1460027B08900B121
S31508001AA000BF2F462C8A4CF6FF700440F08804438A
S31508001AB02C82AC894EF6F3100440B088318908436D
S31508001AC0718908430443AC81AC8A4FF6FF40044051
S31508001AD0B0890443AC8201A8FFF728FA1F48874259
S31508001AE002D1DDF810A001E0DDF80CA0A88900F409
S31508001AF0004040B10AEBCA0000EB0A103168490001
S31508001B00B0FBF1F807E00AEBCA0000EB0A103168EF
S31508001B108900B0FBF1F86420B8FBF0F00401200955
S31508001B20642101FB1089A88900F4004040B13220E5
S31508001B3000EBC900B0FBF1F000F00700044308E031
S31508001B40322000EB09106421B0FBF1F000F00F0021
S31508001B5004432C8106B0BDE8F08700000038014038
S31508001B6001468888C0F308007047C1F308028280DE
S31508001B70704700BFFEE700000FB4054B10B503A978
S31508001B80044A029800F0A8F810BC5DF814FB00009F
S31508001B90ED22000850000020490050EAC12018BF75
S31508001BA004204A0D18BF40F0010040F2FF72B2EB64
S31508001BB0515F08BF40F00200012808BF05207047A2
S31508001BC02DE9F0414F1E00EBC7010446D1E900019B
S31508001BD015461E4637F006020DD02A463346FEF74E
S31508001BE066FB7F1E04EBC703D3E90023FEF7B8FAAA
S31508001BF037F00602F1D1022F25D0042F13D0062F75
S31508001C0018BFBDE8F0812A463346FEF750FBD4E9F3
S31508001C100A23FEF7A5FA2A463346FEF748FBD4E917
S31508001C200823FEF79DFA2A463346FEF740FBD4E919
S31508001C300623FEF795FA2A463346FEF738FBD4E91B
S31508001C400423FEF78DFA2A463346FEF730FBD4E91D
S31508001C500223FEF785FA2A463346FEF728FBD4E91F
S31508001C600023BDE8F041FEF77BBA000000221346C8
S31508001C7010460149FEF761BC0000F03FFEF770BA56
S31508001C800022134610461146FEF757BC40F20132B1
S31508001C9000204FF0E041FEF7BFBC0000024A0020DA
S31508001CA01107FEF7B9BC000001FDFFFF02E008C8F6
S31508001CB0121F08C1002AFAD170477047002001E0B8
S31508001CC001C1121F002AFBD17047000001490860B4
S31508001CD070470000540000202DE9FF4F8BB088465E
S31508001CE00546002606E025280BD0DDE90D129047AB
S31508001CF06D1C761C28780028F5D10FB03046BDE853
S31508001D00F08F0024A146A2460122AE4900E0044312
S31508001D1015F8013F203B02FA03F00842F7D128786C
S31508001D202A2810D06FF02F022878A0F1300109294F
S31508001D3015D809EB890102EB410144F0020400EBD6
S31508001D4001096D1CF0E758F8041B5FEA010903D581
S31508001D5044F40054C9F1000944F002046D1C2878C3
S31508001D602E2817D115F8010F44F004042A280ED09E
S31508001D706FF02F022878A0F1300109290AD80AEB5A
S31508001D808A0102EB410100EB010A6D1CF2E758F8E3
S31508001D9004AB6D1C28786C280FD006DC4C2817D0AD
S31508001DA068280DD06A2814D104E0742810D07A283F
S31508001DB00FD10DE044F400140AE044F4801401E065
S31508001DC044F440146978814202D104F580146D1CEC
S31508001DD06D1C2878692865D006DC00288DD0632814
S31508001DE027D0642806D15DE06E2808D073282AD04B
S31508001DF0752877D0DDE90D129047761CE0E0C4F32C
S31508001E000250022809D003280DD0D8F8001004285B
S31508001E100DD00E6008F10408D2E0D8F80010F217C9
S31508001E20C1E90062F6E7D8F800100E80F2E70E70F6
S31508001E30F0E718F8041B8DF8001000208DF8010053
S31508001E40EB46012003E058F804BB4FF0FF3061076A
S31508001E504FF0000701D40AE07F1C57450DDA874288
S31508001E60FADB1BF807100029F6D106E07F1C87422B
S31508001E70FCDB1BF807100029F8D1DDE90D23A9EBD7
S31508001E8007008146214600F0B1F83044C61904E03F
S31508001E90DDE90D121BF8010B90477F1EF8D221468B
S31508001EA0484688E058F8040BC4F302514FF00A0B71
S31508001EB0032900D100B2042900D140B2002802DA71
S31508001EC040422D2102E0210505D52B218DF824104D
S31508001ED0012104E006E0E10710D02021F6E708AF6B
S31508001EE0089113E058F8040BC4F302514FF00A0B9B
S31508001EF0032900D180B2042900D1C0B20021EEE73F
S31508001F005946FEF776FA303107F8011D0028F7D151
S31508001F10ADEB070000F1200B600702D524F48034EE
S31508001F2001E04FF0010ADA4502DDAAEB0B0000E0FA
S31508001F300020824600EB0B0108980144A9EB01003A
S31508001F400A90E00306D4DDE90D2321460A9800F03D
S31508001F504DF806444FF0000908E009A911F80900F0
S31508001F60DDE90D12904709F10109761C08998945A2
S31508001F70F3DBE0030CD5DDE90D2321460A9800F0D2
S31508001F8035F8064404E0DDE90D1230209047761C4A
S31508001F90BAF10001AAF1010AF5DC05E0DDE90D1246
S31508001FA017F8010B9047761CBBF10001ABF1010B4A
S31508001FB0F4DC0A982146DDE90D2300F005F806440D
S31508001FC06D1C97E6092801002DE9F0410446002515
S31508001FD01E461746880404D405E039462020B04733
S31508001FE06D1C641EF9D52846BDE8F0812DE9F0413F
S31508001FF0044600251E469046C80301D5302700E052
S315080020002027880404D505E041463846B0476D1CAC
S31508002010641EF9D52846BDE8F081000010B51B48B6
S315080020200078722811D140F634010846FEF718FFE9
S3150800203000F078F816480068401C154908601548ED
S31508002040006808BB002008601EE010480078622877
S3150800205007D140F698010846FEF702FF00F020F87F
S3150800206012E001200C49086000200C49C1F8B401AF
S3150800207009490831086001200849C1F8BC0140F641
S3150800208098010846FEF7ECFE10BD00005800002037
S31508002090480000203C012242B081214200802142B2
S315080020A070B500211848FEF74BFB054640F60204BA
S315080020B0294616A0FFF760FD1E2D06DBA1B2A0B2C9
S315080020C0FEF7CEFE00F02EF91CE015F1140F06DC23
S315080020D0A1B2A0B2FEF7C4FE00F066FE12E040F61A
S315080020E098010846FEF7BCFE01200C49086000204E
S315080020F00B49C1F8B40109490831086001200849AB
S31508002100C1F8BC0170BD000058000020E99DB6E585
S31508002110AD903D2564200D0A00000000B0812142E3
S315080021200080214210B500211D48FEF709FB1D4914
S315080021300860084601681CA0FFF71EFD40F634013A
S315080021400846FEF78DFE174800681E2802DB00F0D9
S31508002150FBF823E01348006810F11E0F02DC00F0BC
S3150800216037FE1BE00F48006810F11E0F16DB0D48FE
S3150800217000681E2812DC40F634010846FEF770FE99
S3150800218001200D49086000200C49C1F8B4010A492C
S315080021900831086001200949C1F8BC0110BD0000DA
S315080021A0580000201C000020E99DB6E5BF83203DAD
S315080021B0202564200D0A0000B081214200802142BA
S315080021C010B500200E49086001200E49C1F8B40177
S315080021D00B490831086000200A49C1F8BC0140F6DD
S315080021E0C41140F62820FEF73BFE4FF47A7000F043
S315080021F02BF800F027FE4FF4FA6000F025F810BD22
S31508002200B0812142008021424FF0E021096921F086
S3150800221004014FF0E0221161C21700EB5272C2F3BB
S31508002220C702074B1A701946097801EB4102C2EB3F
S31508002230C1114FF6FF7202EAC101024A11807047C6
S31508002240140000201600002001460D4A12884A4351
S315080022504FF0E0235A6100229A6101221A6100BFF9
S315080022604FF0E022106900F001021AB100F4803242
S31508002270002AF5D000224FF0E0231A619A617047D0
S315080022801600002010B540F6FC010846FEF7E8FDEA
S3150800229001200749086000200649C1F8B40104492D
S315080022A00831086001200349C1F8BC0110BD0000CF
S315080022B0B08121420080214210B5012009490860F9
S315080022C000200949C1F8B40106490831086001200F
S315080022D00549C1F8BC0140F698010846FEF7C0FD5D
S315080022E010BD0000B08121420080214270B504462D
S315080022F00D46E1B20548FFF738FC00BF80210348C8
S31508002300FFF766FB0028F9D0204670BD003801406B
S315080023100146302903DB392901DC012070470020FA
S31508002320FCE700000020064908600649C1F8B40128
S3150800233003490831086001200249C1F8BC01704709
S31508002340B0812142008021420020064908600649E2
S31508002350C1F8B40103490831086001200249C1F8EF
S31508002360BC017047B08121420080214210B5092086
S31508002370FEF7A2FE4820FFF747FFFEF74DFAFEF7E5
S3150800238055FAFEF7B7FAFEF707FBFEF765FC0323D7
S315080023904FF4004215491020FEF7F4FB03234FF4CF
S315080023A0005212491020FEF702FC00F04BFD4FF4D4
S315080023B07A70FFF749FFFFF765FF4FF4FA70FFF7EA
S315080023C043FF00F03FFD4FF47A70FFF73DFFFEF73D
S315080023D037FEFEF74FFEFFF755FFFEF757FEFFF7EE
S315080023E0EFFE00F02FFD002010BD00000010014098
S315080023F02DE9F04D16460F4694B01C4621F00041D3
S3150800240023F00042002814BF4FF0010C4FF0000CD7
S315080024100CEB470CFE4B0CEB03054FEA630C6545CA
S315080024202BD3350018BF012505EB44051D44F94B90
S315080024309D4222D3F84B52EA060C02D09F4205D1A0
S3150800244048B914B000201946BDE8F08D002808BF29
S315080024504FF0000C01D04FF0010C0CEB470313F5BD
S31508002460001F0AD8002E14BF4FF0010C4FF0000CC5
S315080024700CEB440313F5001F07D914B03246234664
S315080024803946BDE8F04DFFF7F9BBDFF890834FF00A
S31508002490000A002FB8BF424523DAE14B9A42A8BF8B
S315080024A04FF0020A1DDADC4B93421ADCDD4B03EBD4
S315080024B02253142B08DDC3F1340C26FA0CF303FA65
S315080024C00CFCB4450DD108E05EB9C3F1140C22FA30
S315080024D00CF303FA0CFC944503D103F00103C3F192
S315080024E0020A51EA00031BD1002C19DA002F18BF83
S315080024F0BAF1020F02D0BAF1010F07D00220FFF796
S31508002500E5FB14B0BDE8F04DFFF7B0BB0220FFF7BE
S31508002510DDFBFFF7ABFB14B081F00041BDE8F08DA1
S31508002520330070D1424525D107F1804212F5801259
S3150800253001BF00280020B84914B008BFBDE8F08DD7
S31508002540B548884207DC002CA1BF1846214614B0BE
S31508002550BDE8F08D07E0002CBFBF184684F00041A7
S3150800256014B0BDE8F08DB0497944D1E9000114B042
S31508002570BDE8F08DDFF8A0C262452AD1002C24DA26
S3150800258039B1414517D1002804BF002002461CD1A5
S3150800259006E040B10220FFF799FBFFF777FB0A46F2
S315080025A0394600F0D7BA9D4A394614B0002062F37E
S315080025B01E01BDE8F08D08DA14B03B46BDE8F04DC3
S315080025C0024600206146FDF7B8BF14B03946BDE89B
S315080025D0F08D414517DAB4F1804F0CD0A4F10053C1
S315080025E0B3F1FF530FD13B1E0DDB14B01946BDE8FE
S315080025F0F04D00F001BC3B4614B00246BDE8F04D74
S315080026001946FDF754BE050027F000433AD1E1B15B
S31508002610414537D1002F06DD002CA1BF00204146D9
S3150800262014B0BDE8F08D002F01DD002C1FDB002F54
S3150800263016DA002C14DBBAF1010F4FF0000014BFB4
S3150800264076497A4914B0BDE8F08DBAF1020F18BF81
S31508002650002F0CD0BAF1010F09D1002F07DA0BE0D1
S31508002660002FB8BF002C0DDABAF1010F04D00020F4
S3150800267014B00146BDE8F08D14B000204FF00041BB
S31508002680BDE8F08D4FF0010808EBE77CCDF814C0E3
S315080026905CEA0A0C0DD0DFF898C162457EDDDFF8EA
S315080026A094C1654B624512DD8B420ADB002C18DBB0
S315080026B023E00120FFF70AFB14B0BDE8F04DFFF751
S315080026C0DFBA554A8A4202DC002C0ADC15E0994238
S315080026D002DA002C11DA04E04F4B994219DD002C7E
S315080026E00BDD0220FFF7F2FAFFF7D0FA4B4A14B0D7
S315080026F061F31E021146BDE8F08D0220FFF7E6FAE7
S31508002700FFF7CCFA444A14B061F31E021146BDE83D
S31508002710F08D00223946FDF7C4FD07460D466FF0D9
S315080027200102FDF779FF4FF05532444BFDF7BCFD2A
S315080027303A462B46FDF7BBFD0022414BFDF7B4FD9B
S3150800274080468B463A462B4610461946FDF7AFFD9E
S3150800275042465B46FDF7ABFD88460E904FF0C042F9
S31508002760384B38462946FDF7A2FD83460091364A7E
S31508002770344B41460E98FDF79AFD80460191334A3F
S31508002780334B38462946FDF792FD4246019BFDF735
S3150800279088FD0D4602460B460C9000E011E05846AF
S315080027A00099FDF7DDFC002788465A463846009B07
S315080027B0FDF777FD2B460C9AFDF776FD024600F0ED
S315080027C079B90020B1F5801F07DA3522284619465F
S315080027D0FDF722FF05466FF0340000EB2150A0F20A
S315080027E0FF300190C1F3130040F07F6141F0405182
S315080027F0029118498842D8BF4FF0000B35DD1649BB
S315080028008142C8BF4FF0010B2FDC4FF0000B25E0CB
S31508002810FFFF1F00FFFF0F000000F03F0000F07FE2
S315080028200000404301FCFFFF0C0A00000000F0FF17
S315080028300000E0410000F043FFFFEF3F5555D53F4C
S315080028400000E03F4715F73FFE822B6544DF5DF841
S315080028500BAE543E8E9803007AB60B000198401CC6
S3150800286001900298A0F580100290FF4802997844DA
S3150800287000EBCB000991D0E9002328460B9312926E
S31508002880FDF70FFD00910A9028460B9B129A0999AD
S31508002890FDF766FC02460B460020F449FDF74DFE9F
S315080028A0CDE90C010B46024600990A98FDF7FFFC94
S315080028B00690EF48884600277844029900681090E9
S315080028C04FF0005040EA610000EB8B4000F5002114
S315080028D002910B9B129A1098FDF7E3FC2A46099B76
S315080028E0FDF7E2FC3A464346FDF7E1FC08911290F3
S315080028F038464146029B109AFDF7D9FC009B0A9A76
S31508002900FDF7D2FC089B129AFDF7CBFCDDE90C23F8
S31508002910FDF7CDFC0B91069A1290434610461946D0
S31508002920FDF7C5FC05460246D2480B460A91062124
S315080029307844FFF745F90A9B2A4608910290104603
S315080029401946FDF7B4FC089B029AFDF7B0FC05464C
S315080029500991434638461946069AFDF701FC0B9B32
S31508002960129AFDF7A4FC2A46099BFDF7F9FBCDE967
S3150800297008013A46434610461946FDF798FC0A915F
S315080029800022BD4B0090FDF7EBFBDDE90823FDF7C0
S31508002990E7FB0D463A46B84B3846FDF782FC0A9BDC
S315080029A0009AFDF77EFCDDE90823FDF77DFCCDE9FD
S315080029B008013A462B4610464146FDF778FC009139
S315080029C00A90DDE908014346069AFDF770FC069071
S315080029D088462B463A460B991298FDF768FC4346FB
S315080029E0069AFDF7BDFB80460B4602460D910099F7
S315080029F00A98FDF7B5FB00200F460546009B0A9A84
S31508002A00FDF74FFC42460D9BFDF74EFC88460E909F
S31508002A104FF06042994B28463946FDF748FC02912B
S31508002A200090974A954B41460E98FDF740FC804624
S31508002A300391944A944B28463946FDF738FC42469A
S31508002A40039BFDF78DFB914A7A4402EBCB03D3E94E
S31508002A500023FDF785FB054607910198FDF799FCCC
S31508002A600C9003912A46079B02990098FDF778FB7C
S31508002A70874A7A4402EBCB03D3E9002393460193B2
S31508002A80FDF76EFB039B0C9AFDF76AFB0027884649
S31508002A903846039B0C9AFDF704FC5A46019BFDF742
S31508002AA000FC029B009AFDF7FCFB2A46079BFDF7F4
S31508002AB0FBFB02460020069005986C4DAAF101031F
S31508002AC0184301D1734D069000200B4604903046FA
S31508002AD02146FDF7ECFB82468B46234630461946CF
S31508002AE0049AFDF7DEFB3A464346FDF7E0FB5246FD
S31508002AF05B46FDF735FB06468A463A464346214677
S31508002B000498FDF7D4FB04460F4632465346FDF7B4
S31508002B1027FB614A8B46914221DBABEB020353EA62
S31508002B20000210D122463B46FDF7BBFB80460391C7
S31508002B305A4A5B4B30465146FDF712FB4246039B09
S31508002B40FDF782FD27D20220FFF7C0F8FFF79EF8AF
S31508002B500A46294614B062F31E01BDE8F08D514BB2
S31508002B602BF000429A4216D34F4A0BEB020353EA64
S31508002B70000208D122463B46FDF793FB32465346F0
S31508002B80FDF762FD07D80220FFF7A0F8FFF786F8E1
S31508002B900A462946DEE72BF000404449444A01EB41
S31508002BA020514FF00008824223DA481C4FF4801166
S31508002BB021FA00F058443F4AC0F30A517A443E4B82
S31508002BC0A1F2FF31CB4020EA0303C0F3130040F41F
S31508002BD0801CC1F1140012682CFA00F8BBF1000F32
S31508002BE0B8BFC8F1000820463946FDF75AFB044627
S31508002BF00F4622463B4630465146FDF7B1FA4FF09E
S31508002C00000B5A462D4B58460391FDF750FB009191
S31508002C100A902B4A2B4B58460399FDF748FB04911B
S31508002C20029022463B4658460399FDF73AFB324640
S31508002C305346FDF739FB244A244BFDF738FB049B22
S31508002C40029AFDF78DFA07468A46009B0A9AFDF70F
S31508002C5087FA04460E46009B0A9AFDF722FB3A4677
S31508002C605346FDF721FB33E07E0600000000F03FE7
S31508002C70BC060000EC0500000000084009C7EE3F4E
S31508002C80FD033ADCF5015B14E02F3EBEC4040000E8
S31508002C908A0400000000F0BF00009040FE822B6509
S31508002CA04715973C00CC904000346F3F01FCFFFF6E
S31508002CB00000E03FB8030000FFFF0F00432EE63F89
S31508002CC0396CA80C615C20BEEF39FAFE422EE63F4D
S31508002CD00746224633460F9110461946FDF7E7FA8E
S31508002CE0834602462E488A460B4605217844FEF757
S31508002CF067FF5A465346FDF7DAFA22463346FDF78A
S31508002D00D3FA82468B463A46204631460F9BFDF754
S31508002D10CEFA3A460F9BFDF723FA0F460A90002291
S31508002D204FF0804350465946FDF7BBFA0391009091
S31508002D3052465B4620463146FDF7B9FA039B009A90
S31508002D40FDF7FBFB3B460A9AFDF7ABFA22463346EC
S31508002D50FDF7A7FA0022134BFDF7A6FA0E4604461E
S31508002D6001EB08510815002810DC4246204631467A
S31508002D70FDF752FCFEF710FF042808BFFEF78EFF8A
S31508002D80424620463146FDF747FC044606980B4660
S31508002D9014B022462946BDE8F04DFDF788BA000072
S31508002DA0600200000000F03F00200749086007495C
S31508002DB0C1F8B4010120044908310860002003491C
S31508002DC0C1F8BC0170470000B08121420080214251
S31508002DD00020074908600749C1F8B40101200449E1
S31508002DE00831086000200349C1F8BC01704700009B
S31508002DF0B0812142008021422DE9F04106460F4666
S31508002E00FDF74CFC04000D4618BF0120284320F0AE
S31508002E100040C0F17F6000F1E040C00F0ED0301CCA
S31508002E2018BF0120384320F00040C0F17F6000F150
S31508002E30E040C00F04BF0120FEF748FF20462946A0
S31508002E40BDE8F0810020064908600649C1F8B401CA
S31508002E500349083108600349C1F8BC0170470000FE
S31508002E60B08121420080214270B50220FEF7C8F8E1
S31508002E70051E01DB284600E06842A0F5EA44303C1E
S31508002E80002C01DB204600E060421449086003205C
S31508002E90FEF7B6F8051E01DB284600E06842A0F5F5
S31508002EA0EA44303C002C01DB204600E060420C4935
S31508002EB0086008460268094801680AA0FEF75CFE31
S31508002EC00648006848B90648006830B9FFF7F4F9BB
S31508002ED04B20FFF7B9F9FFF7A1F870BD3C000020B9
S31508002EE04000002025642C2564200D0A00000000FF
S31508002EF0000000000000F03F000000000000F83F5E
S31508002F0000000000000000000000004003B8E23F97
S31508002F10000000000000000006D0CF43EBFD4C3E49
S31508002F20033333333333E33FFFAB6FDBB66DDB3F3E
S31508002F304D268F515555D53F01411DA96074D13F86
S31508002F4065DBC9934A86CD3FEF4E454A287ECA3F80
S31508002F503E5555555555C53F93BDBE166CC166BF02
S31508002F602CDE25AF6A56113FF16BD2C541BDBBBEFB
S31508002F70D0A4BE726937663E00000000000000005B
S31508002F80A02F00080000002058000000AC1C000814
S31508002F90F82F00085800002018040000BC1C000880
S31508002FA000000000010203040102030406070809E1
S31508002FB002040608000000000000000000000000EF
S31508002FC000000000000000000000000000000000F3
S31508002FD000000000000000000000000000000000E3
S31508002FE000000000000000000000000000000000D3
S30D08002FF00000000000000000CB
S70508000131C0
