S31508000000D8040020450100082D030008A9020008AD
S3150800001029030008850100086D0400080000000097
S315080000200000000000000000000000005103000866
S3150800003089010008000000002F030008E5030008F6
S315080000405B0100085B0100085B0100085B01000812
S315080000505B0100085B0100085B0100085B01000802
S315080000605B0100085B0100085B0100085B010008F2
S315080000705B0100085B0100085B0100085B010008E2
S315080000805B0100085B0100085B0100085B010008D2
S315080000905B0100085B0100085B0100085B010008C2
S315080000A05B0100085B0100085B0100085B010008B2
S315080000B05B0100085B0100085B0100085B010008A2
S315080000C05B0100085B0100085B0100085B01000892
S315080000D05B010008E90300085B0100085B010008F2
S315080000E05B0100085B0100085B0100085B01000872
S315080000F05B0100085B0100085B0100085B01000862
S315080001005B0100085B0100085B0100085B01000851
S315080001105B0100085B0100085B0100085B01000841
S315080001205B0100085B0100085B0100085B01000831
S31508000130DFF80CD000F014F8004800470D05000859
S31508000140D804002005480047FEE7FEE7FEE7FEE77D
S31508000150FEE7FEE7FEE7FEE7FEE7FEE731010008F9
S31508000160064C074D06E0E06840F0010394E80700F6
S3150800017098471034AC42F6D3FFF7DEFF08060008AE
S315080001802806000800BFFEE770472DE9F041024641
S3150800019000250026002000230024002791F803C02C
S315080001A00CF00F0591F803C00CF0100CBCF1000F11
S315080001B003D091F802C04CEA050591F800C0BCF1DD
S315080001C0000F31D0146800202BE04FF0010C0CFA18
S315080001D000F3B1F800C00CEA03069E4220D1830062
S315080001E04FF00F0C0CFA03F7BC4305FA03FC4CEA74
S315080001F0040491F803C0BCF1280F06D14FF0010C96
S315080002000CFA00FCC2F814C00AE091F803C0BCF16D
S31508000210480F05D14FF0010C0CFA00FCC2F810C0CB
S31508000220401C0828D1D31460B1F800C0BCF1FF0FF8
S3150800023034DD546800202EE000F1080C4FF0010868
S3150800024008FA0CF3B1F800C00CEA03069E4221D165
S3150800025083004FF00F0C0CFA03F7BC4305FA03FCB6
S315080002604CEA040491F803C0BCF1280F05D100F14B
S31508000270080C08FA0CF8C2F8148091F803C0BCF10F
S31508000280480F07D100F1080C4FF0010808FA0CF8DE
S31508000290C2F81080401C0828CED35460BDE8F0810F
S315080002A0416170470161704700BFFEE700B5002055
S315080002B015490861C8601420486100208861C86132
S315080002C00846006840F001000860084640680F4983
S315080002D008400D494860084600680D4908400A4923
S315080002E008600846006820F48020086008464068D0
S315080002F020F4FE0048600020886000214FF000606E
S3150800030000F008F800BD0000001002400000FFF8E9
S31508000310FFFFF6FE024A0A400243024B1A60704784
S3150800032080FFFF1F08ED00E000BFFEE7704770473B
S3150800033029B1064A92690243044B9A6104E0034ACA
S3150800034092698243014B9A6170470000001002408F
S315080003507047000030B504460025FFF7A7FF1F4881
S31508000360006840F480301D49086000BF1B480068DB
S31508000370400C0028FAD04FF4806018494860A01E47
S31508000380C4B20846406840EA844048600846406867
S3150800039040F4803048601248006840F03200104946
S315080003A008600E48006840F080700C49086000BF7D
S315080003B00A480068400E0028FAD00848406840F00D
S315080003C002000649486005E004484068C0F387050E
S315080003D005F00305022DF7D130BD000000100240DC
S315080003E000200240704700001D49098801F02001DD
S315080003F011B31B49091D0988C8B21A49098801F4AD
S315080004000041C9B91749098801F4804161B10A2830
S3150800041003D00021134A118020E01249098841F4CB
S315080004200041104A118019E00D2806D10D490988A6
S3150800043041F480410B4A118010E00A490988C1F34A
S315080004400D01094A505407490988491C054A118073
S3150800045011460988C72901DD00211180704700006F
S3150800046000380140080000200C00002000BFFEE70D
S3150800047002E008C8121F08C1002AFAD1704770475F
S31508000480002001E001C1121F002AFBD170470000BD
S315080004904FF0E021096921F004014FF0E0221161D3
S315080004A0C21700EB5272C2F3C702074B1A701946FD
S315080004B0097801EB4102C2EBC1114FF6FF7202EA5D
S315080004C0C101024A11807047000000200200002086
S315080004D001460D4A12884A434FF0E0235A6100222A
S315080004E09A6101221A6100BF4FF0E022106900F0FC
S315080004F001021AB100F48032002AF5D000224FF02A
S31508000500E0231A619A6170470200002008B50920A5
S31508000510FFF720FF4820FFF7BBFF01210420FFF764
S3150800052007FF10208DF803004FF6FF70ADF80000A6
S3150800053003208DF8020069463248FFF726FE4FF67B
S31508000540FF713048FFF7AEFE5AE001212D48FFF74C
S31508000550A7FE6420FFF7BCFF01212A48FFF7A2FE89
S3150800056002212848FFF79CFE6420FFF7B1FF02210D
S315080005702448FFF797FE04212248FFF791FE6420DE
S31508000580FFF7A6FF04211F48FFF78CFE08211D4828
S31508000590FFF786FE6420FFF79BFF08211948FFF73F
S315080005A081FE10211748FFF77BFE6420FFF790FFB6
S315080005B010211448FFF776FE20211248FFF770FE37
S315080005C06420FFF785FF20210E48FFF76BFE6420A5
S315080005D0FFF77EFF40210B48FFF762FE6420FFF716
S315080005E077FF40210748FFF75DFE80210548FFF7A2
S315080005F057FE6420FFF76CFF80210248FFF752FE82
S31508000600A3E70000000801402806000800000020B3
S315080006100C00000070040008340600080C000020D6
S31508000620CC04000080040008000000000000000060
S3090800063000000000B8
S70508000131C0
