:020000040800F2
:1000000098070020E5010008991300081112000864
:10001000E5120008A50E0008AF210008000000004E
:100020000000000000000000000000009116000821
:10003000BB0E0008000000003915000889170008F1
:10004000FB010008FB010008FB010008FB010008A0
:10005000FB010008FB010008FB010008FB01000890
:10006000FB010008FB010008FB010008FB01000880
:10007000FB010008FB010008FB010008FB01000870
:10008000FB010008FB010008FB010008FB01000860
:10009000FB010008FB010008FB010008FB01000850
:1000A000FB010008FB010008FB010008FB01000840
:1000B000FB010008FB010008FB010008FB01000830
:1000C000FB010008FB010008FB010008FB01000820
:1000D000FB010008A51F0008FB010008FB01000848
:1000E000FB010008FB010008FB010008FB01000800
:1000F000FB010008FB010008FB010008FB010008F0
:10010000FB010008FB010008FB010008FB010008DF
:10011000FB010008FB010008FB010008FB010008CF
:10012000FB010008FB010008FB010008FB010008BF
:1001300000F002F800F047F80AA090E8000C8244B2
:100140008344AAF10107DA4501D100F03CF8AFF28F
:10015000090EBAE80F0013F0010F18BFFB1A43F0A5
:1001600001031847403C0000603C0000103A24BFE7
:1001700078C878C1FAD8520724BF30C830C144BF0C
:1001800004680C607047000000230024002500264E
:10019000103A28BF78C1FBD8520728BF30C148BFEA
:1001A0000B607047642900F04580002070471FB540
:1001B0009DE8030000F0E2FB00F0AEF91FBD10B5B2
:1001C00000F013FA10BD00F07BFA1146FFF7EFFFC5
:1001D00002F0FEF900F080FB03B4FFF7F0FF03BC70
:1001E00000F05EFD08480047FEE7FEE7FEE7FEE799
:1001F000FEE7FEE7FEE7FEE7FEE7FEE70348044909
:10020000044A054B704700003101000898010020A6
:100210009807002098030020980300200FB4044999
:1002200010B503AA029800F045F910BC5DF814FB64
:10023000900000202DE9F041064600241068752941
:10024000314616A510D0AFF30080002802DA4042F4
:1002500013A507E031688A0701D512A502E0490716
:1002600004D511A5012401E0AFF3008000210A228A
:1002700006F1240709E0B0FBF2FCB0FBF2F302FB4D
:100280001C00303078541846491C0028F3D123460E
:100290002A463046BDE8F04100F0B2B80000000048
:1002A0002D0000002B000000200000002DE9F05F71
:1002B000894604464FF0000ADFF824B1FB44C0F839
:1002C00020A02046E168884700287DD0252806D058
:1002D000D4E901219047206A401C2062F1E7002503
:1002E0005F462046E16888472028064607DB312E16
:1002F00005D2B81910F8200C08B10543F1E7A8079A
:1003000001D525F00405C4F81CA00027C4F818A0E6
:100310002A2E09D0304601F0D5FF38B304EB870808
:10032000303EC8F8186019E059F8041B204604EB69
:1003300087029161E1688847012F064618D1E0697C
:10034000002820DA25F020051DE0D8F8180000EB81
:10035000800006EB40003038C8F818002046E168FD
:100360008847064601F0AEFF0028EED1012F0AD0E3
:100370002E2E08D12046E16888477F1C0646022FB2
:1003800045F02005C4DBA069002803DA404245F0AF
:100390000105A061E80701D025F01005A6B1A6F17E
:1003A0004100192802D8203645F400654A463146F6
:1003B000204625604D46FFF7F5FE60B1012807D0C5
:1003C000ED1D25F0070000E007E000F1080978E7DF
:1003D00005F1040975E730467AE7206ABDE8F09F29
:1003E000303A000070477047704710B500F074F85D
:1003F000006810BD10B5044600F06EF8046010BD32
:100400002DE9F0470D4699469246044600F124082E
:100410000168880604D5E06921F01001216000E040
:100420000120A84201DD471B00E00027A1697A19DD
:1004300002EB0900081AA0612078C00602D4204609
:10044000AFF30080002608E0D4E901211AF8060085
:100450009047206A401C761C20624E45F4DB2078D1
:10046000C0060AD52046AFF3008006E0D4E901219A
:1004700030209047206A401C2062381EA7F10107F7
:10048000F4DC07E0D4E9012118F805009047206A60
:10049000401C2062281EA5F10105F3DC2046AFF3C5
:1004A00000802078000602D50220BDE8F0870120F8
:1004B000FBE70000074B70B50D467B4400F015F8D4
:1004C0000446284600F024F810B14FF0FF3070BD0C
:1004D000204670BD8F200000004870473801002082
:1004E00001694A1C02610878704700B58FB0CDE9F8
:1004F00001310021059105497944CDE903101146E8
:100500006846FFF7D3FE0FB000BD0000E5FFFFFF18
:10051000007B00F08000704710B54248542100F085
:10052000E8F94148542100F0E4F94048542100F032
:10053000E0F93F493B483C4A3F4B08603D490A606F
:100540003A491960531C0365481C10650120086571
:100550003B48344A39A1784400F022F920B93848A0
:1005600078440A3800F0BEF937482F4A35A178445C
:1005700000F016F920B9344878440A3800F0B2F98E
:1005800032482A4A2FA1784400F00AF920B92F48AE
:1005900078440A3800F0A6F940232248DC00002104
:1005A000224600F0D9F820B125487844543800F0AC
:1005B00099F91D4822464023002100F0CDF820B1D2
:1005C00021487844543800F08DF918482246102309
:1005D000002100F0C1F8002806D01C487844BDE88E
:1005E0001040563800F07EB910BD104870B5006D4F
:1005F00020F001040B4800F049F90B4800F046F9DF
:100600000A4800F043F909E0206D20F0010520467A
:1006100000F03CF9204600F078F82C46002CF3D18D
:1006200070BD00003C00002090000020E40000208D
:100630001C00002020000020240000207200000088
:100640003E380000770000002A380000163800000D
:100650000EB5CDE9000100F003FB029069460120D0
:10066000ABBE0EBD08B5694600900220ABBE08BD0A
:100670001FB58DE8070069460520ABBE04B010BD6C
:100680001FB58DE80F0069460620ABBEF6E708B53A
:10069000694600900920ABBE08BD1CB5CDE900013C
:1006A00069460A20ABBE1CBD704708B5694600907C
:1006B0000C20ABBE08BD0000004870473801002088
:1006C0007546FFF7F9FFAE4605006946534620F030
:1006D0000700854618B020B5FFF790FDBDE8204023
:1006E0004FF000064FF000074FF000084FF0000BEE
:1006F00021F00701AC46ACE8C009ACE8C009ACE8A1
:10070000C009ACE8C0098D46704770B50446051FA6
:1007100000F018F90068002C14BF446870BD002C6C
:1007200018BFAC423CBF20466468F8D301680A1881
:10073000AA4218BF456003D12A68054611440160EA
:1007400028684119A1421CBF6C6070BD6168696076
:1007500021680844286070BD70B5C468A50713D02F
:10076000650211D4B2F5807F09D0B2F5007F06D0C2
:10077000B2F5806F08D1012300F1240106E05D1E6F
:100780006FF07F46B54201D3012070BD0161C361A6
:10079000416024F470611143C160002070BD00000D
:1007A0002DE9F0410C4607461646104600F06EF85B
:1007B0002078611C61280AD0722802D077283CD1A9
:1007C00002E00125002405E00225042402E00824BB
:1007D00048F2020511F8010B2B2806D0622809D037
:1007E00011F8010C74280AD00BE045F0030544F021
:1007F0000204EFE745F0040544F00104EAE744F0A1
:10080000100438462146FFF723FF411C15D0002174
:10081000316171604FF40071F560F1617061200722
:1008200004D530460222002100F006F9306D40F078
:10083000010030653046BDE8F0810020FBE72DE97E
:10084000F0410D460646104C206DC10704D041080A
:1008500004D020F00104F7E722460EE0542000F017
:10086000BCF807000ED0206D47F001010843542169
:100870002065384600F03DF83A4629463046BDE846
:10088000F0418DE70020D6E73C0000202DE9F0473D
:1008900004464FF000094FF0FF37C568D4E90486DD
:1008A000A80707D0204600F077F93046FFF7DAFEB8
:1008B000002802DA3846BDE8F087280502D5404610
:1008C000FFF723FF4C21204600F013F8206D20F0A5
:1008D000010020654846EEE70446AFF3008020465D
:1008E000FFF77AFC10B500F0A1F9BDE8104000F068
:1008F00097B94FF0000200B513469446964620394A
:1009000022BFA0E80C50A0E80C50B1F12001BFF4C8
:10091000F7AF090728BFA0E80C5048BF0CC05DF82E
:1009200004EB890028BF40F8042B08BF704748BF7C
:1009300020F8022B11F0804F18BF00F8012B7047F0
:100940007047000000487047400100207047704722
:100950007047704738B504460A4600206946AFF331
:100960000080002808BF38BD02460099204600F0EC
:10097000A4F9012038BD012000F0F3B9F8B5AFF3B8
:100980000080054600200C46102000BF0646A8192E
:10099000A0420DD9324669460020AFF3008007001F
:1009A00008BF00F0DEF90098A04218BF0546C41940
:1009B000FFF7C8FF05600746F01D20F00700461945
:1009C000284600F073F9B44208BFF8BDA21B3146B7
:1009D0003868BDE8F84000F070B970B50646FFF71A
:1009E000B1FF056806F10B0020F00704B4429CBF7C
:1009F000002070BD2B466A68BAB11068A04210D3BF
:100A000004F1080188423CBF5068586007D3516820
:100A1000101941601168091B016058601460101DB5
:100A200070BD13465268002AE7D121462846FFF7D9
:100A300091FF0028DED170BD2DE9F0410446164635
:100A40000D464769007B80072ED03846FFF71FFE12
:100A500050BB3EB3012E02D0022E25D104E0204629
:100A600000F045F905441DE03846FFF71EFEE16839
:100A7000002841F01001E16005DA204600F058F846
:100A80000120BDE8F081C9030BD56268E16A91429B
:100A900000D81146A26911442269891A814200DDF9
:100AA00008460544002D01DA0220EAE7E16A6068A1
:100AB000E268814206D29103E06203D522F400315C
:100AC00041F01002A6690027AE4213DCE16A8142C0
:100AD00001D90B4600E0034603EB060C2369ACEB9F
:100AE000030CAC4506DD814201D98C4600E084460A
:100AF0009C4505D1A760276042F02000A5620DE06B
:100B0000AD1BE669AE1B8142A66000D90846C01A3B
:100B1000281A20605819606022F02000034908401C
:100B2000E060002084F84870ABE70000BFCFD7FF3B
:100B3000C16821F4001141F08001C1600021816091
:100B4000016070472DE9F047814614460E464FF08C
:100B5000FF383248D5685769054209D03846A1693F
:100B6000FFF79BFD002811DB2C48C0430540E560E2
:100B70002B46324649463846FFF77AFDA16920F0F8
:100B80000042B21A11440028A16103D02046FFF7A9
:100B9000CFFF4046BDE8F08770B504460569C06ADE
:100BA0006168884200D80846E16821F42011E160BC
:100BB000C90312D5A84208D02246411B2846FFF798
:100BC000C1FF10B14FF0FF3070BD0020E562C4E9F5
:100BD0000150E06820F48030E060002070BD10B566
:100BE0000446C06820F02000E060A16AA069884245
:100BF0000DD02046FFF7D0FFE06820F4405040F0D1
:100C00001000E060A06AA0612069E062606044F2C8
:100C10004001E0688843E06010BD00001000020061
:100C2000002801D000F03CB87047000010B5014624
:100C300002A000F07DF8012010BD0000534947528A
:100C4000545245443A2052656469726563743A208F
:100C500063616E2774206F70656E3A20000000009B
:100C600010B5431C02E010F8011B71B18107FAD1E5
:100C70004FF0013202C88C1A8C4314EAC211F9D029
:100C8000C01A0A0603D0C01E10BDC01A10BD0A0447
:100C900001D0801E10BD0902FCD0401E10BD000016
:100CA00001491820ABBEFEE72600020000210160CA
:100CB000C0E90110704710207047034640688C4619
:100CC000002818BF88423CBF03464068F8D3186824
:100CD0001844884207D00CF1030020F00700001DE3
:100CE000411A521A0146081D0A60FFF70EBD10B5E1
:100CF0000146C268900703D0900607D5886A0AE0CB
:100D0000FFF7EAFB01210160881E10BD8B6948686E
:100D100018440B69C01A91F848301BB191F849107A
:100D2000401A10BD1103FCD50028FADD401E10BD8D
:100D300070B505460C460A2000E06D1C00F018F85E
:100D400035B128780028F8D102E0641C00F010F8D2
:100D500014B120780028F8D1BDE870400A2000F0D6
:100D600007B810B500F00CF8BDE81040FFF758BF09
:100D700008B569468DF800000320ABBE08BD000031
:100D800010B5012805D0002103A0FFF7D1FF0120F5
:100D900010BD09A1F8E7000053494752544D454D95
:100DA0003A204F7574206F662068656170206D650C
:100DB0006D6F7279000000003A2048656170206D07
:100DC000656D6F727920636F7272757074656400FF
:100DD0002DE9F04F8FB0054689464FF0000A0024F8
:100DE0000026A34600200A900B900C900D900E90C8
:100DF00018E0285D01F0BCFB40B1CB4504D12A5D71
:100E00003046761C0BA90A5401200A90641C0A98EB
:100E1000012807D1285D01F0ABFB18B90BF1010BDC
:100E200000200A90285D0028E3D1761E00242AE0E5
:100E3000304602F082FB07463A460B46002018492E
:100E400001F0FCFBCDE902012146641C0BAA515CB8
:100E5000A1F1300002F071FBCDE90001DDE90223D0
:100E600002F0BEFBCDE90601504602F066FBCDE97B
:100E70000401DDE9062302F01DF9CDE9080102F0C5
:100E80002DFB8246761E0BA8005D0028D0DC68781A
:100E90002D2801D1CAF1000A50460FB0BDE8F08FED
:100EA0000000244000BFFEE710B501214FF461604F
:100EB00000F0B6FA00F0C2F810BD704700B587B078
:100EC00001210D2000F05AFB01212A4800F058F9B9
:100ED0000121294800F054F90820ADF81800042039
:100EE0008DF81B0003208DF81A0006A9234800F096
:100EF000BBF84FF40040ADF8180006A9204800F0F8
:100F0000B3F80121084600F019FB4FF0804000F0D3
:100F100079FD03A801F01EF80020ADF80C004FF693
:100F2000FF70ADF810000020ADF81200ADF80E0013
:100F300003A94FF0804000F0BBFF00231A460321B5
:100F40004FF0804000F052FE684600F0C7FE0020DF
:100F5000ADF8080069464FF0804000F069FE0020BF
:100F60004FF0804188840121880700F03EFD07B0E2
:100F700000BD00000002300000031800000C01401A
:100F80000008014000B587B00121092000F0F6FA01
:100F90003020ADF8180004208DF81B0003208DF8D8
:100FA0001A0006A91D4800F05FF80121022000F098
:100FB000C5FA01211A4800F0E3F81A4800F022FDB2
:100FC00003A800F0C7FF0020ADF80C004FF6FF703B
:100FD000ADF810000020ADF81200ADF80E0003A926
:100FE000104800F065FF00231A4603210D4800F069
:100FF000FDFD684600F072FE0020ADF8080069466D
:10100000084800F015FE0021064800F022FF0121EB
:10101000044800F0EAFC07B000BD0000000C0140ED
:1010200000081A000004004047F230504FF08041A1
:1010300088840149088070472404004008B50121D4
:10104000082000F09BFA4FF47040ADF8000010202B
:101050008DF8030003208DF802006946014800F076
:1010600003F808BD000C01402DE9F04102460025BF
:101070000026002000230024002791F803C00CF074
:101080000F0591F803C00CF0100CBCF1000F03D059
:1010900091F802C04CEA050591F800C0BCF1000FC0
:1010A00031D0146800202BE04FF0010C0CFA00F353
:1010B000B1F800C00CEA03069E4220D183004FF035
:1010C0000F0C0CFA03F7BC4305FA03FC4CEA0404CA
:1010D00091F803C0BCF1280F06D14FF0010C0CFAB7
:1010E00000FCC2F814C00AE091F803C0BCF1480F3C
:1010F00005D14FF0010C0CFA00FCC2F810C0401CE6
:101100000828D1D31460B1F800C0BCF1FF0F34DD62
:10111000546800202EE000F1080C4FF0010808FA96
:101120000CF3B1F800C00CEA03069E4221D1830003
:101130004FF00F0C0CFA03F7BC4305FA03FC4CEA22
:10114000040491F803C0BCF1280F05D100F1080C8C
:1011500008FA0CF8C2F8148091F803C0BCF1480FEB
:1011600007D100F1080C4FF0010808FA0CF8C2F89A
:101170001080401C0828CED35460BDE8F0810000E8
:10118000F0B50A46002300240021002500F00046A7
:10119000B6F1004F02D11D4EF16901E01B4E71689E
:1011A000C0F3034583B200F44016B6F5401F08D1E2
:1011B00021F07061154E766826F07066134F7E60E0
:1011C00012E000F48016B6F5801F06D1032606FA59
:1011D00005F4A14341F0706106E0460D360103FAC3
:1011E00006F6B14341F0706122B1460D360103FAB3
:1011F00006F6314300F00046B6F1004F02D1034E2F
:10120000F16101E0014E7160F0BD0000000001409D
:1012100000BFFEE7F8B507460C4615461E460121FD
:10122000384600F0ABF904208DF80300ADF800500B
:101230008DF8026069462046FFF716FFF8BDF8B545
:1012400007460C4615461E460121384600F096F921
:1012500010208DF80300ADF800508DF8026069464B
:101260002046FFF701FFF8BD00B5002015490861D1
:10127000C8601420486100208861C8610846006881
:1012800040F001000860084640680F4908400D49D9
:101290004860084600680D4908400A490860084649
:1012A000006820F4802008600846406820F4FE00B2
:1012B00048600020886000214FF0006000F008F8CE
:1012C00000BD0000001002400000FFF8FFFFF6FE26
:1012D000024A0A400243024B1A60704780FFFF1F18
:1012E00008ED00E000BFFEE700B587B00121042053
:1012F00000F044F90121880300F040F918208DF82E
:101300001B004FF40070ADF8180003208DF81A0090
:1013100006A91F48FFF7A8FE04208DF81B00000255
:10132000ADF8180006A91A48FFF79EFE4FF4E13009
:1013300001900020ADF810000C20ADF80E00002048
:10134000ADF80C00ADF80A00ADF8080001A911488D
:1013500000F0B8FE4FF4A06000F058F825208DF89A
:10136000140001208DF817008DF8150000208DF86D
:10137000160005A800F012F8012240F22551054898
:1013800000F07BFE0121034800F034FE07B000BDF1
:1013900000080140003801407047000070B500218E
:1013A00000230F22C47804B3154C246804F4E064CD
:1013B000C4F5E064210AC1F10403CA40447804FA88
:1013C00003F184781440214309010E4C0678A1559D
:1013D000047804F01F050124AC4005786D11AD00C0
:1013E00005F1E025C5F8004109E0047804F01F0587
:1013F0000124AC40044D0678761145F8264070BDB6
:101400000CED00E000E400E080E100E0024901436F
:10141000024A1160704700000000FA050CED00E080
:1014200030B589B005460C460121082000F0A6F829
:101430004FF44070ADF8040018208DF80700032029
:101440008DF8060001A92848FFF70EFE01210420AF
:1014500000F074F8681E80B2ADF80C00601E80B217
:10146000ADF808000020ADF80E00ADF80A0002A9A2
:101470001E4800F01DFD01211C4800F0B3FA0122B6
:1014800011461A4800F033FC6020ADF8140001202A
:10149000ADF816000020ADF81A00ADF81C0005A943
:1014A000124800F02DFC0821104800F079FC602063
:1014B000ADF814000120ADF816000020ADF81A00B8
:1014C000ADF81C0005A9094800F078FC0821074880
:1014D00000F0B2FC0121054800F078FA0121034830
:1014E00000F083FA09B030BD000C01400008004054
:1014F0007FB505460C466020ADF800000120ADF830
:101500000200ADF8065069460A4800F0F9FB0821D0
:10151000084800F045FCADF806406946054800F073
:101520004DFC0821034800F087FC0121014800F030
:101530004DFA7FBD000800407047000029B1064AFF
:10154000D2690243044BDA6104E0034AD269824360
:10155000014BDA61704700000010024029B1064AD1
:1015600012690243044B1A6104E0034A1269824380
:10157000014B1A61704700000010024029B1064A71
:1015800092690243044B9A6104E0034A92698243E0
:10159000014B9A61704700000010024029B1064AD1
:1015A000D2680243044BDA6004E0034AD268824303
:1015B000014BDA60704700000010024030B5002196
:1015C0000022002400232D4D6D6805F00C0121B18F
:1015D000042905D0082923D105E0294D056022E022
:1015E000274D05601FE0254D6D6805F47012234DF1
:1015F0006D6805F48034022505EB92421CB9214D3B
:10160000554305600BE01D4D6D6805F400351DB1B7
:101610001C4D5543056002E0194D5543056002E03D
:10162000174D056000BF00BF144D6D6805F0F00157
:101630000909154D6B5C0568DD4045600F4D6D680F
:1016400005F4E061090A104D6B5C4568DD4085607A
:101650000A4D6D6805F46051C90A0B4D6B5C456815
:10166000DD40C560054D6D6805F44041890B074DAF
:101670006B5CC568B5FBF3F5056130BD0010024039
:1016800000127A0000093D00040000201400002030
:101690007047000010B504E000F01CFE0120064970
:1016A00008600548783800680028F5D102490860CC
:1016B00001F0EEFC10BD0000B401224210B500F0B4
:1016C000CDFE00F051FC00F0C9FE01F0E1FC10BDC0
:1016D00010B504E000F0FEFD012006490860054851
:1016E000783800680028F5D10249086001F0D0FC84
:1016F00010BD0000B401224230B504460025FFF7BA
:10170000B3FD1F48006840F480301D49086000BFE9
:101710001B480068400C0028FAD04FF4806018493C
:101720004860A01EC4B20846406840EA8440486051
:101730000846406840F4803048601248006840F035
:101740003200104908600E48006840F080700C4973
:10175000086000BF0A480068400E0028FAD0084818
:10176000406840F002000649486005E004484068CF
:10177000C0F3870505F00305022DF7D130BD000049
:10178000001002400020024070470000F0B50C46F7
:10179000154600220021068C4FF6FE773E40068457
:1017A000028B018C4FF60C7632407E1C06EA031643
:1017B0002E433243104EB0420ED0104EB0420BD0EA
:1017C000B0F1804F08D00E4EB04205D00D4EB04261
:1017D00002D00D4EB04206D14FF6FD76314044F0B6
:1017E0000106314305E04FF6F576314044F001063D
:1017F000314302830184F0BD002C014000340140DC
:101800000004004000080040000C0040F0B50C4609
:101810001546002200210026078C4FF6EF7C07EAD0
:101820000C070784028B018C4FF6FF7707EA04163A
:1018300040F6FF473A404FF6FF7707EA03373A434F
:101840004FF6FF7707EA05273A43114FB8420ED00B
:10185000104FB8420BD0B0F1804F08D00E4FB842B5
:1018600005D00E4FB84202D00D4FB84206D14FF608
:10187000DF77394046F01007394305E04FF65F77D0
:10188000394044F01007394302830184F0BD000061
:10189000002C0140003401400004004000080040DA
:1018A000000C0040F0B50C46154600220021002631
:1018B000078C4FF6FF6C07EA0C070784828B018CBC
:1018C0004FF6FF7707EA04264FF60C773A404FF6BB
:1018D000FF7707EA03172F433A43114FB8420ED060
:1018E000104FB8420BD0B0F1804F08D00E4FB84225
:1018F00005D00E4FB84202D00D4FB84206D14FF678
:10190000FF57394046F48077394305E04FF2FF57DF
:10191000394044F48077394382830184F0BD00006C
:10192000002C014000340140000400400008004049
:10193000000C0040F0B50C461546002200210026A0
:10194000078C4EF6FF7C07EA0C070784828B018C1C
:101950004FF6FF7707EA043640F6FF473A404FF666
:10196000FF7707EA05273A434FF6FF7707EA033781
:101970003A43114FB8420ED0104FB8420BD0B0F1DD
:10198000804F08D00E4FB84205D00E4FB84202D05B
:101990000D4FB84206D14DF6FF77394046F48057D7
:1019A000394305E047F6FF57394044F4805739433F
:1019B00082830184F0BD0000002C0140003401400E
:1019C0000004004000080040000C004021B10288E3
:1019D00042F08002028004E002884FF67F731A40D2
:1019E00002807047CA430282704721B1028842F0E8
:1019F0000102028004E002884FF6FE731A40028062
:101A00007047000010B504466848844208D101219F
:101A1000C014FFF7C3FD0021E014FFF7BFFDC4E0D1
:101A2000B4F1804F08D101210846FFF797FD00214E
:101A30000120FFF793FDB8E05D48844208D1012101
:101A40000220FFF78BFD00210220FFF787FDACE0AD
:101A50005848844208D101210420FFF77FFD00216E
:101A60000420FFF77BFDA0E05348844208D1012108
:101A70000820FFF773FD00210820FFF76FFD94E0B9
:101A80004E48844208D101211020FFF767FD002154
:101A90001020FFF763FD88E04948844208D1012106
:101AA0002020FFF75BFD00212020FFF757FD7CE0A1
:101AB0004448844208D101214014FFF76FFD002102
:101AC0006014FFF76BFD70E03F48844209D10121AB
:101AD000C804FFF763FD00214FF40020FFF75EFD0F
:101AE00063E03A48844209D101210805FFF756FD19
:101AF00000214FF48010FFF751FD56E03448844236
:101B000009D101214805FFF749FD00214FF40010DC
:101B1000FFF744FD49E02F48844208D101214020CD
:101B2000FFF71CFD00214020FFF718FD3DE02A488B
:101B3000844208D101218020FFF710FD0021802080
:101B4000FFF70CFD31E02548844208D101218015C2
:101B5000FFF704FD0021A015FFF700FD25E0204858
:101B6000844209D101210804FFF718FD00214FF438
:101B70008030FFF713FD18E01A48844209D1012193
:101B80004804FFF70BFD00214FF40030FFF706FD7E
:101B90000BE01548844208D101218804FFF7FEFCC0
:101BA00000214FF48020FFF7F9FC10BD002C01400C
:101BB0000004004000080040000C004000100040FD
:101BC0000014004000340140004C0140005001402E
:101BD0000054014000180040001C0040002000405C
:101BE000004001400044014000480140F0B50C466F
:101BF00015461E460021002200230189028B038C1A
:101C00004FF6F877394021434FF6FC473A4040F20F
:101C100001173A434FF6DD773B404FF6FF7707EA6F
:101C200006172F433B43018102830384F0BD00006C
:101C300070B505460C46244885420ED0234885429F
:101C40000BD0B5F1804F08D02148854205D02148FE
:101C5000854202D02048854200D100E000BF2088A4
:101C600050B92389A28861882846FFF78FFDE18853
:101C7000284600F0F0F825E0208804280AD12389BE
:101C8000A28861882846FFF7C1FDE188284600F058
:101C9000EBF817E0208808280AD12389A2886188F8
:101CA0002846FFF7FFFDE188284600F0EAF809E042
:101CB0002389A28861882846FFF73CFEE1882846F0
:101CC00000F0E8F870BD0000002C01400034014035
:101CD0000004004000080040000C0040002101808A
:101CE0004180012181800021C180018170471AB1AA
:101CF00083890B43838102E083898B43838170470F
:101D000070B5002400220023058C4FF6FF66354095
:101D10000584028C8388848B4FF68F752C404FF698
:101D2000FC752C400D882C434FF6FF552A400D8939
:101D30004FF6FF7606EA05252A434D8806EA052573
:101D40002A43154DA84202D0144DA8421DD14FF28E
:101D5000FF752A404D894FF6FF7606EA05252A438E
:101D60004FF6FF352A408D8806EA05252A434EF6B0
:101D7000FF752B404DF6FF752B408D8906EA051542
:101D80002B43CD8906EA05152B4383808483CD88B8
:101D90008587028470BD0000002C014000340140A2
:101DA0000A460021018C4FF6FF5319404FF6FF738E
:101DB00003EA0223194301847047000070B5002232
:101DC00000230024058C4EF6FF7635400584038CF5
:101DD0008488828B48F6FF752A404FF6FF452A40DB
:101DE0000D884FF6FF7606EA05252A434DF6FF7566
:101DF0002B400D8906EA05352B434D8806EA05354B
:101E00002B430B4DA84202D00A4DA84208D14BF6F5
:101E1000FF752C408D894FF6FF7606EA85152C4319
:101E200084808283CD88A0F84050038470BD000078
:101E3000002C0140003401400A460021018C4DF67F
:101E4000FF7319404FF6FF7303EA0233194301840D
:101E5000704781847047028B4FF6F3731A400283F8
:101E6000028B0A4302837047028B4FF2FF331A4002
:101E70000283028B4FF6FF7303EA01231A430283A6
:101E80007047828B4FF6F3731A408283828B0A432A
:101E900082837047828B4FF2FF331A408283828B9A
:101EA0004FF6FF7303EA01231A4382837047000051
:101EB000002202881D4B98420ED01D4B98420BD039
:101EC000B0F1804F08D01B4B984205D01A4B984276
:101ED00002D01A4B984204D14FF68F731A404B88A8
:101EE0001A43174B984207D0164B984204D04FF62E
:101EF000FF431A40CB881A4302808B8883850B8866
:101F000003850A4B98420BD0094B984208D00E4BE0
:101F1000984205D00D4B984202D00D4B984201D10A
:101F20000B7A03860123838270470000002C014056
:101F3000003401400004004000080040000C004054
:101F400000100040001400400040014000440140E7
:101F5000004801404FF6FF71818000210180C1805F
:101F6000418001727047000010B501200B490860E4
:101F700000200B49C1F8B40101200849083108606C
:101F800000200749C1F8BC0140F698010846FFF758
:101F9000AFFA40F28A2000F0A1FA10BDB0812142D0
:101FA0000080214210B540F225510F4800F03BF867
:101FB000C0B10D4800F0F2F8C4B221460A4800F062
:101FC000F2F80A4801680068401C084A1060084896
:101FD0004454104600680F2801DA0A2C02D1002070
:101FE0000249086010BD00000038014000000020D8
:101FF0002800002021B1828942F40052828104E04D
:1020000082894DF6FF731A40828170470246002094
:10201000B1F5007F00D100BF13880B400BB1012048
:1020200000E00020704770B5024600240023002520
:10203000002040F66A16B14200D100BFC1F342153C
:1020400001F01F03012606FA03F3012D02D1968940
:10205000334006E0022D02D1168A334001E0968A11
:1020600033400C12012606FA04F41688344013B1EA
:102070000CB1012000E0002070BDF0B50346002443
:1020800000260025002040F66A17B94200D100BFA3
:102090001846C1F3421401F01F06012707FA06F59E
:1020A000012C01D10C3004E0022C01D1103000E0F1
:1020B00014301AB107682F43076002E00768AF4386
:1020C0000760F0BD2DE9F04786B005460E460024B6
:1020D000A24600BFA1460027B08900B100BF2F462D
:1020E0002C8A4CF6FF700440F08804432C82AC89A3
:1020F0004EF6F3100440B0883189084371890843D3
:102100000443AC81AC8A4FF6FF400440B0890443DD
:10211000AC8201A8FFF752FA1F48874202D1DDF8CE
:1021200010A001E0DDF80CA0A88900F4004040B147
:102130000AEBCA0000EB0A1031684900B0FBF1F865
:1021400007E00AEBCA0000EB0A1031688900B0FB17
:10215000F1F86420B8FBF0F004012009642101FBD0
:102160001089A88900F4004040B1322000EBC9007A
:10217000B0FBF1F000F00700044308E0322000EB70
:1021800009106421B0FBF1F000F00F0004432C8132
:1021900006B0BDE8F087000000380140014688889D
:1021A000C0F308007047C1F308028280704700BF87
:1021B000FEE7490050EAC12018BF04204A0D18BFAD
:1021C00040F0010040F2FF72B2EB515F08BF40F0F7
:1021D0000200012808BF052070472DE9F0414F1E7D
:1021E00000EBC7010446D1E9000115461E4637F051
:1021F00006020DD02A46334601F0F2F97F1E04EBA9
:10220000C703D3E9002300F055FF37F00602F1D1F0
:10221000022F25D0042F13D0062F18BFBDE8F08160
:102220002A46334601F0DCF9D4E90A2300F042FFE4
:102230002A46334601F0D4F9D4E9082300F03AFFE6
:102240002A46334601F0CCF9D4E9062300F032FFE8
:102250002A46334601F0C4F9D4E9042300F02AFFEA
:102260002A46334601F0BCF9D4E9022300F022FFEC
:102270002A46334601F0B4F9D4E90023BDE8F04121
:1022800000F018BF002213461046014900F0CEBFEF
:102290000000F03F00F00EBF00221346104611462A
:1022A00000F0C4BF40F2013200204FF0E04101F0E5
:1022B000D9BC0000024A0020110701F0D3BC000085
:1022C00001FDFFFF30380A2801D2012070470020AD
:1022D0007047000010B517480078622802D07228B5
:1022E00010D107E040F698010846FFF701F900F029
:1022F00027F81CE040F634010846FFF7F9F800F033
:1023000069F814E001200C49086000200B49C1F86D
:10231000B40109490831086001200849C1F8BC012D
:1023200040F6C41140F62820FFF7E2F800BF00BFD6
:1023300010BD000028000020B08121420080214211
:1023400010B500211A48FEF743FD04463C2C0BDB78
:1023500040F6FC010846FFF7CBF8214615A0FDF733
:102360005DFF00F00FF922E014F13C0F0BDC40F6AA
:10237000FC010846FFF7BCF8214611A0FDF74EFF0F
:1023800000F038FE13E001201049086000201049D9
:10239000C1F8B4010D490831086001200C49C1F8A9
:1023A000BC0140F6C41140F62820FFF7A1F810BD8B
:1023B000280000206C6566743D2564200D0A00002D
:1023C00072696768743D2564200D0A00B08121425E
:1023D0000080214210B500211748FEF7F9FC0446A1
:1023E0004FF4FA610846FFF783F8052C06DB214617
:1023F00012A0FDF713FF00F0D7F81CE014F1050F51
:1024000006DC214610A0FDF709FF00F007FE12E0F0
:1024100040F698010846FFF76BF801200D49086067
:1024200000200D49C1F8B4010A49083108600120B3
:102430000949C1F8BC0110BD280000206C65667414
:102440003D2564200D0A000072696768743D2564AB
:10245000200D0A00B08121420080214210B50020E9
:102460000C49086001200C49C1F8B4010949083140
:10247000086000200849C1F8BC0140F6C4110846B4
:10248000FFF736F84FF4FA6000F028F800F000FE8D
:1024900010BD0000B0812142008021424FF0E021B8
:1024A000096921F004014FF0E0221161C21700EB2D
:1024B0005272C2F3C702074B1A701946097801EB32
:1024C0004102C2EBC1114FF6FF7202EAC101024A9A
:1024D00011807047180000201A00002001460D4AA4
:1024E00012884A434FF0E0235A6100229A61012288
:1024F0001A6100BF4FF0E022106900F001021AB12A
:1025000000F48032002AF5D000224FF0E0231A6157
:102510009A6170471A00002010B50120094908602F
:1025200000200949C1F8B4010649083108600120BA
:102530000549C1F8BC0140F6C4110846FEF7D8FFB2
:1025400010BD0000B08121420080214270B50446D8
:102550000D46E1B20548FFF726FE00BF8021034883
:10256000FFF754FD0028F9D0204670BD0038014027
:102570000146302903DB392901DC012070470020A6
:10258000FCE700000020064908600649C1F8B401D4
:1025900003490831086001200249C1F8BC017047B5
:1025A000B0812142008021420020074908600120BB
:1025B0000649C1F8B4010020034908310860012030
:1025C0000249C1F8BC017047B0812142008021421C
:1025D00010B50920FFF790F84820FFF75FFFFEF7DE
:1025E00063FCFEF76BFCFEF7CDFCFEF71DFDFEF76E
:1025F0007BFE03234FF400420F491020FEF70AFE32
:1026000003234FF400520C491020FEF718FEFFF789
:1026100083FF40F6B830FFF761FFFFF73BF8FFF7A5
:102620004DF8FFF779FFFFF753F8FFF717FF00F0BA
:102630002FFD002010BD0000001001402DE9F04DDD
:1026400016460F4694B01C4621F0004123F000428C
:10265000002814BF4FF0010C4FF0000C0CEB470C9E
:10266000FE4B0CEB03054FEA630C65452BD335009D
:1026700018BF012505EB44051D44F94B9D4222D3AB
:10268000F84B52EA060C02D09F4205D148B914B06B
:1026900000201946BDE8F08D002808BF4FF0000C5F
:1026A00001D04FF0010C0CEB470313F5001F0AD8C3
:1026B000002E14BF4FF0010C4FF0000C0CEB440344
:1026C00013F5001F07D914B0324623463946BDE83A
:1026D000F04DFFF7DFBDDFF890834FF0000A002FC9
:1026E000B8BF424523DAE14B9A42A8BF4FF0020A35
:1026F0001DDADC4B93421ADCDD4B03EB2253142B27
:1027000008DDC3F1340C26FA0CF303FA0CFCB445D3
:102710000DD108E05EB9C3F1140C22FA0CF303FAF0
:102720000CFC944503D103F00103C3F1020A51EA02
:1027300000031BD1002C19DA002F18BFBAF1020FC9
:1027400002D0BAF1010F07D00220FDF753FE14B0FA
:10275000BDE8F04DFFF796BD0220FDF74BFEFFF7F9
:1027600091FD14B081F00041BDE8F08D330070D1CF
:10277000424525D107F1804212F5801201BF0028A1
:102780000020B84914B008BFBDE8F08DB5488842B4
:1027900007DC002CA1BF1846214614B0BDE8F08D1F
:1027A00007E0002CBFBF184684F0004114B0BDE81C
:1027B000F08DB0497944D1E9000114B0BDE8F08D45
:1027C000DFF8A0C262452AD1002C24DA39B1414594
:1027D00017D1002804BF002002461CD106E040B1FA
:1027E0000220FDF707FEFFF75DFD0A46394600F0BF
:1027F000D7BA9D4A394614B0002062F31E01BDE8E5
:10280000F08D08DA14B03B46BDE8F04D02460020DA
:10281000614600F00BBD14B03946BDE8F08D41456E
:1028200017DAB4F1804F0CD0A4F10053B3F1FF5389
:102830000FD13B1E0DDB14B01946BDE8F04D00F082
:1028400001BC3B4614B00246BDE8F04D194600F00D
:10285000C7BE050027F000433AD1E1B1414537D169
:10286000002F06DD002CA1BF0020414614B0BDE8BA
:10287000F08D002F01DD002C1FDB002F16DA002C5D
:1028800014DBBAF1010F4FF0000014BF76497A490A
:1028900014B0BDE8F08DBAF1020F18BF002F0CD0B4
:1028A000BAF1010F09D1002F07DA0BE0002FB8BFF2
:1028B000002C0DDABAF1010F04D0002014B001464B
:1028C000BDE8F08D14B000204FF00041BDE8F08D60
:1028D0004FF0010808EBE77CCDF814C05CEA0A0C65
:1028E0000DD0DFF898C162457EDDDFF894C1654BFD
:1028F000624512DD8B420ADB002C18DB23E001204D
:10290000FDF778FD14B0BDE8F04DFFF7C5BC554AA2
:102910008A4202DC002C0ADC15E0994202DA002C23
:1029200011DA04E04F4B994219DD002C0BDD022037
:10293000FDF760FDFFF7B6FC4B4A14B061F31E02D1
:102940001146BDE8F08D0220FDF754FDFFF7B2FC03
:10295000444A14B061F31E021146BDE8F08D002216
:10296000394601F063F807460D466FF0010201F0A9
:1029700079F94FF05532444B00F066FF3A462B464A
:1029800000F02EFE0022414B00F05EFF80468B4699
:102990003A462B461046194600F022FE42465B4658
:1029A00000F01EFE88460E904FF0C042384B38466D
:1029B000294600F015FE83460091364A344B4146C5
:1029C0000E9800F00DFE80460191334A334B384695
:1029D000294600F005FE4246019B01F027F80D460E
:1029E00002460B460C9000E011E05846009900F0BA
:1029F00061FB002788465A463846009B01F016F8CE
:102A00002B460C9A00F020FF024600F079B9002016
:102A1000B1F5801F07DA35222846194601F022F960
:102A200005466FF0340000EB2150A0F2FF3001901A
:102A3000C1F3130040F07F6141F040510291184909
:102A40008842D8BF4FF0000B35DD16498142C8BF20
:102A50004FF0010B2FDC4FF0000B25E0FFFF1F00B4
:102A6000FFFF0F000000F03F0000F07F0000404338
:102A700001FCFFFFD81500000000F0FF0000E0415E
:102A80000000F043FFFFEF3F5555D53F0000E03F0A
:102A90004715F73FFE822B6544DF5DF80BAE543ED1
:102AA0008E9803007AB60B000198401C01900298A2
:102AB000A0F580100290FF480299784400EBCB000B
:102AC0000991D0E9002328460B93129200F0AEFF43
:102AD00000910A9028460B9B129A099900F0EAFA95
:102AE00002460B460020F44900F0A0FBCDE90C01A2
:102AF0000B46024600990A9800F072FD0690EF48D6
:102B00008846002778440299006810904FF00050E2
:102B100040EA610000EB8B4000F5002102910B9B25
:102B2000129A109800F082FF2A46099B00F08CFE52
:102B30003A46434600F054FD08911290384641460B
:102B4000029B109A00F04CFD009B0A9A00F07CFE5C
:102B5000089B129A00F06AFFDDE90C2300F040FDAB
:102B60000B91069A129043461046194600F038FD24
:102B700005460246D2480B460A9106217844FFF7E3
:102B80002CFB0A9B2A46089102901046194600F039
:102B900027FD089B029A00F023FD05460991434654
:102BA00038461946069A00F085FA0B9B129A00F0F7
:102BB00017FD2A46099B00F07DFACDE908013A4647
:102BC00043461046194600F00BFD0A910022BD4B0A
:102BD000009000F06FFADDE9082300F06BFA0D4673
:102BE0003A46B84B384600F021FF0A9B009A00F0A5
:102BF0001DFFDDE9082300F027FECDE908013A4674
:102C00002B461046414600F0EBFC00910A90DDE9AE
:102C100008014346069A00F0E3FC069088462B46DE
:102C20003A460B99129800F0DBFC4346069A00F0F6
:102C300041FA80460B4602460D9100990A9800F031
:102C400039FA00200F460546009B0A9A00F0EEFE76
:102C500042460D9B00F0F8FD88460E904FF0604212
:102C6000994B2846394600F0BBFC02910090974AE8
:102C7000954B41460E9800F0B3FC80460391944A70
:102C8000944B2846394600F0ABFC4246039B00F0CB
:102C900011FA914A7A4402EBCB03D3E9002300F006
:102CA00009FA05460791019800F047FC0C90039142
:102CB0002A46079B0299009800F0FCF9874A7A445B
:102CC00002EBCB03D3E900239346019300F0F2F922
:102CD000039B0C9A00F0EEF9002788463846039BC8
:102CE0000C9A00F0A3FE5A46019B00F09FFE029B47
:102CF000009A00F09BFE2A46079B00F0A5FD0246C5
:102D00000020069005986C4DAAF10103184301D1EB
:102D1000734D069000200B4604903046214600F08B
:102D20005FFC82468B46234630461946049A00F0E3
:102D30007DFE3A46434600F053FC52465B4600F0A7
:102D4000B9F906468A463A4643462146049800F0B9
:102D500047FC04460F463246534600F0ABF9614A41
:102D60008B46914221DBABEB020353EA000210D108
:102D700022463B4600F05AFE804603915A4A5B4B7E
:102D80003046514600F096F94246039B00F026FD7E
:102D900027D20220FDF72EFBFFF784FA0A462946C8
:102DA00014B062F31E01BDE8F08D514B2BF00042D0
:102DB0009A4216D34F4A0BEB020353EA000208D1A2
:102DC00022463B4600F032FE3246534600F006FDF6
:102DD00007D80220FDF70EFBFFF76CFA0A462946DA
:102DE000DEE72BF000404449444A01EB20514FF00C
:102DF0000008824223DA481C4FF4801121FA00F0C7
:102E000058443F4AC0F30A517A443E4BA1F2FF3185
:102E1000CB4020EA0303C0F3130040F4801CC1F14F
:102E2000140012682CFA00F8BBF1000FB8BFC8F10B
:102E300000082046394600F0F9FD04460F462246B8
:102E40003B463046514600F035F94FF0000B5A46EC
:102E50002D4B5846039100F0C3FB00910A902B4A7A
:102E60002B4B5846039900F0BBFB0491029022467D
:102E70003B465846039900F0D9FD3246534600F0D0
:102E8000E3FC244A244B00F0ABFB049B029A00F0C5
:102E900011F907468A46009B0A9A00F00BF904468E
:102EA0000E46009B0A9A00F0C1FD3A46534600F0D8
:102EB000CBFC33E04A1200000000F03F8812000013
:102EC000B81100000000084009C7EE3FFD033ADCDE
:102ED000F5015B14E02F3EBE90100000561000007C
:102EE0000000F0BF00009040FE822B654715973C24
:102EF00000CC904000346F3F01FCFFFF0000E03F3A
:102F0000840F0000FFFF0F00432EE63F396CA80C32
:102F1000615C20BEEF39FAFE422EE63F07462246AC
:102F200033460F911046194600F05AFB834602467D
:102F30002E488A460B4605217844FFF74EF95A463B
:102F4000534600F04DFB2246334600F07DFC82469E
:102F50008B463A46204631460F9B00F041FB3A46ED
:102F60000F9B00F0A7F80F460A9000224FF0804315
:102F70005046594600F05AFD0391009052465B4678
:102F80002046314600F02CFB039B009A00F04EF9DE
:102F90003B460A9A00F04AFD2246334600F046FDC1
:102FA0000022134B00F050FC0E46044601EB085182
:102FB0000815002810DC42462046314600F052FE3B
:102FC000FFF7F7F8042808BFFFF774F942462046D8
:102FD000314600F047FE044606980B4614B02246E0
:102FE0002946BDE8F04D00F0FBBA00002C0E0000B1
:102FF0000000F03F0020074908600749C1F8B4010C
:10300000012004490831086000200349C1F8BC01CF
:1030100070470000B0812142008021420120074911
:10302000086000200649C1F8B401012003490831B5
:10303000086000200249C1F8BC017047B0812142FC
:10304000008021422DE9F04106460F4600F008FCC1
:1030500004000D4618BF0120284320F00040C0F1B5
:103060007F6000F1E040C00F0ED0301C18BF01207F
:10307000384320F00040C0F17F6000F1E040C00F15
:1030800004BF0120FDF7B6F920462946BDE8F081CE
:103090000020064908600649C1F8B4010349083117
:1030A00008600349C1F8BC0170470000B0812142AB
:1030B0000080214210B591EA030F48BF83F000431E
:1030C00000F1BC84841A71EB030C05D2121943EB96
:1030D0000C03001B61EB0C01DFF824E14FEA1154F3
:1030E000A4EB135C1EEA430F18BF9EEA445F73D043
:1030F00023EA0E03DCF1200E21EA045143F480138D
:1031000032D322FA0CFE10EB0E0023FA0CFE41EB38
:103110000E01CCF1200E03FA0EFE10EB0E0051F161
:103120000001B1F5801FCCF1200E32D201EB045129
:1031300012FA0EF2BDE8104058BF7047401C38BF6D
:103140005FEA420218BF7047002814BF20F0010058
:1031500041F100014FEA410313F5001F38BF7047EA
:10316000A1F1C04100F034BB012A43EB0302ACF1F2
:10317000200CDCF11F0E32BF4FF0000E23FA0CF3CF
:1031800010EB030041EB0451B4EB115FD0D0A1EB85
:10319000045101F5801149085FEA300001EB045148
:1031A0000ED350F1000038BF12FA0EFE08D1BDE870
:1031B0001040C9E7401C38BF5FEA4202CAD1C3E7EA
:1031C000BDE810404FEA410313F5001F38BF7047B8
:1031D000A1F1C04100F0FCBA9EEA445F08D011EAB8
:1031E0005E0FBDE8104004BF01F0004100207047B1
:1031F000BDE8104070B500F09DFA00BF64FBBE3E14
:103200000000E0FF02494FF0000000F0F9BC00BFF1
:103210000000F87F491058BFC1F140415B1058BF12
:10322000C3F140438B42EFF3008070472DE9C0416A
:1032300030B4DFF8A0C23CEA111418BF3CEA131402
:1032400000F0EC8081EA03051CEA111444EAD5740D
:1032500018BF1CEA131500F0C780A4EB05044FF05B
:10326000004545EAC12145EAC32341EA505143EAFA
:10327000525304F17F74994204F500344FEAC020A0
:103280004FEAC22208BF904200F09C804FEA1365CB
:103290000FF24016765D4FEA134506FB05F7C7F1BE
:1032A000807706FB07F74FEAD737A7FB036876421C
:1032B000C8F58038A7FB06CE38BFA8F1010807FB88
:1032C00008E64FF0000EA6FB028CE6FB03CEDCF115
:1032D000000CCEF1004E38BFAEF1010EA6FB0C582B
:1032E0004FF000074FF00005E6FB0E87A1FB08C674
:1032F000A0FB07CE16EB0E0645F10005E1FB0765C6
:1033000015F1E04E7EBFA4F580345FEA46066D41BC
:1033100016F1800745F100054FEA17274FEA0666C8
:1033200047EA0567A6F1DE46B6F1805F4FEA15254C
:103330001FD9384624F0010C05EBC471BCF1FE6FB7
:1033400001EB0C1102D8F0BCBDE8008124425CBF47
:1033500001F5801E9EEAC47F02D4F0BCBDE8008166
:10336000244238D4F0BCA1F1C041BDE8004100F0D6
:103370002FBA4FEAD22242EA43524FEAD323A7FBA5
:1033800002864FEAD02040EA415007FB03661EEA5E
:103390000E0F4FEAD12105FB026658BFA6EB00567F
:1033A000B6EB00564FEA520E4EEAC37E18EB0E0EF5
:1033B00056EB530EBDD518EB02085E417F1C55F14C
:1033C0000005B6E74FF480154FF000074FF00006F8
:1033D0004FF00008ADE7F0BC4FF0000001F1C04134
:1033E00001F00041BDE8008111EA0C1F0CEA131541
:1033F00000D00CE013EA0C1F00F025804FF0000015
:10340000F0BC81EA030101F00041BDE80081F0BC9D
:10341000BDE8004181EA030100F0DAB9F0BCBDE883
:10342000004170B500F086F9097EFC3E00F007B857
:1034300081EA03014FF0000001F00041704781EA8A
:10344000030100F0C5B9F0BCBDE800414FF0000039
:1034500021497047FFFDFBF9F7F5F4F2F0EEEDEBD3
:10346000E9E8E6E4E3E1E0DEDDDBDAD8D7D5D4D382
:10347000D1D0CFCDCCCBCAC8C7C6C5C4C2C1C0BFCE
:10348000BEBDBCBBBAB9B8B7B6B5B4B3B2B1B0AFD4
:10349000AEADACABAAA9A8A8A7A6A5A4A3A3A2A1B8
:1034A000A09F9F9E9D9C9C9B9A9999989797969573
:1034B00095949393929191908F8F8E8E8D8C8C8B0F
:1034C0008B8A898988888787868585848483838297
:1034D000828181800000FF070000F87F4FEA4103EE
:1034E0004FEA5353A3F58063D3F11E03C8BFD3F152
:1034F000210C0CDD4FF0004242EAC12242EA505258
:1035000032FA03FC8CEAE17CACEBE1707047102BE3
:10351000C4BF0020704703F5787CBCF1FF3F04D0A6
:103520006FF0004282EA2100704770B500F002F9A6
:103530004992248000207047F2E710F0004248BF13
:103540004042B0FA80F310FA03F10AD0C3F11D0330
:1035500003F580634FEA415002EB035202EBD121A5
:1035600070474FF00000704751EA030C17D41CF568
:10357000801F58BFBCF5801F00F10680994218BF1C
:10358000704708BF9042704707D711F5801F58BF9A
:1035900013F5801F19D499427047894270471CF572
:1035A000801F08D5BCF5801FF7D58B4218BF704728
:1035B00008BF824270474FF4001C1CEB410F38BF1C
:1035C0001CEB430F01D28B42704770B500F0B2F88C
:1035D000922449004FF000514FF08053FFF71ABE7C
:1035E000DFF848C170B51CEA111E1EBF1CEA131596
:1035F0009EEA0C0F95EA0C0F00F06F8081EA03043D
:1036000023EA4C134EEAD47E21EA4C1141F4801196
:1036100043F48013AE44A1FB024CA0FB0365AEF162
:103620007F7E361955EB0C05A1FB034C4CF10003D2
:10363000A0FB021C16EB0C06654153F10003094286
:1036400018BF46F0010613F4007F0BD14FEA033197
:103650004FEA0530340341EA155140EA16506FF045
:1036600003020AE04FEAC3214FEAC520F40241EA0F
:10367000555140EA56506FF0020202EB2E4201EB28
:10368000025585EACE710AD05FEA440C18BF24F0D7
:10369000004450F1000041F1000120EAD47040F2F2
:1036A000FE7C624500D270BDA84214BF4FF080443A
:1036B0004FF04044002E08BF0024BEF1806FA8BF29
:1036C000A1F1C041BDE8704080F282804FF000005F
:1036D00001F1C04101F0004170479EEA0C0F0CEA75
:1036E000131518BF95EA0C0F06D04FF0000081EAC1
:1036F000030E0EF0004170BD00F01CF88900013E81
:1037000000F007B800F009B84FEA430C5FEA5C5CD0
:1037100008D081EA030100F05BB84FEA410C5FEA90
:103720005C5CF6D14FF00000014970470000FF07D4
:103730000000F87F0EF1020E2EF0030E5EF8046B0F
:10374000364205D4012A43EB030515F5001F12D8B4
:10375000012841EB010C1CF5001F0CD80ED14FEADB
:10376000D17C15F5001F0CEB4C0C0CF1020C08BFC2
:103770004CEBD37C04E04FF0080C01E04FEAD37C23
:103780000CEB4C0526FA05F606F00706B6F1040C1C
:1037900006D20EEB860CBDE870404CF0010C604781
:1037A000DFE80CF0090B02024FF000414FF000007F
:1037B000A1F5002170BD19461046012851EB010406
:1037C00018BFD4F5001484BF002001F0004170BD83
:1037D0000808A0F500114FEA3101704753EA010CC7
:1037E00017D41CF5801F58BFBCF5801F00F1068060
:1037F0008B4218BF704708BF8242704707D713F546
:10380000801F58BF11F5801F19D48B4270479B420F
:1038100070471CF5801F08D5BCF5801FF7D599426D
:1038200018BF704708BF904270474FF4001C1CEB54
:10383000430F38BF1CEB410F01D2994270470FB4C0
:103840000CBC03BCFFF7C1BE91EA030F10B581F0B9
:1038500000413FF537AC83F0004300F0EFB80000C3
:103860002DE9F04101F5801CBCF5001FC0F2C380BA
:103870004FEA115C21EA0C510CF1FD0C41F480116E
:103880005FEA5C0C0CF5C07C01D3400049413DA4CB
:10389000890241EA905187028E0E0A0CA45D04FB56
:1038A00004F602FB06F6C6F14046A4FB0662F60DDE
:1038B00046EA422606FB06F4A4FB01235242C3F16A
:1038C000404338BF5B1EA6FB02420024E6FB0324F4
:1038D000D20B42EA4446A6FB0623A1FB02E2A3FB6D
:1038E00007E4A4184FF0000252F10002E3FB01428A
:1038F0006442C2F1404E38BFAEF1010EA6FB042374
:103900004FF00002E6FB0E32A2FB03464FF000042C
:10391000B61954F10004E2FB0264A1FB06E6A4FB25
:1039200007E816EB08064FF0000858F10008E4FB22
:1039300001687642C8F1405838BFA8F10108A2FBDF
:1039400006E4A3FB08E52D194FF0000454F1000430
:10395000E2FB0854A1FB05E6A7FB04E818EB060808
:103960004FF0000656F10006E1FB048618F1200531
:1039700056F10006A809A8F11B08B10908F03F0894
:10398000B8F10A0F40EA86601CD901EB0C51BDE882
:10399000F08100BFFCF5EEE8E2DDD8D3CFCBC7C3A2
:1039A000C0BDB9B6B4B1AEACA9A7A5A3A19F9D9B5C
:1039B0009A9896959392908F8D8C8B89888786851F
:1039C00084838281A0FB006800FB01F208EB4208BF
:1039D000B8EB872807D5341858EB0104D5D5401C1F
:1039E00051F10001D1E7341A78EB0104CDD4401E27
:1039F00071F10001C9E75FEA4C0C5FEA9C5C0DD1F4
:103A000005D34FF0000001F00041BDE8F081BDE8B2
:103A1000F04170B5FFF78EFE6DDBFFBEBDE8F041F3
:103A20004FF00000004970470000F87F10B591EAA0
:103A3000030F48BF83F000433FF544AB841A71EB9A
:103A4000030C07D212198CF0004C43EB0C03001B43
:103A500061EB0C01DFF8A4E14FEA1154A4EB135C15
:103A60001EEA430F18BF9EEA445F00F0B08023EACD
:103A70006E03524221EA0451C3EB6E0338BF5B1E52
:103A8000DCF1200E25D322FA0CFE10EB0E0043FAD7
:103A90000CFE41EB0E01CCF1200E03FA0EFE10EBF2
:103AA0000E0051F10001CCF1200E29D412FA0EF2D1
:103AB00001EB0451BDE8104058BF7047401C1CBFCB
:103AC000B2F1004F704700280CBF491C20F00100E4
:103AD000704712EB020E43EB030218BF4FF0010ECA
:103AE0004EEA4202ACF1200CDCF11E0E54D943FA2E
:103AF0000CFE10EB0E0051F1FF31CCF11E0ED5D5AE
:103B00000EF1010E12FA0EFE404141EB010101EBF4
:103B1000445C5FEA5C5C10D910EBDE7001EB045191
:103B200038BFBEF1004FBDE8104018BF70470028F5
:103B30000CBF491C20F00100704730D24FEAD42C52
:103B400011F5001124F400641BD0B1FA81F20B3A94
:103B5000A41AA41ED2F12003914030FA03F31943B2
:103B6000904001EBCC71002C01EB0451BDE81040FA
:103B7000A8BF704701F1C0414FF0000001F00041C3
:103B80007047B0FA80F310FA03F100D110BDE41AC7
:103B9000173C4805C90AE4E701EB045110BD491080
:103BA00001EB0451BDE810404FEA300002E04FF055
:103BB000000170474A0008BF0042F8D0B2F5001F6C
:103BC00028BF704701F000414FF0000070479EEAA7
:103BD000445F07D011EA5E0FBDE8104004BF00212A
:103BE00000207047BDE8104070B5FFF7A3FD00BF8F
:103BF00040DFF63E83F00041104670470000E0FFD2
:103C00000CF00F03092B08BF082000F059800A2B85
:103C10000BD0082B18BF704708BF1CF0400F0AD00C
:103C20004FF000004FF0000170471CF0400F18BF2C
:103C30004FF0004070471CF0100F08D020F0704388
:103C400000F07F4242EAD3014FEA4370704700F030
:103C5000604021F07F4242EA000201F07F4040EAEA
:103C6000727070474FF0FF0C4CF4E06C1CEA11537B
:103C70001CBF9CEA030C9445C2BFDA4201EB02511F
:103C80007047002B0DD0BCF1000F0FD0002A01F0BF
:103C90000041A4BF41F0E04141F07F614FF00000DE
:103CA000704701F000414FF00000704750EA0133C7
:103CB0004FF09B0C18BF4CF0806C7FF4A3AA7047A8
:103CC0001CF4801F11D01CF4E02F03D06FEACC311C
:103CD000490070474FF04050EFF3008222F07042ED
:103CE00042EA000282F3008870474FF000007047FC
:103CF00004000008000000000000000200010000B5
:103D00001000000000000000000000000000F03F74
:103D1000000000000000F83F00000000000000006C
:103D20000000004003B8E23F000000000000000077
:103D300006D0CF43EBFD4C3E033333333333E33F05
:103D4000FFAB6FDBB66DDB3F4D268F515555D53F31
:103D500001411DA96074D13F65DBC9934A86CD3FFF
:103D6000EF4E454A287ECA3F3E5555555555C53FED
:103D700093BDBE166CC166BF2CDE25AF6A56113FDF
:103D8000F16BD2C541BDBBBED0A4BE726937663EE1
:103D900000000000000000003A7474003A747400DF
:103DA0003A747400C43D00080000002028000000A0
:103DB0006C010008EC3D000828000020700700009E
:103DC0008801000800000000000000000102030458
:103DD00001020304060708090204060800000000A7
:0C3DE000000000000000000000000000D7
:0400000508000131BD
:00000001FF
