:020000040800F2
:10000000280400204501000801040008A10200089E
:10001000FD03000885010008150800080000000025
:10002000000000000000000000000000450400087F
:10003000890100080000000003040008D90400083A
:100040005B0100085B0100085B0100085B01000820
:100050005B0100085B0100085B0100085B01000810
:100060005B0100085B0100085B0100085B01000800
:100070005B0100085B0100085B0100085B010008F0
:100080005B0100085B0100085B0100085B010008E0
:100090005B0100085B0100085B0100085B010008D0
:1000A0005B0100085B0100085B0100085B010008C0
:1000B0005B0100085B0100085B0100085B010008B0
:1000C0005B0100085B0100085B0100085B010008A0
:1000D0005B0100085B0100085B0100085B01000890
:1000E0005B0100085B0100085B0100085B01000880
:1000F0005B0100085B0100085B0100085B01000870
:100100005B0100085B0100085B0100085B0100085F
:100110005B0100085B0100085B0100085B0100084F
:100120005B0100085B0100085B0100085B0100083F
:10013000DFF80CD000F014F800480047B5080008BC
:100140002804002005480047FEE7FEE7FEE7FEE73B
:10015000FEE7FEE7FEE7FEE7FEE7FEE73101000807
:10016000064C074D06E0E06840F0010394E8070004
:1001700098471034AC42F6D3FFF7DEFF20090008A1
:100180004009000800BFFEE770472DE9F041024634
:1001900000250026002000230024002791F803C03A
:1001A0000CF00F0591F803C00CF0100CBCF1000F1F
:1001B00003D091F802C04CEA050591F800C0BCF1EB
:1001C000000F31D0146800202BE04FF0010C0CFA26
:1001D00000F3B1F800C00CEA03069E4220D1830070
:1001E0004FF00F0C0CFA03F7BC4305FA03FC4CEA82
:1001F000040491F803C0BCF1280F06D14FF0010CA4
:100200000CFA00FCC2F814C00AE091F803C0BCF17B
:10021000480F05D14FF0010C0CFA00FCC2F810C0D9
:10022000401C0828D1D31460B1F800C0BCF1FF0F06
:1002300034DD546800202EE000F1080C4FF0010876
:1002400008FA0CF3B1F800C00CEA03069E4221D173
:1002500083004FF00F0C0CFA03F7BC4305FA03FCC4
:100260004CEA040491F803C0BCF1280F05D100F159
:10027000080C08FA0CF8C2F8148091F803C0BCF11D
:10028000480F07D100F1080C4FF0010808FA0CF8EC
:10029000C2F81080401C0828CED35460BDE8F0811D
:1002A00000BFFEE7F8B507460C4615461E4601217D
:1002B000384600F0B7F810208DF80300054830F8F4
:1002C0001500ADF800008DF8026069462046FFF782
:1002D0005CFFF8BD0400002030B589B005460C462F
:1002E0000121084600F08EF80121042000F09AF860
:1002F0000F20ADF8040018208DF8070003208DF8BA
:10030000060001A91D48FFF740FFA8B2ADF80C0098
:10031000A0B2ADF808000020ADF80A00ADF80E005C
:1003200002A94FF0804000F023FA7020ADF81400CD
:100330000120ADF816006420ADF81A000220ADF8D7
:100340001C0005A9400700F081F905A94FF0804085
:1003500000F01CF905A94FF0804000F0CBF805A98A
:100360004FF0804000F0C2F90821C80600F060F9A3
:100370000121880700F0B1F809B030BD0008014044
:1003800000B5002015490861C860142048610020AC
:100390008861C8610846006840F0010008600846AE
:1003A00040680F4908400D494860084600680D49FB
:1003B00008400A4908600846006820F48020086068
:1003C0000846406820F4FE00486000208860002154
:1003D0004FF0006000F008F800BD0000001002407F
:1003E0000000FFF8FFFFF6FE024A0A400243024BFC
:1003F0001A60704780FFFF1F08ED00E000BFFEE7B6
:100400007047704729B1064AD2690243044BDA614A
:1004100004E0034AD2698243014BDA61704700006D
:100420000010024029B1064A92690243044B9A61C6
:1004300004E0034A92698243014B9A6170470000CD
:10044000001002407047000030B504460025FFF759
:1004500097FF1F48006840F480301D49086000BFC6
:100460001B480068400C0028FAD04FF480601849FF
:100470004860A01EC4B20846406840EA8440486014
:100480000846406840F4803048601248006840F0F8
:100490003200104908600E48006840F080700C4936
:1004A000086000BF0A480068400E0028FAD00848DB
:1004B000406840F002000649486005E00448406892
:1004C000C0F3870505F00305022DF7D130BD00000C
:1004D0000010024000200240704721B1028842F023
:1004E0000102028004E002884FF6FE731A40028087
:1004F0007047000070B5002400220023058C4FF6E1
:10050000FE7635400584028C8388048B4FF68F7508
:100510002C40B51E2C400D882C43751E2A400D8999
:100520002A434D882A43144DA8420BD0134DA842AC
:1005300008D0134DA84205D0124DA84202D0124D4A
:10054000A84213D14FF6F7752A404D892A434FF63A
:10055000FB752A408D882A434FF6FF652B404FF6E6
:10056000FF552B408D892B43CD892B4383800483FA
:10057000CD888586028470BD002C01400034014086
:1005800000400140004401400048014070B5002493
:1005900000220023058C4FF6EF7635400584028C4F
:1005A0008388048B48F6FF752C404FF6FF452C409E
:1005B0000D884FF6FF7606EA05252C434FF6DF75CA
:1005C0002A400D8906EA05152A434D8806EA0515D5
:1005D0002A43154DA84202D0144DA8421DD14FF612
:1005E0007F752A404D894FF6FF7606EA05152A43A6
:1005F0004FF6BF752A408D8806EA05152A434FF647
:10060000FF352B404FF2FF752B408D8906EA85059B
:100610002B43CD8906EA85052B4383800483CD884F
:100620000587028470BD0000002C014000340140A9
:100630000A460021018B4FF2FF7319404FF6FF73FA
:1006400003EA0223194301837047000070B50024B8
:1006500000220023058C4FF6FF6635400584028C8E
:100660008388848B4FF68F752C404FF6FC752C4099
:100670000D882C434FF6FF552A400D894FF6FF7623
:1006800006EA05252A434D8806EA05252A43154D25
:10069000A84202D0144DA8421DD14FF2FF752A4046
:1006A0004D894FF6FF7606EA05252A434FF6FF35BA
:1006B0002A408D8806EA05252A434EF6FF752B4011
:1006C0004DF6FF752B408D8906EA05152B43CD8924
:1006D00006EA05152B4383808483CD8885870284B1
:1006E00070BD0000002C01400034014070B50022B4
:1006F00000230024058C4EF6FF7635400584038CDC
:100700008488828B48F6FF752A404FF6FF452A40C1
:100710000D884FF6FF7606EA05252A434DF6FF754C
:100720002B400D8906EA05352B434D8806EA053531
:100730002B430B4DA84202D00A4DA84208D14BF6DC
:10074000FF752C408D894FF6FF7606EA85152C4300
:1007500084808283CD88A0F84050038470BD00005F
:10076000002C0140003401408186704701877047AA
:10077000002202881D4B98420ED01D4B98420BD090
:10078000B0F1804F08D01B4B984205D01A4B9842CD
:1007900002D01A4B984204D14FF68F731A404B88FF
:1007A0001A43174B984207D0164B984204D04FF685
:1007B000FF431A40CB881A4302808B8883850B88BD
:1007C00003850A4B98420BD0094B984208D00E4B38
:1007D000984205D00D4B984202D00D4B984201D162
:1007E0000B7A03860123838270470000002C0140AE
:1007F000003401400004004000080040000C0040AC
:10080000001000400014004000400140004401403E
:100810000048014000BFFEE702E008C8121F08C1FF
:10082000002AFAD170477047002001E001C1121F71
:10083000002AFBD1704700004FF0E021096921F048
:1008400004014FF0E0221161C21700EB5272C2F3B3
:10085000C702074B1A701946097801EB4102C2EB37
:10086000C1114FF6FF7202EAC101024A11807047BE
:10087000000000200200002001460D4A12884A4371
:100880004FF0E0235A6100229A6101221A6100BFF1
:100890004FF0E022106900F001021AB100F480323A
:1008A000002AF5D000224FF0E0231A619A617047C8
:1008B0000200002000BF0920FFF7C6FD4820FFF717
:1008C000BBFF03230C2213490820FFF7EBFC40F287
:1008D0009F5140F2E730FFF7FFFC00200E4908600F
:1008E000C820FFF7C9FF19218807FFF73FFF6421E0
:1008F0000807FFF739FF0CE00020074908603220A5
:10090000FFF7BAFF01200549C1F8B0013220FFF717
:10091000B3FFF1E7000C0140B08121420080214289
:100920004009000800000020280000001808000806
:1009300068090008280000200004000028080008BA
:100940000000000001000200040008001000200068
:100950004000800000010002000400080010002098
:0809600000400080FFFF0000D1
:0400000508000131BD
:00000001FF
