:020000040800F2
:1000000038070020CD010008A50400089B03000864
:10001000A10400086D02000851050008000000005E
:10002000000000000000000000000000C9040008FB
:100030007102000800000000A7040008CB040008BB
:10004000E3010008E3010008E3010008E301000800
:10005000E3010008E3010008E3010008E3010008F0
:10006000E3010008E3010008E3010008E3010008E0
:10007000E3010008E3010008E3010008E3010008D0
:10008000E3010008E3010008E3010008E3010008C0
:10009000E3010008E3010008E3010008E3010008B0
:1000A000E3010008E3010008E3010008E3010008A0
:1000B000E3010008E3010008E3010008E301000890
:1000C000E3010008E3010008E3010008E301000880
:1000D000E3010008CD040008E3010008E301000883
:1000E000E3010008E3010008E3010008E301000860
:1000F000E3010008E3010008E3010008E301000850
:10010000E3010008E3010008E3010008E30100083F
:10011000E3010008E3010008E3010008E30100082F
:10012000E3010008E3010008E3010008E30100081F
:1001300000F002F800F03AF80AA090E8000C8244BF
:100140008344AAF10107DA4501D100F02FF8AFF29C
:10015000090EBAE80F0013F0010F18BFFB1A43F0A5
:10016000010318474405000064050000103A24BF4D
:1001700078C878C1FAD8520724BF30C830C144BF0C
:1001800004680C607047000000230024002500264E
:10019000103A28BF78C1FBD8520728BF30C148BFEA
:1001A0000B6070471FB51FBD10B510BD00F02FF8D4
:1001B0001146FFF7F7FF00F00FFA00F04DF803B417
:1001C000FFF7F2FF03BC00F0C5F900000848004744
:1001D000FEE7FEE7FEE7FEE7FEE7FEE7FEE7FEE7F7
:1001E000FEE7FEE703480449044A054B7047000058
:1001F00031010008380100203807002038030020B2
:100200003803002070477047704770477047754645
:1002100000F028F8AE4605006946534620F0070076
:10022000854618B020B5FFF7DDFFBDE820404FF050
:1002300000064FF000074FF000084FF0000B21F0D0
:100240000701AC46ACE8C009ACE8C009ACE8C0099D
:10025000ACE8C0098D4670470446AFF300802046E5
:10026000FFF7ADFF00487047D800002000BFFEE751
:1002700070472DE9F04102460025002600200023AA
:100280000024002791F803C00CF00F0591F803C07B
:100290000CF0100CBCF1000F03D091F802C04CEA36
:1002A000050591F800C0BCF1000F31D014680020A2
:1002B0002BE04FF0010C0CFA00F3B1F800C00CEA8F
:1002C00003069E4220D183004FF00F0C0CFA03F777
:1002D000BC4305FA03FC4CEA040491F803C0BCF1EA
:1002E000280F06D14FF0010C0CFA00FCC2F814C024
:1002F0000AE091F803C0BCF1480F05D14FF0010CA2
:100300000CFA00FCC2F810C0401C0828D1D31460BD
:10031000B1F800C0BCF1FF0F34DD546800202EE0BE
:1003200000F1080C4FF0010808FA0CF3B1F800C016
:100330000CEA03069E4221D183004FF00F0C0CFA09
:1003400003F7BC4305FA03FC4CEA040491F803C02C
:10035000BCF1280F05D100F1080C08FA0CF8C2F81E
:10036000148091F803C0BCF1480F07D100F1080CCC
:100370004FF0010808FA0CF8C2F81080401C082859
:10038000CED35460BDE8F0810246002093680B4054
:100390000BB1012000E00020704700BFFEE7000025
:1003A00008B50121042000F07FF80120ADF800001D
:1003B00048208DF8030069460148FFF75AFF08BD41
:1003C0000008014010B501210D48FFF7DDFF04468C
:1003D0006CB90A2000F0E2F87CB90A48006860B9FC
:1003E00008480068401C07490860012010BD012C26
:1003F00003D1002003490860F8E70020F6E7000079
:10040000000801400C0000202048806940F00800EE
:100410001E4988610846806940F0400088611C4898
:1004200000681C4908401A490860084600681A49D3
:1004300008431749086016480C30006840F0010076
:1004400013490C3108600846006840F0200008603D
:100450000846006840F0400008600846006840F028
:10046000800008600D48006820F470000B490860A7
:100470000846006840F44010086008480C300068E6
:1004800040F0200005490C31086070470010024020
:10049000000C0140F0FF0F00030030330018014052
:1004A00000BFFEE77047704729B1064A92690243D0
:1004B000044B9A6104E0034A92698243014B9A61BA
:1004C0007047000000100240704770471D490988BE
:1004D00001F0200111B31B49091D0988C8B21A494E
:1004E000098801F40041C9B91749098801F480411C
:1004F00061B10A2803D00021134A118020E012497B
:10050000098841F40041104A118019E00D2806D1F4
:100510000D49098841F480410B4A118010E00A49D5
:100520000988C1F30D01094A505407490988491C3B
:10053000054A118011460988C72901DD0021118073
:100540007047000000380140080000201000002023
:1005500000BFFEE7014600BF704700004FF0E021FA
:10056000096921F004014FF0E0221161C21700EB8C
:100570005272C2F3C702074B1A701946097801EB91
:100580004102C2EBC1114FF6FF7202EAC101024AF9
:1005900011807047000000200200002001460D4A33
:1005A00012884A434FF0E0235A6100229A610122E7
:1005B0001A6100BF4FF0E022106900F001021AB189
:1005C00000F48032002AF5D000224FF0E0231A61B7
:1005D0009A61704702000020FFF716FFFFF7E0FE68
:1005E0000820FFF7BBFF5AE000BFFFF7EBFE002833
:1005F000FBD12B48006840F0010029490860FA202F
:10060000FFF7CCFF00BFFFF7DDFE0028FBD1244839
:10061000006820F00100224908600846006840F0A8
:1006200020000860FA20FFF7B9FF00BFFFF7CAFEFD
:100630000028FBD11A48006820F020001849086003
:100640000846006840F040000860FA20FFF7A6FF67
:1006500000BFFFF7B7FE0028FBD11148006820F06B
:1006600040000F4908600846006840F080000860BC
:10067000FA20FFF793FF00BFFFF7A4FE0028FBD18D
:100680000748006820F080000549086005480068B8
:1006900040F0200003490860FA20FFF77FFFA3E73E
:1006A0000C0C01400C180140C80600080000002096
:1006B000100000006C010008D8060008100000209F
:1006C000280700008801000800000000000000006A
:0806D000000000000000000022
:0400000508000131BD
:00000001FF
