:03000000020006F5
:03005F0002000399
:0300030002006D8B
:10006200D2982098FBC2988599822275892075982A
:1000720050758700758DFD858C8BD28ED29C1200B7
:060082006285829080F807
:06003500E478FFF6D8FD9F
:100013007900E94400601B7A0090008C780175A098
:1000230000E493F2A308B8000205A0D9F4DAF2754C
:02003300A0FF2C
:10003B007800E84400600A790175A000E4F309D860
:10004B00FC7800E84400600C7900900001E4F0A318
:04005B00D8FCD9FAFA
:0D000600758107120088E582600302000387
:04008800758200225B
:00000001FF
