:1003D9000106011E0137015D018801B801EE020B1A
:1003E900024B029302BA0310037003DB041604964E
:0C03F90005260574061F06E007B700FF8C
:0C040500E4FFE4FE0EBEFAFC0FBFFAF6A6
:0104110022C8
:03000B0002039E4F
:10039E00C0E0C0D075D000C000C004C005C006B219
:1003AE00B6C3E49509FD74209508FCEDAE047805FE
:1003BE00CEC313CE13D8F9F58CED541FF58AD006A3
:0B03CE00D005D004D000D0D0D0E03229
:10000E00D2AFD2A9E4F589750A1520A0047F01802C
:10001E00027F002090047E0180027E00EE5F60036E
:10002E00E4F50A20A0047F0180027F002091047E67
:10003E000180027E00EE5F6003750A0120A0047F3E
:10004E000180027F002092047E0180027E00EE5F1E
:10005E006003750A0220A0047F0180027F002093B6
:10006E00047E0180027E00EE5F6003750A0320A00D
:10007E00047F0180027F002094047E0180027E00B6
:10008E00EE5F6003750A0420A0047F0180027F00EA
:10009E002095047E0180027E00EE5F6003750A05E6
:1000AE0020A0047F0180027F002096047E01800242
:1000BE007E00EE5F6003750A0620A1047F018002B8
:1000CE007F002090047E0180027E00EE5F6003754B
:1000DE000A0720A1047F0180027F002091047E0187
:1000EE0080027E00EE5F6003750A0820A1047F0186
:1000FE0080027F002092047E0180027E00EE5F600F
:10010E0003750A0920A1047F0180027F0020930459
:10011E007E0180027E00EE5F6003750A0A20A10454
:10012E007F0180027F002094047E0180027E00EE1B
:10013E005F6003750A0B20A1047F0180027F0020FF
:10014E0095047E0180027E00EE5F6003750A0C202E
:10015E00A1047F0180027F002096047E0180027E32
:10016E0000EE5F6003750A0D20A2047F0180027FFE
:10017E00002090047E0180027E00EE5F6003750A0F
:10018E000E20A2047F0180027F002091047E018058
:10019E00027E00EE5F6003750A0F20A2047F0180CD
:1001AE00027F002092047E0180027E00EE5F6003DB
:1001BE00750A1020A2047F0180027F002093047E26
:1001CE000180027E00EE5F6003750A1120A2047F9B
:1001DE000180027F002094047E0180027E00EE5F8B
:1001EE006003750A1220A2047F0180027F00209511
:1001FE00047E0180027E00EE5F6003750A1320A26A
:10020E00047F0180027F002096047E0180027E0022
:10021E00EE5F6003750A14E50A641570030200159B
:10022E00E50A25E024D9F582E43403F583E493FE50
:10023E00740193FBAA06E4F9F87F1E7E087D07FC85
:10024E0012035A8E088F09C3E49509FD7420950890
:10025E00FCEDAE047805CEC313CE13D8F9F58CEDB4
:10026E00541FF58AD28CE4F50B120405050BE50B31
:0E027E00C3940240F4C28CD2B6750A15809962
:03000000020412E5
:0C041200787FE4F6D8FD75810B02000E27
:10035A00C2D5E830E70FB2D5E4C39BFBE49AFAE4CE
:10036A0099F9E498F8EC30E717B2D5120390120223
:10037A00C8E4C39BFBE49AFAE499F9E498F8800389
:10038A001202C830D50DE4C39FFFE49EFEE49DFD32
:04039A00E49CFC22C1
:10028C0075F008758200EF2FFFEE33FECD33CDCC29
:10029C0033CCC58233C5829BED9AEC99E5829840AC
:1002AC000CF582EE9BFEED9AFDEC99FC0FD5F0D689
:1002BC00E4CEFBE4CDFAE4CCF9A88222B800C1B9B3
:1002CC000059BA002DEC8BF084CFCECDFCE5F0CBF1
:1002DC00F97818EF2FFFEE33FEED33FDEC33FCEB2A
:1002EC0033FB10D703994004EB99FB0FD8E5E4F9E5
:1002FC00FA227818EF2FFFEE33FEED33FDEC33FCD2
:10030C00C933C910D7059BE99A4007EC9BFCE99AC5
:10031C00F90FD8E0E4C9FAE4CCFB2275F010EF2F0A
:10032C00FFEE33FEED33FDCC33CCC833C810D7070A
:10033C009BEC9AE899400AED9BFDEC9AFCE899F845
:0E034C000FD5F0DAE4CDFBE4CCFAE4C8F922D8
:00000001FF
