:0309A400010B7EC6
:0F090A0054F0FB43030CAF031208DB7F147E0095
:0A091900EF1FAC0670011E4C601ABF
:10092300750A01E50AD3940040EC75098E75080237
:0A093300D508FDD509F7150A80E983
:01093D002297
:10098600D2A100D2A00000000000C2A10000000019
:0409960000C2A022D9
:0708D400AD07120986AF0B0E
:1008DB00E4FEEF3392A1EF25E0FF0000D2A0000071
:1008EB00000000C2A00EBE08E900000000D2A1006B
:0E08FB00000000D2A000000020A1FD00C2A05D
:0109090022CB
:100968001208D4ED12090A5303FBAF031208DBED9A
:0E097800540FC412090A5303FBAF030208DB3D
:10093E001208D4ED54F0FB43030D1209105303FBC0
:10094E00AF031208DBED540FC454F0FB43030D123A
:0A095E0009105303FBAF030208DB8E
:10088C007F331209687F327E001209197F321209F8
:10089C00687F327E001209197F281209687F327E28
:1008AC00001209197F0C1209687F327E0012091997
:1008BC007F061209687F327E001209197F01120926
:0808CC00687F327E0002091969
:0A099A0012088C7F3112093E80FE26
:03000000020800F3
:0C080000787FE4F6D8FD75810B020847F4
:10080C0002099AE493A3F8E493A34003F68001F25F
:10081C0008DFF48029E493A3F85407240CC8C333ED
:10082C00C4540F4420C8834004F456800146F6DFBC
:10083C00E4800B01020408102040809009A4E47E9F
:10084C00019360BCA3FF543F30E509541FFEE493B1
:10085C00A360010ECF54C025E060A840B8E493A378
:10086C00FAE493A3F8E493A3C8C582C8CAC583CAA3
:10087C00F0A3C8C582C8CAC583CADFE9DEE780BE5B
:0109A700004F
:00000001FF
