:020000040800F2
:10000000B806002031020008F90E0008350E00087D
:10001000F50E000829040008651100080000000022
:100020000000000000000000000000002D0F00088C
:100030002D04000800000000290F0008610F0008CF
:100040004B0200084B0200084B0200084B0200085C
:100050004B0200084B0200084B0200084B0200084C
:100060004B0200084B0200084B0200084B0200083C
:100070004B0200084B0200084B0200084B0200082C
:100080004B0200084B0200084B0200080000000071
:100090000000000000000000000000004B0200080B
:1000A0004B0200084B0200084B0200084B020008FC
:1000B0004B0200084B0200084B0200084B020008EC
:1000C0004B0200084B0200084B0200084B020008DC
:1000D0004B0200084B0200084B0200080000000021
:1000E0004B0200084B0200084B0200080000000011
:1000F0000000000000000000000000004B020008AB
:10010000000000004B0200084B0200084B020008F0
:1001100000000000000000000000000000000000DF
:100120004B0200084B0200084B0200084B0200087B
:100130004B0200080000000000000000000000006A
:100140000000000000000000000000004B0200085A
:100150004B0200084B0200084B0200084B0200084B
:100160004B0200084B0200080000000000000000E5
:10017000000000000000000000000000000000007F
:10018000000000004B02000800000000000000001A
:100190004B02000800F002F800F03AF80AA090E8DC
:1001A000000C82448344AAF10107DA4501D100F032
:1001B0002FF8AFF2090EBAE80F0013F0010F18BFC5
:1001C000FB1A43F0010318475C1000007C1000008C
:1001D000103A24BF78C878C1FAD8520724BF30C873
:1001E00030C144BF04680C60704700000023002445
:1001F00000250026103A28BF78C1FBD8520728BF37
:1002000030C148BF0B6070471FB51FBD10B510BD92
:1002100000F0D0F81146FFF7F7FF00F0CFFF00F035
:10022000EEF803B4FFF7F2FF03BC00F0F5F80000AE
:100230000948804709480047FEE7FEE7FEE7FEE77A
:10024000FEE7FEE7FEE7FEE7FEE7FEE704480549B6
:10025000054A064B70470000091000089501000888
:10026000B8000020B8060020B8020020B802002024
:1002700053EA020C00F069802DE9F04B4FF00006C4
:10028000002B1FBFB3FA83F503FA05F424FA05F631
:100290005E4012BF1643B2FA82F502FA05F4C5F1C8
:1002A00020051EBF22FA05FC44EA0C04203556EA5C
:1002B000044C4FEA144418BF641C4FF000084FF080
:1002C0000009904271EB030C39D3002919BFB1FA30
:1002D00081F701FA07F6B0FA80F700FA07F6C7F1DE
:1002E00020071EBF20FA07FC46EA0C062037B6FBA3
:1002F000F4FCA7EB0507103F07F01F0BCBF120061E
:100300002CFA06F60CFA0BFB44BFB3460026202F4E
:10031000A4BF5E464FF0000B5BEA060C08BF4FF02F
:10032000010B19EB0B0948EB0608ABFB027C06FB43
:1003300002CC0BFB03CCC01B71EB0C01C1E70B46DD
:10034000024641464846BDE8F08B13B5084318BF46
:100350004FF0FF300146AFF30080BDE81C4070470E
:100360004FF0000200B5134694469646203922BF4E
:10037000A0E80C50A0E80C50B1F12001BFF4F7AF99
:10038000090728BFA0E80C5048BF0CC05DF804EB7B
:10039000890028BF40F8042B08BF704748BF20F8E9
:1003A000022B11F0804F18BF00F8012B70477047E7
:1003B00070477047754600F02BF8AE460500694659
:1003C000534620F00700854618B020B5FFF73EFFE2
:1003D000BDE820404FF000064FF000074FF0000846
:1003E0004FF0000BAC46ACE8C009ACE8C009ACE883
:1003F000C009ACE8C00921F007018D46704710B56F
:100400000446AFF300802046BDE81040FFF709BF67
:10041000004870471000002001491820ABBEFEE7DD
:100420002600020070470000FEE700007047000051
:10043000EFF3108072B600BFFEE70000B0B50446CF
:1004400000F0EAF8054640F20400C2F2000000782D
:10045000611C18BF044400BF00F0DEF8401BA0423E
:10046000FAD3B0BD2DE9F04F83B000F13E4202F166
:10047000FF724FEAB22241F200070192C4F2020772
:1004800007224FF0010E00254FF0000A4FF0000840
:10049000B84208BF042200920AE000BF08F1010838
:1004A0000AF1040AB8F1100F05F1020500F0A2806C
:1004B0000C680EFA08FB14EA0B09EFD04C6804F044
:1004C000030CACF1010EBEF1010F11D803228768B5
:1004D00002FA05F6CA68B743AA403A438260426806
:1004E000C4F3001722EA0B0207FA08F73A43426006
:1004F000BCF1030F1CD0C26803238E6803FA05F712
:10050000BA4306FA05F73A43BCF1020FC2600FD1B5
:100510006FF0030202EA580202440AF01C060F239D
:10052000176A03FA06F40B69A743B3403B4313620F
:10053000026803234F68AB409A4307F00303AB40C4
:100540001A4317F4403F4FF0010E0260A6D000227C
:1005500043F644030292C4F202031A6843F60044CD
:1005600042F480421A601A68C4F2010402F4804224
:100570000292029A28F003024FF6084B2244CFF66B
:10058000FF7B52F80B300AF00C070F26BE4023EA1F
:10059000060C019B009E042B38BF1E4606FA07F787
:1005A00047EA0C0342F80B3022684B6842EA09071D
:1005B000DE0358BF22EA0907276062689E0342EA09
:1005C000090758BF22EA09076760A268DE0242EA0B
:1005D000090758BF22EA0907A76043F60C47C4F28F
:1005E00001073A689B0242EA090358BF22EA09035D
:1005F0003B6053E703B0BDE8F08F0000426902EAB8
:100600000103914341EA034181617047002A08BF19
:10061000090481617047000040F2B400C2F200009A
:100620000068704740F2040040F2B401C2F20000DA
:10063000C2F2000100780A681044086070470000A8
:1006400080B543F60040C4F20200016841F4007135
:100650000160016841F480610160016841F48071CA
:100660000160032000F05CF80F2000F005F800F0B6
:100670002BF8002080BD0000B0B540F20402C2F2A9
:10068000000240F200011278C2F200014FF47A73C6
:100690000968B3FBF2F20446B1FBF2F1084600F040
:1006A000F5FA0F2C4FF001050CD858B94FF0FF3078
:1006B00021460022002500F023F840F20800C2F293
:1006C000000004602846B0BD82B0002043F640011F
:1006D0000190C4F202014A6842F480424A604A68CA
:1006E00002F480420192019A0090086840F0805024
:1006F0000860086800F080500090009802B07047D1
:1007000070B514460D46064600F02EFD29462246D9
:1007100000F0F4FB0146304600F02EFD70BD0000F5
:1007200080B500F03BFD80BD2DE9F041002800F0D0
:100730008B8043F60808C4F202080446D8F8F80390
:100740000D4600F00700884207D288F8F853D8F821
:10075000F80300F00700A84276D12068810717D57A
:10076000410705D5D8F8001041F4E051C8F8001051
:10077000010705D5D8F8001041F46041C8F8001011
:10078000D8F80010A26821F0F0011143C8F8001059
:10079000C0073FD1D8F8F80300F00700A84207D9F6
:1007A00088F8F853D8F8F80300F00700A8424BD1B6
:1007B0002068410707D5D8F80010E26821F4E0511D
:1007C0001143C8F80010000708D5D8F800002169C7
:1007D00020F4604040EAC100C8F8000000F07EF854
:1007E000D8F8001041F20C22C1F30311C0F6000248
:1007F000515C40F2000220FA01F140F20800C2F21E
:1008000000000068C2F200021160FFF735FF00200F
:10081000BDE8F0816068811E022907D258F8081CE3
:1008200089015CBF0120BDE8F08110E0012807D1FB
:1008300058F8081C89035CBF0120BDE8F08106E080
:1008400058F8081C890702D40120BDE8F081D8F8C7
:10085000001021F003010843C8F80000FFF7DCFE98
:10086000064641F2883700BFD8F80000616800F002
:100870000C00B0EB810F8DD0FFF7CEFE801BB8428D
:10088000F2D90320BDE8F08140F20000C2F200007E
:100890000068704780B5FFF7F7FF43F60801C4F220
:1008A0000201096841F21C22C1F38221C0F6000254
:1008B000515CC84080BD000080B5FFF7E5FF43F6FE
:1008C0000801C4F20201096841F21C22C1F342315D
:1008D000C0F60002515CC84080BD000010B543F670
:1008E0000404C4F20204606800F00C0142F200400B
:1008F0000829C0F2F40007D0042918BF10BD41F246
:100900000020C0F27A0010BD216801F03F0221688A
:1009100023684902C3F3881105D4A1FB0001002319
:10092000FFF7A6FC06E041F20020C0F27A0048433F
:10093000B0FBF2F021680222C1F3014102EB410158
:10094000B0FBF1F010BD00002DE9F04182B00028AD
:1009500000F0A1800446007843F60006C007C4F208
:10096000020643D0B06800F00C00042805D13068BE
:1009700080033BD56068C8BB8DE0B06800F00C0018
:10098000082802D170684002F1D46568B5F5A02F3F
:100990000AD0B5F5803F0BD0306820F4803030604D
:1009A000306820F4802006E0306840F48020306019
:1009B000306840F480303060FFF72EFE002D054691
:1009C00011D000BF3068800310D4FFF725FE401B14
:1009D0006428F7D920E100BFFFF71EFE401B642802
:1009E0004FF0030054D830688003F5D42078800796
:1009F0001AD5B06810F00C0F09D0B06800F00C00E8
:100A0000082840F088807068400200F184803068D7
:100A1000800702D5E06801283DD13068216920F0C7
:100A2000F80040EAC10030602078000737D4207811
:100A300040074AD4A56955B3B06800F00C000828F7
:100A400040F09C80012D26D07068E16900F480029E
:100A50008A4220D1216A00F03F028A421BD147F628
:100A6000C071626A0140B1EB821F14D1A16A4FF6D6
:100A7000FF73C903994300F44032A1F580318A42E3
:100A800009D1E16A00F07060B0EB016F03D1002082
:100A900002B0BDE8F081012002B0BDE8F0816069DC
:100AA000002840F20000C4F2472056D00121C0F8CF
:100AB000801EFFF7B1FD0546706F8007B7D4FFF7C2
:100AC000ABFD401B0228F7D9A6E0306C10F080582F
:100AD0000AD100200190306C40F080503064306CBE
:100AE00000F080500190019847F20007C4F200071F
:100AF0003868C00524D4386840F480703860FFF747
:100B00008BFD05463868C0051AD4FFF785FD401BEC
:100B10000228F7D980E0E068002851D00020C4F214
:100B2000472001210160FFF777FD05463068800707
:100B30003FF573AFFFF770FD401B0228F6D96BE05D
:100B4000A568052D50D0012D52D0306F20F0010046
:100B50003067306F20F004004DE00021C0F8801EA7
:100B6000FFF75AFD054600BF706F80077FF55FAF46
:100B7000FFF752FD401B0228F6D94DE00027C4F2D2
:100B8000472700203866FFF747FD022D05460BD1A9
:100B90003068800158D5FFF73FFD401B02284FF019
:100BA0000300F5D974E700BF306880017FF56FAFAF
:100BB000FFF732FD401B02284FF00300F4D967E72E
:100BC0000020C4F2472000210160FFF725FD054603
:100BD000306880077FF528AFFFF71EFD401B022815
:100BE0004FF00300F4D953E7306F40F00400306752
:100BF000306F40F001003067FFF70EFD002D054615
:100C000041F2883714D000BF306F800713D4FFF74C
:100C100003FD401BB842F7D9032002B0BDE8F081C4
:100C2000FFF7FAFC401BB8424FF003003FF630AF2D
:100C3000306F8007F4D4B8F1000F7FF4FBAE306C56
:100C400020F080503064F5E604F11C052FCD0843F8
:100C500040EA8210D9034FF6FF729143A1F580312B
:100C600040EA05600843706001203866FFF7D4FC55
:100C7000044600BF306880013FF509AFFFF7CCFCA8
:100C8000001B02284FF00300F4D901E780B500F003
:100C90004FF980BD002804BF0120704710B50446FD
:100CA00090F83D0028B9002084F83C00204600F070
:100CB00021F8242084F83D002068C16821F4005107
:100CC000C160204600F0A2F92068016921F490413A
:100CD0000161416921F02A014161C16841F400517B
:100CE000C16000202021206484F83D1084F83E106B
:100CF00010BD000080B586B000220592CDE9032228
:100D000041F200010068C4F201018842029201929E
:100D100001D006B080BD43F630000092C4F202005C
:100D2000436943F010034361436903F010030093E8
:100D3000009B0092036843F001030360006800F029
:100D40000100009000984FF4C06001900220CDE9AE
:100D50000202032004900720059001F5704001A9CC
:100D6000FFF780FB06B080BD2DE9F04381B004465B
:100D700090F83D0020280BD10E4600294FF00100CD
:100D800055D01746002A52D094F83C00012803D1D0
:100D9000022001B0BDE8F083012084F83C004FF050
:100DA000000921201D46C4F8409084F83D00FFF75B
:100DB00033FCA784E784A1680746B1F5805F07D1BB
:100DC000206900281CBF30464E46B046064601E06A
:100DD0004FF0000884F83C9007E000BF16F8010BC4
:100DE00021684860E08C0138E084E08C80B12046C6
:100DF00080213A462B4600F077F980B9002EEDD1DC
:100E000038F8020B21686FF35F2048600026E9E79D
:100E1000204640213A462B4600F066F918B10320DF
:100E200001B0BDE8F083202084F83D00002001B02F
:100E3000BDE8F083FEE7000070B586B0002543F6FC
:100E400030000595CDE90355CDE901550095C4F273
:100E50000200016840F6000441F0040101600168ED
:100E6000C4F2020401F004010091009900950168A8
:100E7000002241F08001016001684FF4005601F04A
:100E80008001009100990095016841F00101016025
:100E900000684FF4005100F00100009000982046D7
:100EA000FFF7B4FB01200196CDE9020501A9204618
:100EB0000495FFF7D7FA06B070BD000080B540F288
:100EC000700041F20001C2F20000C4F201010023EF
:100ED0004FF00C0C4FF4E13280E80E00C0E9033310
:100EE000C0E905C3C361FFF7D5FE002818BFFFF7AF
:100EF0009FFA80BDFEE70000FEE7000000F007005B
:100F000080F00703042B28BF04234FF0FF3C033875
:100F10000CFA03F338BF0020994381400CFA00F02B
:100F200022EA000008437047704700007047000045
:100F3000B0B501380024B4EB106F1CBF0120B0BD68
:100F40004EF21005CEF2000568604FF0FF300F2121
:100F500000F012F90720AC6028602046B0BD000008
:100F600080B5FFF75FFB80BD70B592B006AC204640
:100F70003021FFF7F5F9002543F640000595CDE94E
:100F80000355CDE901550095C4F20200016802261F
:100F900041F080510160006800F08050009000989E
:100FA00047F200000095C4F20000016866F38F313B
:100FB00001600068542100F4404000900098012036
:100FC00006904FF4803007904FF480000D9004207D
:100FD0000C960E90CDE90F1611902046FFF7B4FC49
:100FE00078B90F20CDE901064FF480500395CDE983
:100FF000040501A80221FFF797FB002804BF12B0E7
:1010000070BDFFF715FA00007047000010B50446E8
:101010000068D4E902C22369016921F440511143F7
:101020000161626943EA0C01E3691143C268194333
:1010300049F20C639A431143C1604169A26921F4EA
:10104000407141F20043114340F48062C4F2010355
:101050009A42416102D1FFF72FFC01E0FFF71AFC31
:10106000E16963681922B1F5004FA0FB02011CD1B0
:101070005A00DB0FFFF7FCF848F21F51C5F2EB11E5
:10108000A0FB01235A096FF0630302FB0300322324
:1010900003EBC000A0FB01014FF4F87000EA11104F
:1010A00000EB0210C1F342111AE09A009B0FFFF708
:1010B000DFF848F21F51C5F2EB11A0FB01235A09DA
:1010C0006FF0630302FB0300322303EB0010A0FB6D
:1010D0000101F02000EA511000EB0210C1F34311AE
:1010E00022680843906010BD2DE9F0410446006875
:1010F00000680840884202D10020BDE8F0811D460A
:101100000E4690465F1C04E0206800683040B04204
:10111000F2D0002FF8D02DB1FFF77EFAA0EB080037
:10112000A842F1D9206850E8030F216820F4D0705C
:1011300041E80302002AF5D1206850E8050F216834
:1011400020F0010041E80502002AF5D1202084F8B2
:101150003D0084F83E00002084F83C000320BDE8F8
:10116000F0810000FEE700004EF60C50CEF20000C9
:101170000068C0F3022070474EF6145300F00F02CF
:10118000CEF2000309011A4400F16043B0F1FF3FC1
:10119000C8BF03F564421170704700004EF60C5151
:1011A000CEF200010A684FF6FF031A4060F30A22EC
:1011B00042F0806040F0FD7008607047FFF740FA31
:1011C000FFF7D2FEFFF738FEFFF778FE40F6000487
:1011D00040F27005C4F20204C2F2000508A600BF86
:1011E00020464FF40051FFF709FA284631460F22F6
:1011F00040F6FF73FFF7B8FD9620FFF71FF9EFE702
:1012000030303031313030313130300000000000CA
:1012100000000000010203040607080900000000A6
:101220000102030448120008000000201000000022
:10123000D00100085812000810000020A806000085
:10124000EC010008000000000024F4000100000090
:08125000100000000000000086
:040000050800019559
:00000001FF
