:020000040800F2
:10000000D80400209D0100088B020008830200082C
:1000100087020008E501000807070008000000004B
:100020000000000000000000000000009D04000827
:10003000E9010008000000008D020008B505000875
:10004000B7010008B7010008B7010008B7010008B0
:10005000B7010008B7010008B7010008B7010008A0
:10006000B7010008B7010008B7010008B701000890
:10007000B7010008B7010008B7010008B701000880
:10008000B7010008B7010008B7010008B701000870
:10009000B7010008B7010008B7010008B701000860
:1000A000B7010008B7010008B7010008B701000850
:1000B000B7010008B7010008B7010008B701000840
:1000C000B7010008B7010008B7010008B701000830
:1000D000B701000821060008B7010008B7010008B1
:1000E000B7010008B7010008B7010008B701000810
:1000F000B7010008B7010008B7010008B701000800
:10010000B7010008B7010008B7010008B7010008EF
:10011000B7010008B7010008B7010008B7010008DF
:10012000B7010008B7010008B7010008B7010008CF
:10013000B7010008B7010008B7010008B7010008BF
:10014000B7010008B7010008B7010008B7010008AF
:10015000B7010008B7010008B7010008B70100089F
:10016000B7010008B7010008B7010008B70100088F
:10017000B7010008B7010008B7010008B70100087F
:10018000B7010008B7010008DFF80CD000F018F83C
:1001900000480047E9070008D804002006488047C7
:1001A00006480047FEE7FEE7FEE7FEE7FEE7FEE75C
:1001B000FEE7FEE7FEE7FEE7B90500088901000853
:1001C000064C074D06E0E06840F0010394E80700A4
:1001D00098471034AC42F6D3FFF7DAFF5008000816
:1001E0007008000800BFFEE77047F0B50A4600211E
:1001F0000023002400BF3DE0012505FA01F3156846
:1002000005EA03049C4234D105684F000326BE4032
:10021000B543056015794E00B54006683543056065
:100220001579012D02D01579022D16D185684F0060
:100230000326BE40B543856055794E00B5408668BB
:1002400035438560456801268E40B5434560456865
:1002500096798E40B6B235434560C5684F00032697
:10026000BE40B543C560D5794E00B540C66835433C
:10027000C560491C1029BFD3F0BD4183704701837D
:10028000704700BFFEE700BFFEE770477047000001
:1002900029B1064A12680243044B1A6004E0034A7B
:1002A00012688243014B1A607047000030380240E8
:1002B0001448006840F0010012490860002011490C
:1002C000083108600F4800680F4908400D49086070
:1002D0000E48091D08600E480A49843108600B4821
:1002E0001038091D08600748006820F4802005497F
:1002F0000860002003490C31086002498C31086015
:100300007047000000380240FFFFF6EA103000247A
:100310000030002010B501460022002300204A11C1
:10032000012A02D10A4C236808E0022A03D1084CB2
:100330007034236802E0064C7434236801F01F0215
:10034000012494401C400CB1012000E0002010BDAD
:10035000003802400248006800F00C0070470000BE
:100360000838024001460020034A106820F0F000DF
:100370000843106070470000083802400021024A1C
:1003800011701146087070470238024008B5FFF737
:100390008FFF0120FFF7F2FF00F064F8012824D15D
:1003A0000020FFF7DFFF4FF4C05000F01FF84FF4BC
:1003B000805000F027F8062004234FF490720821A3
:1003C0000090C80400F030F8012000F027F800BFCA
:1003D0003920FFF79FFF0028FAD0022000F036F8FE
:1003E00000BFFFF7B7FF0828FBD108BD014600207A
:1003F000034A106820F4E050084310607047000082
:100400000838024001460020034A106820F460408A
:1004100040EAC10010607047083802400149086690
:10042000704700000000474270B5049C41EA821505
:100430000126C6EB530645EA0645054345EA046531
:10044000014E356070BD00000438024001460020B6
:10045000034A106820F00300084310607047000052
:100460000838024038B5002000900024002500BF65
:100470003120FFF74FFF05460098401C0090009880
:10048000B0F5A04F01D0002DF2D03120FFF742FF90
:1004900008B1012400E00024204638BD7047000068
:1004A0000CB50020019000903448006840F4803082
:1004B0003249086000BF3148006800F40030009005
:1004C0000198401C0190009818B90198B0F5A04F10
:1004D000F1D12A48006800F4003010B101200090EA
:1004E00001E0002000900098012846D123484030C8
:1004F000006840F080502149403108602048006881
:1005000040F440401E4908601C48083000681B4900
:10051000083108600846006840F40040086008465A
:10052000006840F4A05008601648091F0860081FC2
:10053000006840F08070091F086000BF0F48006825
:1005400000F000700028F9D040F205700E490860F4
:100550000A480830006820F00300084908310860A4
:100560000846006840F00200086000BF03480830F9
:10057000006800F00C000828F8D10CBD00380240DB
:100580000070004008544007003C0240042808D195
:100590004FF0E021096941F004014FF0E0221161C0
:1005A00007E04FF0E021096921F004014FF0E0225B
:1005B000116170477047000010B51548006840F49D
:1005C0007000134908601348006840F001001149A9
:1005D000086000200F49083108600E4800680E4985
:1005E00008400C4908600D48091D0860081F006894
:1005F00020F48020091F0860002006490C310860A3
:10060000FFF74EFF4FF0006001498039086010BDD0
:1006100088ED00E000380240FFFFF6FE10300024B5
:1006200010B540F225511D4800F03EF810B31B48AC
:1006300000F064F8C4B21A48008800F40040C8B959
:100640001748008800F4804060B10A2C03D00020D5
:100650001349088020E01248008840F40040104907
:10066000088019E00D2C06D10D48008840F4804028
:100670000B49088010E00A480088C0F30D000949C2
:100680000C5407480088401C05490880084600882B
:10069000C72801DD0020088010BD000000100140C7
:1006A000080000200C00002070B502460024002342
:1006B0000025002040F66A16B14200D100BFC1F308
:1006C000421501F01F03012606FA03F3012D02D1A2
:1006D0009689334006E0022D02D1168A334001E0AC
:1006E000968A33400C12012606FA04F41688344028
:1006F00013B10CB1012000E0002070BD01468888D4
:10070000C0F30800704700BFFEE702E008C8121FF0
:1007100008C1002AFAD170477047002001E001C1EA
:10072000121F002AFBD1704710B504466FF0040079
:10073000FFF72CFFE11704EB5171C1F3C701074A22
:1007400011701046007800EB4001C1EBC0104FF66D
:10075000FF7101EAC0000249088010BD00000020BE
:100760000200002070B504464FF4077094FBF0F0CF
:10077000C6B24FF4077094FBF0F100FB114085B254
:1007800005E04FF4077000F009F8701EC6B2002EA5
:10079000F7D115B1284600F001F870BD0146114AA5
:1007A00012884A434FF0E0235A6100229A611A46A8
:1007B000126942F001021A6100BF4FF0E022106995
:1007C00000F001021AB100F48032002AF5D04FF097
:1007D000E022126922F001024FF0E0231A610022A8
:1007E0009A617047020000201CB5FFF7CFFD48203A
:1007F000FFF79AFF01210420FFF74AFD4FF6FF7033
:10080000009001208DF8040000208DF806000320E0
:100810008DF8050000208DF8070069460B48FFF7AA
:10082000E4FC11E04FF400510848FFF728FD4FF4B5
:10083000FA70FFF797FF4FF400510448FFF71DFDD2
:100840004FF4FA70FFF78EFFECE70000000802405B
:1008500070080008000000200C0000000A070008D3
:100860007C0800080C000020CC0400001A070008D7
:0C0870000000000000000000000000007C
:040000050800018965
:00000001FF
