:020000040800F2
:10000000800E00200D020008210A00087D0600086D
:100010001D0A0008B70200086F1100080000000068
:10002000000000000000000000000000C10B0008FC
:10003000BB02000800000000A90A0008050D000826
:1000400023020008230200082302000823020008FC
:1000500023020008230200082302000823020008EC
:1000600023020008230200082302000823020008DC
:1000700023020008230200082302000823020008CC
:1000800023020008230200082302000823020008BC
:1000900023020008230200082302000823020008AC
:1000A000230200082302000823020008230200089C
:1000B00023020008090D000823020008230200089B
:1000C000230200082302000823020008230200087C
:1000D00023020008E90E000823020008230200089A
:1000E000BD020008230200082302000823020008C2
:1000F000230200082302000823020008230200084C
:10010000230200082302000823020008230200083B
:10011000230200082302000823020008230200082B
:10012000230200082302000823020008230200081B
:1001300000F002F800F05AF80AA090E8000C82449F
:100140008344AAF10107DA4501D100F04FF8AFF27C
:10015000090EBAE80F0013F0010F18BFFB1A43F0A5
:100160000103184768170000881700000A444FF081
:10017000000C10F8013B13F0070408BF10F8014B06
:100180001D1108BF10F8015B641E05D010F8016B4B
:10019000641E01F8016BF9D113F0080F1EBF10F8AF
:1001A000014BAD1C0C1B09D16D1E58BF01F801CBD2
:1001B000FAD505E014F8016B01F8016B6D1EF9D555
:1001C0009142D6D37047000000230024002500266A
:1001D000103A28BF78C1FBD8520728BF30C148BFAA
:1001E0000B6070471FB51FBD10B510BD00F02DF896
:1001F0001146FFF7F7FF01F0CDF800F04BF803B41C
:10020000FFF7F2FF03BC00F04FF80000084800477A
:10021000FEE7FEE7FEE7FEE7FEE7FEE7FEE7FEE7B6
:10022000FEE7FEE703480449044A054B7047000017
:100230003101000880080020800E0020800A002084
:10024000800A0020704770477047754600F028F814
:10025000AE4605006946534620F00700854618B0B3
:1002600020B5FFF7DFFFBDE820404FF000064FF05C
:1002700000074FF000084FF0000B21F00701AC46DB
:10028000ACE8C009ACE8C009ACE8C009ACE8C009FA
:100290008D4670470446AFF300802046FFF7AFFF5E
:1002A000004870472008002001491820ABBEFEE737
:1002B00026000200704700BFFEE7704770B50020BF
:1002C0004D4908704FF42F7000F0FEFF4FF480513D
:1002D0004A4800F0CAF9002877D14FF47A7404E054
:1002E000012000F0F1FF601E84B24FF480514348BA
:1002F00000F0BBF908B9002CF2DC4FF480513F4804
:1003000000F0B3F9012857D14FF4FA7404E001204A
:1003100000F0DAFF601E84B24FF48051374800F0DD
:10032000A4F9012801D1002CF1DC002542E00026CF
:100330003CE03C2404E0012000F0C6FF601E84B2D3
:100340004FF480512D4800F090F908B9002CF2DCF0
:100350004FF4FA740EE00A2000F0B6FF2648007849
:10036000401C25490870601E84B2084600781E288B
:1003700000DD70BD4FF48051204800F076F901286F
:1003800001D1002CE7DC1E48405D40101C49485557
:1003900019480078082804DB0846405D40F08000DA
:1003A0004855002014490870701CC6B2082EC0DBE6
:1003B000681CC5B2042DBADB114880781049C97891
:1003C000C943884201D0D4E7FFE70E48006808B966
:1003D000012000E000200B4908604FF4805000F03D
:1003E0004BF80748807820B105488178064800F02E
:1003F000BAFE00BFBDE7000000080020000C01406D
:1004000001080020840121420038014008B5032082
:1004100008239A0210210090144800F083F803206A
:100420000823DA0210210090104800F07BF8032026
:1004300008235A02042100900C4800F073F80121AF
:10044000084600F043FB01220C21104600F01AF888
:10045000022328220121084600F086FA00200449E0
:10046000086001200349C1F8B80108BD000C014033
:10047000B481214200802142014908607047000098
:100480001404014070B504460B46CE1701EB967676
:10049000C6F38700CE1701EB9676B610A1EB860661
:1004A000B606350E1C4B9B6943F001031A4EB3612F
:1004B0004FEAB63353F820300F26AE40B343174E01
:1004C00046F82030334653F8203004FA05F61E4330
:1004D000124B43F82060124B1B6801268E403343B9
:1004E0000F4E336002F0010343B10D4B0C331B6818
:1004F00001268E4033430A4E0C36336002F002036D
:1005000043B1074B08331E6801238B401E43044B45
:1005100008331E6070BD000000100240080001405A
:10052000000401402DE9F84307460C4615461E46D7
:10053000DDF820800121304600F0C8FA8DF8034034
:10054000ADF800508DF802806946384600F002F898
:10055000BDE8F8832DE9F041024600250026002081
:1005600000230024002791F803C00CF00F0591F838
:1005700003C00CF0100CBCF1000F03D091F802C0C6
:100580004CEA050591F800C0BCF1000F31D01468A9
:1005900000202BE04FF0010C0CFA00F3B1F800C082
:1005A0000CEA03069E4220D183004FF00F0C0CFA98
:1005B00003F7BC4305FA03FC4CEA040491F803C0BA
:1005C000BCF1280F06D14FF0010C0CFA00FCC2F868
:1005D00014C00AE091F803C0BCF1480F05D14FF0F8
:1005E000010C0CFA00FCC2F810C0401C0828D1D342
:1005F0001460B1F800C0BCF1FF0F34DD5468002076
:100600002EE000F1080C4FF0010808FA0CF3B1F8E5
:1006100000C00CEA03069E4221D183004FF00F0C6C
:100620000CFA03F7BC4305FA03FC4CEA040491F806
:1006300003C0BCF1280F05D100F1080C08FA0CF832
:10064000C2F8148091F803C0BCF1480F07D100F143
:10065000080C4FF0010808FA0CF8C2F81080401C92
:100660000828CED35460BDE8F0810246002093688C
:100670000B400BB1012000E00020704700BFFEE7F7
:10068000F8B504460D46164610208DF80300102CD0
:1006900051D2DFE804F0080C1014181C2024282D77
:1006A00032373C41464B0120ADF8000044E00220C7
:1006B000ADF8000040E00420ADF800003CE0082068
:1006C000ADF8000038E01020ADF8000034E0202044
:1006D000ADF8000030E04020ADF800002CE08020B4
:1006E000ADF8000028E04FF48070ADF8000023E082
:1006F0004FF40070ADF800001EE04FF48060ADF8DC
:10070000000019E04FF40060ADF8000014E04FF471
:100710008050ADF800000FE04FF40050ADF800003D
:100720000AE04FF48040ADF8000005E04FF40040CF
:10073000ADF8000000E000BF00BF022D07D00A2D79
:1007400009D0322D0BD103208DF8020008E00220E1
:100750008DF8020004E001208DF8020000E000BFE7
:1007600000BF69463046FFF7F5FEF8BD10B5002121
:100770000C2000F093F80021802000F08FF8002476
:1007800004E00121002000F089F8641CB4F5FC7F2E
:10079000F7D310BD2DE9F04F81468A4693461F4698
:1007A000099CE11704EB5171C910A4EBC10131B9E7
:1007B0002046E11704EB5171C1F3C70807E020465A
:1007C000E11704EB5171C910491C01F0FF085146B3
:1007D000484600F055F8002514E000260FE00AEB2B
:1007E0000502D1B209EB0602D0B200F049F805FBD0
:1007F00007611BF80100012100F050F8761CBE4291
:10080000EDD36D1C4545E8D3BDE8F08F00B5002061
:100810001949086000F060FD01201849C1F89401F1
:1008200000201549091F086000F056FD01201349FA
:10083000C1F8900100F050FD0021212000F02EF8B9
:100840000021BD2000F02AF80021062000F026F843
:100850000021132000F022F80021202000F01EF8D3
:10086000FFF784FF00210C2000F018F80020024957
:10087000091F086000BD00009401214200002142D0
:1008800030B504460D4645F04000002100F006F862
:1008900044F08000002100F001F830BD10B50A4698
:1008A0000023154C236012B9241F236003E00123A9
:1008B000114C241F2360002117E000F0800323B1B6
:1008C00001230D4C083C236003E000230A4C083C44
:1008D00023600023084C0C3C23604306180E0123C0
:1008E000064CC4F884314B1CD9B20829E5DB01233E
:1008F000014C236010BD0000900121420000214204
:1009000000B5002015490861C86014204861002026
:100910008861C8610846006840F001000860084628
:1009200040680F4908400D494860084600680D4975
:1009300008400A4908600846006820F480200860E2
:100940000846406820F4FE004860002088600021CE
:100950004FF0006000F058F800BD000000100240A9
:100960000000FFF8FFFFF6FE2DE9F041074688463C
:1009700014461D46284600F033F8C5F1040007FA76
:1009800000F60F20284100EA0800064306F00F0693
:10099000E21704EBD2625211920002F1E022D2F887
:1009A00000212146E31704EBD3635B11A4EB431C46
:1009B000012303FA0CF31A432046E31704EBD36335
:1009C0005B119B0003F1E023C3F800210348005DA5
:1009D00040EA061001490855BDE8F08100E400E056
:1009E0000146072323EA01021202054B18684FF65D
:1009F000FF031840034B18431043014B1860704726
:100A00000CED00E00000FA05024A0A400243024BE6
:100A10001A60704780FFFF1F08ED00E000BFFEE78F
:100A20007047000070B5002100230F22C47804B382
:100A3000154C246804F4E064C4F5E064210AC1F1B3
:100A40000403CA40447804FA03F184781440214333
:100A500009010E4C0678A155047804F01F05012405
:100A6000AC4005786D11AD0005F1E025C5F80041F9
:100A700009E0047804F01F050124AC40044D067819
:100A8000761145F8264070BD0CED00E000E400E072
:100A900080E100E002490143024A11607047000012
:100AA0000000FA050CED00E07047000029B1064A8D
:100AB000D2690243044BDA6104E0034AD2698243FB
:100AC000014BDA61704700000010024029B1064A6C
:100AD00092690243044B9A6104E0034A926982439B
:100AE000014B9A61704700000010024030B50021B0
:100AF0000022002400232D4D6D6805F00C0121B16A
:100B0000042905D0082923D105E0294D056022E0FC
:100B1000274D05601FE0254D6D6805F47012234DCB
:100B20006D6805F48034022505EB92421CB9214D15
:100B3000554305600BE01D4D6D6805F400351DB192
:100B40001C4D5543056002E0194D5543056002E018
:100B5000174D056000BF00BF144D6D6805F0F00132
:100B60000909154D6B5C0568DD4045600F4D6D68EA
:100B700005F4E061090A104D6B5C4568DD40856055
:100B80000A4D6D6805F46051C90A0B4D6B5C4568F0
:100B9000DD40C560054D6D6805F44041890B074D8A
:100BA0006B5CC568B5FBF3F5056130BD0010024014
:100BB00000127A0000093D000808002018080020F3
:100BC0007047000030B504460025FFF799FE1F4826
:100BD000006840F480301D49086000BF1B48006871
:100BE000400C0028FAD04FF4806018494860A01EDD
:100BF000C4B20846406840EA8440486008464068FD
:100C000040F4803048601248006840F032001049DB
:100C100008600E48006840F080700C49086000BF12
:100C20000A480068400E0028FAD00848406840F0A2
:100C300002000649486005E004484068C0F38705A3
:100C400005F00305022DF7D130BD00000010024071
:100C50000020024008B50920FFF7B4FF482000F04B
:100C60003DFB01210420FFF731FF224A3221012000
:100C7000FFF706FD1F4A32210220FFF701FD1D4A42
:100C800032210320FFF7FCFC1A4A32210420FFF72F
:100C9000F7FC184A32210520FFF7F2FC154A3221F1
:100CA0000620FFF7EDFC01210820FFF70FFF124A95
:100CB00032210020FFF7E4FCFFF7A8FD41F61F41B9
:100CC00042F20F7000F060F8FFF7A0FB00F0EAF9C5
:100CD00000200A49086030205423094A002100906E
:100CE0000846FFF757FD4FF47A7000F017FBFFF747
:100CF0003DFD08BD00080140000C01409801214263
:100D0000F80500207047000010B50121194800F0D7
:100D10007EF801280ED118480068401C164908606A
:100D2000084600683C2801DB0020086001211148CA
:100D300000F05EF810480068104908600846006836
:100D40003B2815D10E480068401C0D490860084634
:100D500000683B280CDD002008600A480068401C41
:100D60000849086008460068182801DB0020086070
:100D700010BD000000040040F0070020FC07002028
:100D8000F8070020F40700207FB505460C46012136
:100D90000220FFF78BFEA8B2ADF80800A0B2ADF8B4
:100DA00004000020ADF80600ADF80A0001A90F48C4
:100DB00000F048F8012211460C4800F039F84FF4D1
:100DC000A060FFF767FE1D208DF8000000208DF861
:100DD00001008DF8020001208DF803006846FFF73E
:100DE00021FE0121014800F006F87FBD000400400B
:100DF000CA430282704721B1028842F00102028098
:100E000004E002884FF6FE731A400280704730B546
:100E10000246002000230024158A05EA0103958973
:100E200005EA010413B10CB1012000E0002030BD3F
:100E30001AB183890B43838102E083898B438381C9
:100E400070470000002202881D4B98420ED01D4BB7
:100E500098420BD0B0F1804F08D01B4B984205D080
:100E60001A4B984202D01A4B984204D14FF68F7316
:100E70001A404B881A43174B984207D0164B98429A
:100E800004D04FF6FF431A40CB881A4302808B8868
:100E900083850B8803850A4B98420BD0094B9842F7
:100EA00008D00E4B984205D00D4B984202D00D4B06
:100EB000984201D10B7A0386012383827047000098
:100EC000002C0140003401400004004000080040B4
:100ED000000C0040001000400014004000400140A1
:100EE000004401400048014010B540F22551074838
:100EF00000F01CF848B1054800F030F904490870CA
:100F000008460178014800F02EF910BD0038014074
:100F10000708002021B1828942F40052828104E056
:100F200082894DF6FF731A408281704770B5024680
:100F3000002400230025002040F66A16B14200D1AB
:100F400000BFC1F3421501F01F03012606FA03F3A7
:100F5000012D02D19689334006E0022D02D1168A76
:100F6000334001E0968A33400C12012606FA04F45D
:100F70001688344013B10CB1012000E0002070BD90
:100F8000F0B50346002400260025002040F66A172D
:100F9000B94200D100BF1846C1F3421401F01F0648
:100FA000012707FA06F5012C01D10C3004E0022CD0
:100FB00001D1103000E014301AB107682F430760E8
:100FC00002E00768AF430760F0BD00002DE9F0477D
:100FD00086B005460E460024A24600BFA146002763
:100FE000B08900B100BF2F462C8A4CF6FF70044038
:100FF000F08804432C82AC894EF6F3100440B0888C
:1010000031890843718908430443AC81AC8A4FF6A7
:10101000FF400440B0890443AC8201A8FFF766FD9D
:101020001F48874202D1DDF810A001E0DDF80CA0D6
:10103000A88900F4004040B10AEBCA0000EB0A1096
:1010400031684900B0FBF1F807E00AEBCA0000EB99
:101050000A1031688900B0FBF1F86420B8FBF0F0A9
:1010600004012009642101FB1089A88900F40040D3
:1010700040B1322000EBC900B0FBF1F000F00700F6
:10108000044308E0322000EB09106421B0FBF1F0CA
:1010900000F00F0004432C8106B0BDE8F08700008B
:1010A0000038014000B587B001210420FFF70EFD94
:1010B00001218803FFF70AFD18208DF81B004FF46B
:1010C0000070ADF8180001208DF81A0006A921481B
:1010D000FFF740FA04208DF81B000002ADF818005D
:1010E00001208DF81A0006A91A48FFF733FA4FF4C9
:1010F000165002900020ADF814000C20ADF812003C
:101100000020ADF81000ADF80E00ADF80C00012184
:101110001148FFF7FFFE02A90F48FFF757FF012113
:101120000D48FFF7F7FE012240F225510A48FFF76C
:1011300027FF25208DF8040002208DF805008DF88A
:10114000060001208DF8070001A8FFF76BFC07B02F
:1011500000BD0000000801400038014001468888B9
:10116000C0F308007047C1F308028280704700BFD7
:10117000FEE70000F8B504460D46002600240BE00B
:101180001020074B03EB0612E9B20090E0B20823EF
:10119000FFF700FB761C0834482CF1DDF8BD000099
:1011A000780100202DE9F84F04460D4690461E4672
:1011B000DDE90A790A2098FBF0F0414901EB001AB9
:1011C0001020E9B20090E0B208235246FFF7E2FA9D
:1011D00008340A2098FBF0F100FB1180384901EB3C
:1011E000001A1020E9B20090E0B208235246FFF73F
:1011F000D1FA08341020E9B20090E0B20823304A56
:10120000A032FFF7C7FA08340A2096FBF0F02C4909
:1012100001EB001A1020E9B20090E0B20823524618
:10122000FFF7B8FA08340A2096FBF0F100FB1160D2
:10123000234901EB001A1020E9B20090E0B2082324
:101240005246FFF7A7FA08341020E9B20090E0B246
:1012500008231B4AA032FFF79DFA08340A2097FBA7
:10126000F0F0174901EB001A1020E9B20090E0B24B
:1012700008235246FFF78EFA08340A2097FBF0F154
:1012800000FB11700E4901EB001A1020E9B200902A
:10129000E0B208235246FFF77DFA0024B9F1000FAF
:1012A0000CD12EB9022F03DA01200649086005E0AF
:1012B00026B9022F02D1002002490860BDE8F88F4C
:1012C000C80000209801214210B5044604EB8401B7
:1012D000480000F041F810BD704700004FF0E021D9
:1012E000096921F004014FF0E0221161C21700EBFF
:1012F0005272C2F3C702074B1A701946097801EB04
:101300004102C2EBC1114FF6FF7202EAC101024A6B
:10131000118070471C0800201E08002001460D4A5D
:1013200012884A434FF0E0235A6100229A61012259
:101330001A6100BF4FF0E022106900F001021AB1FB
:1013400000F48032002AF5D000224FF0E0231A6129
:101350009A6170471E08002001460D4A12784A43E0
:101360004FF0E0235A6100229A6101221A6100BF06
:101370004FF0E022106900F001021AB100F480324F
:10138000002AF5D000224FF0E0231A619A617047DD
:101390001C08002088B000200790069000240590CB
:1013A0000027804681460025002683468246049019
:1013B00003900C20F84908600020F8490860FFF706
:1013C00049FC04210020FFF7D5FE17E2F44800781D
:1013D00000F0F000A0280FD1EF480068401CEE4953
:1013E00008600020EE490870EB480068182826DBEA
:1013F0000020E949086022E0E948007800F0F000A8
:10140000B0280FD1E5480068401CE449086000207E
:10141000E3490870E14800683C2810DB0020DF4900
:1014200008600CE0DE48007800F0F000C02806D12B
:101430000020DC490860DC490860D949087024B103
:10144000012C14D0022C22D112E00020D5490968C9
:10145000CDE90010D1480368CF480268DDE90610E5
:10146000FFF7A0FE04210020FFF784FE10E000BF7C
:1014700030200090601EC0EB8010CC4901EBC00210
:10148000542300210846FFF785F9059400E000BFCA
:1014900000BF0598012802D002281BD10DE0BAF147
:1014A000010F09D10120002143463A46CDE9001041
:1014B000DDE90610FFF776FE0DE0BAF1010F08D165
:1014C00002202B464A46CDE90060DDE90610FFF711
:1014D00069FE00E000BF00BFAF480068B8420AD113
:1014E000AE480068404506D1AE480068022802DCDC
:1014F0000120AF490860A8480068B8420AD1A7484F
:101500000068404506D1A7480068032802D10020A2
:10151000A7490860A7488078072812D1A01C80B985
:10152000BBF1000F02D14FF0010B07E0BBF1010F3F
:1015300004D14FF0000B00260025A94600209D494C
:101540008870BBF1010F46D197480068049000BF36
:101550009549049809688842FAD0761E002E01DA6F
:101560003B266D1E002D02DA3B25A9F10109B9F1D8
:10157000000F30D17DBB76BB4FF0000B02202B4615
:101580004A46CDE90060DDE90610FFF70BFE0120B9
:10159000874908608848006820F4805086490860C0
:1015A0000020039008E0EF2000F04AF90A20FFF73E
:1015B000B5FE0398401C039003980F28F3DB052029
:1015C000FFF7ACFE00207A4908607B48006840F4D1
:1015D0008050794908607748807800B90EE17548F5
:1015E0008078432825D00CDC152831D004DC07286E
:1015F00053D0092871D140E0162839D04028F9D1BC
:1016000008E044286AD045284ED0462855D04728BF
:10161000F0D164E02CB960480068401E5E49086063
:1016200006E0601C08B97F1E02E0A01C00B96D1E18
:101630007BE02CB958480068401C5749086006E018
:10164000601C08B97F1C02E0A01C00B96D1C6CE096
:101650002CB952480068401E5049086007E0601CE1
:1016600010B9A8F1010802E0A01C00B9761E5CE0E8
:1016700000260025A946AB4657E02CB9474800682C
:10168000401C4649086007E0601C10B908F10108D9
:1016900002E0A01C00B9761C47E024B900204149B3
:1016A00008604149086040E04148006808B90120ED
:1016B00000E000203E49086037E0601C00B1641C77
:1016C000FFF754F800203A490860002C01DB032C96
:1016D00002DB4FF0000A002427E025E014E0FFF7CA
:1016E00045F830205423354A002100900846FFF782
:1016F00051F800202E49086000BF2E488078472806
:10170000FBD0FFF733F810E02CB1BAF1000F02D193
:101710004FF0010A04E0BAF1010F01D14FF0000AC5
:10172000FFF724F8644200E000BF00BF1B480068D8
:10173000002803DA3B201949086006E017480068D2
:101740003B2802DD00201549086013480068002886
:1017500003DA17201049086006E00F4800681728D0
:1017600002DD00200C490860B8F1000F02DA4FF0EA
:101770003B0804E0B8F13B0F01DD4FF00008002FFB
:1017800001DA172702E0172F00DD00273B2E17DDB7
:1017900000266D1C18E00000F4070020F807002068
:1017A00007080020FC070020F007002008020020A6
:1017B000980121420108002000040140F8050020A2
:1017C000002E01DA3B266D1E002D03DA3B25A9F120
:1017D000010904E03B2D02DD002509F10109B9F101
:1017E000000F02DA4FF0170904E0B9F1170F01DD1D
:1017F0004FF0000900200249887000BFE6E50000B4
:101800000108002010B5044601200B4908604FF480
:101810000C70FFF7A1FD00200849C1F88001012CE0
:1018200004D14FF4D260FFF797FD04E01CB94FF4E8
:101830000C70FFF791FD10BD808121420080214294
:10184000F8B506461EA0006800908DF802609DF86D
:101850000000C043C0B28DF801009DF80200C043F3
:10186000C0B28DF803000120164908600920FFF777
:1018700055FD00201449C1F8800141F29410FFF792
:101880006BFD002419E0002514E01DF8040001217F
:10189000A9400840002803DD0120FFF7B3FF08E05E
:1018A0001DF804100120A840014011B90020FFF7E5
:1018B000A9FF6D1C082DE8DB641C042CE3DBF8BDDC
:1018C00000FFF8FF8081214200802142EC180008CF
:1018D00000000020200800006C010008681D0008BE
:1018E0002008002060060000C8010008327832BEDF
:1018F0005A1F082910419A1804327E9A3C10290C6C
:101900002914A924321032305A7F04290C291432A8
:1019100008320C5AFE04290C291441324A5AFF0499
:10192000290C416968E9702112401AE00212A01ED8
:10193000B001B0011002600918030C060C06FE0F7E
:101940001011E07018080818F0C00F1C302020306B
:101950001F07652020F0F8333F3F2A602013D8F09E
:10196000180830382C2623212024491010091C1C6B
:10197000302121331E041D80C020F83110090607D4
:1019800004043F3F040417F888C8C888883B091935
:1019900050100902C0F098888898301B0F1F101350
:1019A000311F1A08013488E8781D203C0F016017A8
:1019B000F098080898F02C1E1E31501C0CE0F060C6
:1019C0001330F03F091B22223219A563C0C0333007
:1019D0003010080808E85C48C8083704037F090984
:1019E0007F27F010FC1010F01E7F04030146111732
:1019F000F848FE4848F89009806319077F555860F9
:101A0000723C17FC08785658281808017F0205FD1B
:101A100005078212E01CFE40408F1A3F0222202759
:101A200088700A0CA8C81E40211E1720181135FC0A
:101A300052527C37245B271D433F19ED5102111B85
:101A40001C202020703905011750082838A880A8CC
:101A50003828B2803A800D490601111B0101A6C148
:101A6000560210101002100F10382C24C48C881845
:101A70001030206040C09C079F0735BD30101031EA
:101A80003B380E0203111090914362303010180859
:101A9000019F38303040404078180880C0603018CE
:101AA0000C0336180841C3E2E426333945190129ED
:101AB000DAA927712F40E0F0381C062E79C8280FCC
:101AC000C04020B0B8DC5653496828282C26012F86
:101AD0003717171716140128093C2828694BD69C7C
:101AE00090AC694CA0080103060C1860C07B06FF8F
:101AF00067280880C07018CC62316212012CF80C83
:101B00000401430C18A2FE1EFEC020101847580BFB
:101B100002060C093BE68C1830605C74011EF02252
:101B200004780E073C18080C04C6F21FE7390C07AE
:101B3000B01C0F1830DA442020383A1FEA3A100B54
:101B40008F0103040C3820A31D7CC003FFA88D184F
:101B50000C0703EC13C04019627C404080B1891A25
:101B6000180B406040404070575F5757041B50703F
:101B70000D8A40F4311808E020A020E0C0F015CA1A
:101B8000403B7F9090FB909090531B80804D580B72
:101B9000C0F80E03C1380C060201015AFD08280BDB
:101BA000020206041933E69CB0E030480B13080F1C
:101BB000181310190F0F19C6C959100CE03018105E
:101BC000080C040203010125C0607CFF3BFF0119E2
:101BD000480973160CD83060C0FF73180CF88C8459
:101BE00076D29B89D97004802319DE180B4040C837
:101BF000C8FF48687058480B61C00AFEFEFFFFFF2F
:101C00001B0D07034F0F18E0BFE0BFE4380A0F3881
:101C100060C0878C8888096211280C7EC2BBABAB80
:101C2000ABB3B383C34354111A0684A79FD5D5958C
:101C3000910F195219012BE0C07119015817416217
:101C400022321E0C0C18503E6A6C6B7FDC901430F4
:101C5000204040800129B6500D87EDADB1DA9A9A47
:101C60009890D0701F480B06020DFDD5D754557DB6
:101C700003C97954880FFFFFFEF8F0F0F048682C94
:101C80003C060604011D0505030601590C2901390E
:101C90000B299DB11B0302107B0303EB397E014F1F
:101CA000280B3F3F7F7E7E7C7CFCF8F8A94BF0E060
:101CB000012C60E04001315C40C0C0146CE0F030A9
:101CC000011A70016A30942B80C00139211AF04644
:101CD000B4F8FCFC2A010119C328210303070707F4
:101CE0000F0F0E0E1E3C78F8F0F2C18387CFF7E39A
:101CF000EFFCF8FBFFFEFEFE7EFFFF0719091D3E0D
:101D00001F0F0F2909100102180319804907111C20
:101D1000018183011D8181010104190E19069B8136
:101D20008123012A100A1F9F01070E1C181F1F2C58
:101D30001F1F11011B1F0F0A1F04060F1991100905
:101D400011000A2C101C0F0F090F0F1C188A010616
:101D50008905B90901352D0102030404400906076C
:081D6000080902040608000056
:0400000508000131BD
:00000001FF
