:020000040800F2
:10000000008001208D390008750600087706000879
:10001000790600087B0600087D0600080000000045
:100020000000000000000000000000007F06000843
:10003000810600080000000083060008850600080D
:10004000DD390008DD390008DD390008DD39000838
:10005000DD390008DD390008DD390008DD39000828
:10006000DD390008DD390008DD390008DD39000818
:10007000DD390008DD390008DD390008DD39000808
:10008000DD390008DD390008DD3900080000000016
:10009000000000000000000000000000DD39000842
:1000A000DD390008DD390008DD390008DD390008D8
:1000B000DD390008DD390008DD390008DD390008C8
:1000C000DD390008DD390008DD390008DD390008B8
:1000D000DD390008DD390008DD39000800000000C6
:1000E000DD390008DD390008DD39000800000000B6
:1000F000000000000000000000000000DD390008E2
:1001000000000000DD390008DD390008DD39000895
:1001100000000000000000000000000000000000DF
:10012000DD390008DD390008DD390008DD39000857
:10013000DD390008000000000000000000000000A1
:100140000000000000000000000000008D06000814
:10015000DD390008DD390008DD390008DD39000827
:10016000DD390008DD390008000000000000000053
:10017000000000000000000000000000000000007F
:1001800000000000DD390008000000000000000051
:04019000DD3900084D
:1001940010B5054C237833B9044B13B10448AFF3BD
:1001A40000800123237010BD8001002000000000A6
:1001B400383A000808B5034B1BB103490348AFF3B1
:1001C400008008BD0000000084010020383A0008C7
:1001D40053B94AB9002908BF00281CBF4FF0FF31AA
:1001E4004FF0FF3000F074B9ADF1080C6DE904CEA6
:1001F40000F006F8DDF804E0DDE9022304B07047FE
:100204002DE9F047089E04468846002B40F085807F
:100214008A42154648D9B2FA82F24AB1C2F120079D
:1002240001FA02F320FA07F7954047EA03089440DD
:100234004FEA154E230CB8FBFEF71FFA85FC0EFBA4
:10024400178843EA084307FB0CF1994209D9EB18D4
:1002540007F1FF3080F0E380994240F2E080023FF2
:100264002B445B1AA4B2B3FBFEF00EFB103344EA3A
:10027400034400FB0CFCA44509D92C1900F1FF33FD
:1002840080F0CB80A44540F2C88002382C4440EA78
:100294000740A4EB0C0400271EB1D4400023C6E998
:1002A40000433946BDE8F087002A53D0B2FA82F2FF
:1002B400002A40F0B680491B4FEA154E1FFA85F814
:1002C4000127B1FBFEFC230C0EFB1C1143EA014386
:1002D40008FB0CF1994207D9EB180CF1FF3002D25C
:1002E400994200F2EC808446591AA3B2B1FBFEF0A5
:1002F4000EFB101443EA044408FB00F8A04507D998
:100304002C1900F1FF3302D2A04500F2DC8018461C
:10031400A4EB080440EA0C40BEE78B4208D9002E47
:1003240078D00027C6E9000138463946BDE8F08791
:10033400B3FA83F77FB98B4202D3824200F2BD80C5
:10034400841A61EB030301209846002EA9D0C6E964
:100354000048A6E7FFDEC7F12005BB4022FA05FCF2
:100364004CEA030C01FA07F420FA05F821FA05F324
:100374004FEA1C4E48EA0404B3FBFEF9210C0EFBC1
:1003840019331FFA8CF841EA034309FB08FA9A452A
:1003940002FA07F200FA07F10BD91CEB030309F187
:1003A400FF3080F088809A4540F28580A9F10209E7
:1003B4006344A3EB0A03A4B2B3FBFEF00EFB1033B9
:1003C40044EA034400FB08F8A04508D91CEB0404E4
:1003D40000F1FF336BD2A04569D90238644440EA86
:1003E4000940A4EB0804A0FB02894C45C6464B46D1
:1003F40054D351D0002E69D0B1EB0E0264EB030448
:1004040004FA05F522FA07F3FC401D43C6E900543B
:10041400002746E73746304643E7184637E707469E
:100424001FE7C2F1200320FA03F7954001FA02F016
:1004340021FA03F34FEA154E3843010CB3FBFEF7E0
:100444001FFA85F80EFB173341EA034107FB08F353
:100454008B4204FA02F407D9691807F1FF3C28D249
:100464008B4226D9023F2944CB1A81B2B3FBFEF05A
:100474000EFB103341EA034100FB08F38B4207D91A
:10048400691800F1FF3C10D28B420ED9023829447E
:10049400C91A40EA074714E74145ABD2B8EB020E4C
:1004A40069EB0C0201381346A4E76046F0E71846EE
:1004B40095E76746D8E781467BE7384645E7ACF1E0
:1004C400020C2B4410E702382C4421E73746E8E6B7
:1004D400704700BF30B589B0002403940494059498
:1004E400069407940094194B1A6B42F004021A63A1
:1004F4001A6B02F004020092009A01941A6B42F003
:1005040080021A631A6B02F080020192019A02942B
:100514001A6B42F001021A631B6B03F0010302938E
:10052400029B0B4D22464FF40051284600F05EFA20
:100534004FF400530393012304930594069403A9F1
:10054400284600F07BF909B030BD00BF00380240F6
:100554000008024072B6FEE700B595B030220021D3
:1005640008A803F05FFA002303930493059306930A
:1005740007930193204A116C41F080511164126C6D
:1005840002F080520192019A02931C4A136823F4E8
:10059400404343F400431360136803F4404302935D
:1005A400029B012308934FF48033099302230E9393
:1005B4004FF480020F920422109248221192129357
:1005C4000323139308A800F0C3FF80B90F230393F8
:1005D40002210491002305934FF48052069207935D
:1005E40003A801F01BFA20B915B05DF804FBFFF76E
:1005F400B1FFFFF7AFFF00BF0038024000700040BA
:1006040008B500F071F8FFF7A7FFFFF763FF02F0EA
:100614006BFF4FF40051064800F0EEF94FF47A7086
:1006240000F08EF81421034802F0B0FFF1E700BF98
:1006340000080240503A000882B0002100910B4BA0
:100644005A6C42F480425A645A6C02F4804200921A
:10065400009A01911A6C42F080521A641B6C03F0E8
:1006640080530193019B02B0704700BF00380240E1
:10067400FEE7FEE7FEE7FEE7FEE7704770477047D8
:1006840008B500F04BF808BD08B5024800F080FB3F
:1006940008BD00BF941800207047000010B5044640
:1006A4000E4B18784FF47A73B3FBF0F30C4A1068CE
:1006B400B0FBF3F000F0ACF868B90F2C01D90120BD
:1006C4000AE0002221464FF0FF3000F05FF8054BAE
:1006D4001C60002000E0012010BD00BF04000020C9
:1006E400000000200800002008B50B4B1A6842F4F3
:1006F40000721A601A6842F480621A601A6842F43E
:1007040080721A60032000F02FF80F20FFF7C6FF55
:10071400FFF792FF002008BD003C0240034A116825
:10072400034B1B780B441360704700BFC0030020C9
:1007340004000020014B1868704700BFC00300206C
:1007440038B50446FFF7F6FF0546B4F1FF3F02D083
:10075400044B1B781C44FFF7EDFF401BA042FAD367
:1007640038BD00BF04000020074AD36823F4E063C7
:100774001B041B0C000200F4E060184340F0BF604F
:1007840040F40030D060704700ED00E030B4174B07
:10079400DB68C3F30223C3F10704042C28BF042439
:1007A4001D1D062D01D9033B00E000234FF0FF354A
:1007B40005FA04F421EA0401994005FA03F322EA54
:1007C40003031943002809DB0901C9B200F16040A1
:1007D40000F5614080F8001330BC704700F00F0052
:1007E4000901C9B2024B1954F6E700BF00ED00E05D
:1007F40014ED00E0002807DB00F01F02400901238C
:100804009340024A42F82030704700BF00E100E004
:100814000138B0F1807F0AD2064B5860064AF021B5
:1008240082F823100020986007221A607047012084
:10083400704700BF10E000E000ED00E000230F2B44
:1008440000F2CA80F0B482B05DE086685F000324E1
:10085400BC4026EA0406CC68BC4034438460466845
:1008640026EA02064C68C4F300129A4032434260FE
:1008740056E0DC08083450F8247003F007029600B0
:100884000F22B24027EA02070A69B2403A4340F80D
:10089400242059E0042200E00022B2403A4302340A
:1008A4004E4E46F824204E4A1468EA4302EA0406EF
:1008B4004F6817F4803F01D045EA0406484C26608F
:1008C400646802EA04064F6817F4003F01D045EA61
:1008D4000406434C6660A46802EA04064F6817F4F1
:1008E400801F01D045EA04063D4CA660E46822401E
:1008F4004E6816F4001F01D045EA0402384CE26049
:1009040001330F2B65D801229A400C6804EA0205D2
:10091400AA42F5D14C6804F00304013C012C94D99B
:100924004A6802F00302032A09D0C4685E00032265
:10093400B24024EA02048A68B2402243C2604A6890
:1009440002F00302022A94D004685E000322B2403B
:1009540024EA02044A6802F00302B240224302601D
:100964004A6812F4403FCBD0002201921D4A546CD5
:1009740044F480445464526C02F480420192019A1B
:100984009C08A61C154A52F8267003F00302960030
:100994000F22B24027EA0207134A90423FF47CAF89
:1009A40002F5806290420ED002F5806290420CD033
:1009B40002F5806290420AD002F5806290423FF4D0
:1009C40069AF072269E7012267E7022265E703228C
:1009D40063E702B0F0BC7047704700BF00380140C5
:1009E400003C014000380240000002400AB181612D
:1009F4007047090481617047436901EA030221EAEF
:100A0400030141EA0241816170472DE9F04782B058
:100A1400D0F80080CA00521A930003445A6D1B6D2B
:100A24009A4255D8C1469B1AC1EBC104A2000244A4
:100A3400526C9A4200D31A460C46074602F1030A46
:100A44004FEA9A0A15E006F1030A4FEA9A0AE3000C
:100A54001B1B9D003D44A96C3B7C0093B3B2E2B2E6
:100A6400404601F0D3FBAB6C3344AB646B6D1E4466
:100A74006E6509EB441303F510639B699BB2534500
:100A840012D3E3001B1B9A003A44516D136D994233
:100A94000AD24BB15B1AC4EBC4018A003A44566CC7
:100AA4009E42D0D31E46CEE7E3001B1B98000744AA
:100AB4003A6D7B6D9A420FD804F00F040123A340D2
:100AC400D8F8344824EA0304C8F83448002000E085
:100AD400012002B0BDE8F0870020FAE7F0B58BB042
:100AE400002800F08A800546046890F8BD332BB3D3
:100AF400032385F8BD33E36B13F4807F01D1002316
:100B04002B61286801F028F92C4654F8107B6E46B6
:100B14000FCC0FC60FCC0FC694E8030086E8030081
:100B24002B1D0ECB384601F055F8044658B102236C
:100B340085F8BD33012420460BB0F0BD80F8BC33EA
:100B440002F0CAFDD4E70021286801F05FFD2346C6
:100B54006868834216D2D900C81A82002A44012048
:100B640082F83D0082F83C30A2F84230002082F83E
:100B74003F0050649064CA1A910029440865013307
:100B8400DBB2E5E7A04216D9E1000A1B93002B442F
:100B9400002283F8FD2183F8FC4183F8FF21C3F888
:100BA4000422C3F808220B1B99002944C1F810221F
:100BB4000134E4B2E6E72C4654F8107B6E460FCCC1
:100BC4000FC60FCC0FC694E8030086E803002B1D64
:100BD4000ECB384601F0FCF8044620B1022385F818
:100BE400BD330124A7E7002385F83830012385F8B5
:100BF400BD33286801F0C8FC9DE701249BE7026827
:100C040090F8BC33012B19D010B5012380F8BC3304
:100C1400836A012B0AD00446006801F097F8206823
:100C240001F0A4FC002084F8BC0310BD8369012BEF
:100C3400F1D0936B43F480339363ECE70220704765
:100C440070B504460D460068066C00EB411303F5CD
:100C540030639A682169012911D037498E4254D0F2
:100C64003DB9C5EBC50293002344D3F81032002BE1
:100C74005CD0E9B2204602F079FD002070BD12F08C
:100C8400080F09D02D498E42F7D912F4004FF4D041
:100C94004FF400429A60F0E712F0200F02D02022B5
:100CA4009A60EAE712F0280FE7D124498E4206D968
:100CB40012F4004F03D04FF400429A60DDE7E900DC
:100CC400491B8A002244D2F804121B69C3F312039D
:100CD400C91AC2F81412D2F80412D2F808320B441A
:100CE400C2F8083235B9C5EBC50293002344D3F8E2
:100CF400103223B1E9B2204602F038FDBDE704F515
:100D04007172012101F0C4FCF4E712F4004F03D026
:100D14004FF400429A60B0E712F0200F01D0202275
:100D24009A60E9B2204602F021FDA6E704F571724B
:100D3400002101F0ADFC9CE70A31544F0A30544FB6
:100D440038B5044603681D6C03EB4111D1F8082B38
:100D54000E4B9D4207D901F5306112F4004F02D0C9
:100D64004FF400438B60204602F0F8FC074B9D4291
:100D740002D92369012B01D0002038BD04F571721A
:100D84000121206801F084FCF6E700BF0A30544FCB
:100D94002DE9F84F04460568284601F033FC08B1F4
:100DA400BDE8F88F2F460646206801F0FBFB0028BB
:100DB400F6D0206801F0F6FB10F0020F04D0226890
:100DC400536903F002035361206801F0EBFB10F058
:100DD400100F14D02268936923F010039361D5F89F
:100DE400208008F00F09C8F34343022B68D0062B78
:100DF40000F088802268936943F0100393612068AF
:100E040001F0D0FB10F4002F40F09080206801F036
:100E1400C9FB10F4802F40F0D480206801F0C2FB9D
:100E24000028C0F24281206801F0BCFB10F4006F7E
:100E34000AD0D5F8083813F0010F40F05081226829
:100E4400536903F400635361206801F0ABFB10F4B1
:100E5400805F40F04881206801F0A4FB10F4005F3B
:100E640040F0A781206801F09DFB10F0080F40F0CE
:100E7400B881206801F096FB10F4801F40F0BA811D
:100E8400206801F08FFB10F4001F40F0BD81206842
:100E940001F088FB10F0804F40F0C081206801F021
:100EA40081FB10F0040F3FF47BAF23685D6815F0FD
:100EB400040F40F0BC81226853682B4353606FE7F2
:100EC40047F6F07318EA030F94D04FEA18184FEA64
:100ED400C90BABEB09034FEA830AA244C8F30A0225
:100EE400DAF80812284601F0B1FAC8F30A08DAF869
:100EF40008324344CAF80832DAF814324344CAF8D0
:100F0400143277E7082204F57171284601F09EFA3D
:100F1400C8F30A184FEAC903A3EB09018A00224463
:100F2400D2F814324344C2F8143263E7206801F063
:100F34003DFB8046B14617E007EB49130122C3F895
:100F4400082B49462046FFF77BFE1DE007EB4913BB
:100F54000822C3F8082B49462046FFF7F1FE16E0A5
:100F640009F101094FEA5808B8F1000F3FF44EAFF8
:100F740018F0010FF4D05FFA89F1206801F026FB24
:100F8400824610F0010FD7D11AF0080FDED11AF003
:100F9400100F04D007EB49131022C3F8082B1AF0E2
:100FA400200F04D007EB49132022C3F8082B1AF4AE
:100FB400005FD5D007EB49134FF40052C3F8082B58
:100FC400CEE7206801F0FAFA8046B1462AE0594695
:100FD400204602F0D7FB1AF0080F04D007EB4913A0
:100FE4000822C3F808291AF0100F04D007EB49139C
:100FF4001022C3F808291AF0400F04D007EB491354
:101004004022C3F808291AF0020F04D007EB491351
:101014000222C3F808291AF0800F41D109F101090D
:101024004FEA5808B8F1000F3FF4F7AE18F0010F7B
:10103400F4D05FFA89FB5946206801F0D0FA824661
:1010440010F0010FC7D009F00F03012101FA03F2D8
:10105400D7F8343823EA0203C7F8343807EB4913C6
:10106400C3F8081923698B42B1D14FEAC902A2EB34
:10107400090293002344596C9A6C0A449A64B9F1A6
:10108400000FA4D1C9EBC902930023441B6D002BAC
:101094009DD104F571720121206801F0F9FA96E7F7
:1010A40049462046FFF7B1FCB8E7D5F8043823F0E9
:1010B4000103C5F8043894F8F433012B08D0204612
:1010C40002F0A0FB2268536903F000435361AAE6CF
:1010D400002184F8F413204600F038FAF2E72046A1
:1010E40002F078FBABE605F50068D8F8043023F08D
:1010F4000103C8F804301021206800F033FE63684F
:10110400B34221D907EB46134FF67F31C3F80819D0
:10111400D3F8002922F40012C3F80029D3F80029D7
:1011240042F00062C3F80029C3F8081BD3F8002B6F
:1011340022F40012C3F8002BD3F8002B42F0006213
:10114400C3F8002B0136DAE7D8F81C3043F001135A
:10115400C8F81C30236BEBB1D8F8843043F00B0390
:10116400C8F88430D8F8443043F00B03C8F844304E
:10117400D5F8003823F4FE63C5F8003804F571721D
:10118400217C206801F084FA2268536903F48053B7
:10119400536160E6D8F8143043F4005343F02B0352
:1011A400C8F81430D8F8103043F00B03C8F81030E6
:1011B400DEE7206801F05BFA206800F0CFFEE06013
:1011C400256800F0DBFC227B0146284600F048FD40
:1011D400204602F0E8FA2268536903F4005353618D
:1011E40040E6204602F0D9FA2268536903F0080366
:1011F40053613EE60021204602F010FB2268536949
:1012040003F4801353613BE60021204602F000FB07
:101214002268536903F40013536138E6204602F050
:1012240003FB2268536903F08043536136E620468A
:1012340002F000FB3FE690F8BC33012B0DD010B553
:101244000446012380F8BC3380F83810006801F0AC
:101254007DF9002084F8BC0310BD02207047F8B566
:1012640011F0800F27D101F00F05EE00771BBC00B1
:10127400274604F5FC74044404340744002587F825
:10128400FD5101F00F012170A260E370627802B198
:10129400E180022B1ED090F8BC33012B1DD00546F3
:1012A400012380F8BC332146006800F068FE00206A
:1012B40085F8BC03F8BD01F00F06F500AF1BBC00B8
:1012C40027463834044404343E460644012586F84F
:1012D4003D50D6E700232371DDE70220EAE738B565
:1012E40011F0800F20D101F00F04E200151BAB00B8
:1012F4001D4603F5FC73034404330544002285F8BA
:10130400FD2101F00F01197090F8BC23012A1AD0B5
:101314000446012280F8BC231946006800F07AFED6
:10132400002084F8BC0338BD01F00F04E200151B53
:10133400AB001D463833034404332C4604440122D5
:1013440084F83D20DDE70220EDE770B501F00F05DC
:10135400EE00711B8C0004F5FC740444211D761B03
:10136400B4000444C4F80822C4F810320023C4F8BA
:10137400143284F8FD3184F8FC510369012B06D042
:1013840065B9DAB2006800F0B3FE002070BDC5EBA9
:10139400C506B4000444C4F80C22F1E7DAB20068CC
:1013A40000F048FFF1E701F00F01C1EBC1018B0030
:1013B4001844D0F81402704770B501F00F05EE0020
:1013C400711B8C0038340444211D761BB400044482
:1013D400A264236500236365012384F83D3084F807
:1013E4003C500369012B06D05DB9DAB2006800F005
:1013F4007FFE002070BDC5EBC506B4000444E26462
:10140400F2E7DAB2006800F015FFF2E738B501F050
:101414000F0543689D4236D811F0800F20D1CA00D1
:10142400541AA3001C4603F5FC73034404332246F8
:101434000244002182F8FD1101229A701D7090F877
:10144400BC23012A21D00446012280F8BC2319467A
:10145400006801F020F87DB1002084F8BC0338BD99
:10146400EA00511B8B00194638330344043301440A
:10147400012281F83D20DFE704F57172217C2068A8
:1014840001F006F9E8E70120E9E70220E7E710B5F3
:1014940001F00F0443689C422CD811F0800F1DD139
:1014A400E3001A1B91000A4601F5FC710144043162
:1014B4000244002382F8FD3100238B700C7090F8F5
:1014C400BC33012B18D00446012380F8BC330068D8
:1014D40001F00EF8002084F8BC0310BDE3001A1BD1
:1014E40091000A463831014404310244012382F850
:1014F4003D30E1E70120F0E70220EEE730B4046874
:10150400606A29B940EA0240A062002030BC7047FA
:101514000D46A36A00EB13400023691E8B4209D2D7
:1015240003F1400104EB8101496800EB11400133F0
:10153400DBB2F2E740EA024005F13F0104EB81012E
:101544004860E2E703685962002070477047000072
:10155400002800F0DF8170B582B00446036813F000
:10156400010F3BD0A64B9B6803F00C03042B2CD03B
:10157400A34B9B6803F00C03082B21D06368B3F5DD
:10158400803F4FD0B3F5A02F52D09D4B1A6822F460
:1015940080321A601A6822F480221A606368002B71
:1015A40050D0FFF7C7F80546954B1B6813F4003F6E
:1015B40014D1FFF7BFF8401B6428F5D90320B0E12C
:1015C4008F4B5B6813F4800FD8D08D4B1B6813F4DA
:1015D400003F03D06368002B00F09E81236813F062
:1015E400020F54D0864B9B6813F00C0F3ED0844BF3
:1015F4009B6803F00C03082B33D0E368002B67D0FF
:10160400804B01221A60FFF795F805467C4B1B6856
:1016140013F0020F53D1FFF78DF8401B0228F5D9C0
:1016240003207EE1764A136843F480331360B5E700
:10163400734B1A6842F480221A601A6842F48032AA
:101644001A60ABE7FFF776F805466D4B1B6813F499
:10165400003FC3D0FFF76EF8401B6428F5D9032080
:101664005FE1674B5B6813F4800FC6D1644B1B6862
:1016740013F0020F03D0E368012B40F04F81604A5E
:10168400136823F0F803216943EAC1031360236854
:1016940013F0080F40D0636963B35B4B01221A60F7
:1016A400FFF748F80546564B5B6F13F0020F33D132
:1016B400FFF740F8401B0228F5D9032031E1504AD6
:1016C400136823F0F803216943EAC1031360DEE7DA
:1016D4004C4B00221A60FFF72DF80546484B1B6857
:1016E40013F0020FD3D0FFF725F8401B0228F5D9D9
:1016F400032016E1444B00221A60FFF71BF805464D
:101704003F4B5B6F13F0020F06D0FFF713F8401B3B
:101714000228F5D9032004E1236813F0040F78D0DC
:10172400374B1B6C13F0805F33D100230193344B90
:101734001A6C42F080521A641B6C03F080530193BC
:10174400019B0125314B1B6813F4807F23D0A368D0
:10175400012B34D0052B38D0294B1A6F22F001020B
:101764001A671A6F22F004021A67A368002B36D096
:10177400FEF7E0FF0646224B1B6F13F0020F47D122
:10178400FEF7D8FF801B41F288339842F3D9032037
:10179400C7E00025D6E71D4A136843F4807313603D
:1017A400FEF7C8FF0646194B1B6813F4807FCED1A1
:1017B400FEF7C0FF801B0228F5D90320B1E0104AD0
:1017C400136F43F001031367CFE70D4B1A6F42F019
:1017D40004021A671A6F42F001021A67C5E7FEF79E
:1017E400A9FF0646064B1B6F13F0020F10D0FEF73D
:1017F400A1FF801B41F288339842F3D9032090E083
:101804000038024000004742800E4742007000400A
:10181400EDB9A369002B00F08380494A926802F075
:101824000C02082A51D0022B17D0464B00221A6012
:10183400FEF780FF0446424B1B6813F0007F42D042
:10184400FEF778FF001B0228F5D9032069E03C4A23
:10185400136C23F080531364DBE73A4B00221A60C5
:10186400FEF768FF0546364B1B6813F0007F06D071
:10187400FEF760FF401B0228F5D9032051E0E3691D
:10188400226A1343626A43EA8213A26A5208013A43
:1018940043EA0243E26A43EA0263294A5360294B5A
:1018A40001221A60FEF746FF0446254B1B6813F01D
:1018B400007F06D1FEF73EFF001B0228F5D9032066
:1018C4002FE000202DE000202BE0012B2BD01C4B1F
:1018D4005B6803F48001E269914226D103F03F0280
:1018E400216A8A4223D1616A47F6C0721A40B2EB78
:1018F400811F1ED103F44031A26A5208013AB1EBB0
:10190400024F18D103F07063E26AB3EB026F14D193
:10191400002006E001207047012002E0012000E0E1
:10192400002002B070BD0120FBE70120F9E701208F
:10193400F7E70120F5E70120F3E70120F1E700BF15
:101944000038024060004742314B9B6803F00C03AF
:10195400042B58D0082B58D170B52D4B5A6802F07F
:101964003F025B6813F4800F2AD0294B5868C0F3F8
:1019740088100546002643011B1A66EB0604A101E4
:1019840041EA93619801C01A61EB0401CB0043EA78
:101994005073C4001946601946EB01014B0243EA37
:1019A400D0534402204619463346FEF711FC184B27
:1019B4005B68C3F3014301335B00B0FBF3F070BD1C
:1019C400134B5868C0F388100546002643011B1AC0
:1019D40066EB0604A10141EA93619801C01A61EB28
:1019E4000401CB0043EA5073C4001946601946EB66
:1019F40001018B0243EA9053840220461946334680
:101A0400FEF7E6FBD3E7034870470348704700BF7F
:101A14000038024000127A000024F400002800F08C
:101A24009B8070B50446504B1B6803F007038B4240
:101A340008D2CBB24C4A1370136803F007038B42ED
:101A440040F08C80236813F0020F17D013F0040FBA
:101A540004D0464A936843F4E0539360236813F038
:101A6400080F04D0414A936843F4604393603F4AAB
:101A7400936823F0F003A068034393600D46236842
:101A840013F0010F32D06368012B21D09A1E012A72
:101A940025D9364A126812F0020F61D033498A6898
:101AA40022F0030213438B60FEF744FE06462F4BDD
:101AB4009B6803F00C036268B3EB820F16D0FEF749
:101AC40039FE801B41F288339842F0D9032042E06A
:101AD400264A126812F4003FE0D101203BE0234A79
:101AE400126812F0007FD9D1012034E01E4B1B682C
:101AF40003F00703AB4207D9EAB21B4B1A701B6809
:101B040003F00703AB422DD1236813F0040F06D072
:101B1400164A936823F4E053E1680B439360236807
:101B240013F0080F07D0114A936823F46043216926
:101B340043EAC1039360FFF707FF0C4B9B68C3F3B1
:101B440003130B4AD35CD8400A4B18600A4B18683D
:101B5400FEF7A4FD002070BD012070470120FAE7C4
:101B64000120F8E70120F6E7003C0240003802407B
:101B7400643A00080000002008000020014B1868A7
:101B8400704700BF0000002082B000230193019B36
:101B9400013301930E4A934214D80369002BF6DAF9
:101BA40000230193036943F001030361019B0133A3
:101BB4000193074A934208D8036913F0010FF5D142
:101BC400002000E0032002B070470320FBE700BFC1
:101BD400400D030084B010B5044603A880E80E004D
:101BE400089B012B1FD1A36B23F48033A363E36809
:101BF40023F4840323F04003E360E36823F44013F5
:101C0400E3600F9B012B09D02046FFF7BDFF069B25
:101C1400012B1BD0BDE8104004B07047E36843F4C7
:101C24008013E360F0E7E36843F04003E360204699
:101C3400FFF7AAFF0C9B23B9A36B43F48033A36380
:101C4400E5E7A36B23F48033A363E0E7A36843F0E1
:101C54000603A360A36843F02003A360DAE700004F
:101C6400022A0AD00921C26822F47052C260C368F1
:101C740043EA8123C360002070472A4B0B442A4A5D
:101C840093423DD9294B0B44294A93423AD9A1F5B1
:101C94007403A3F51053274A934235D9A1F18373F2
:101CA400A3F5E74302F5C332A03293422ED9224B67
:101CB4000B44224A93422BD9214B0B4402F5922226
:101CC40002F57872934225D91E4B0B4402F5C322C8
:101CD40002F5207293421FD9A1F1B773A3F55853AB
:101CE40002F5B71202F55872934217D9164B0B44FA
:101CF40002F5122202F5F862934211D80721B2E7E5
:101D04000F21B0E70E21AEE70D21ACE70C21AAE7C5
:101D14000B21A8E70A21A6E70921A4E70821A2E7E5
:101D24000621A0E7405327FFFF340C00401E1BFF91
:101D34003F420F007F4F120060B6E5FE5FE31600DE
:101D440000D3CEFEC05BB3FEE05459FE836843F07B
:101D54000103836000207047836823F001038360DC
:101D64000020704782B000230193890141F02001D3
:101D74000161019B01330193054A934205D803692C
:101D840013F0200FF5D1002000E0032002B07047CB
:101D9400400D030082B00023019310230361019BD3
:101DA40001330193054A934205D8036913F0100FD8
:101DB400F5D1002000E0032002B07047400D03007D
:101DC400D0F800381943C0F800180020704700000C
:101DD40084B0F8B5044607A880E80E002546002321
:101DE4000E2B07D803F1400204EB8202002151605C
:101DF4000133F5E7119B23BBD4F8043843F0020305
:101E0400C4F80438A36B43F40013A363A36B23F453
:101E14000023A363A36B23F48023A3630023C4F8E8
:101E2400003E04F50066D4F80038C4F800380C9B72
:101E3400012B14D1099B6BB900212046FFF7C0FF89
:101E440011E0A36B23F40013A363A36B43F40023F7
:101E5400A363E3E701212046FFF7B2FF03E0032178
:101E64002046FFF7ADFF10212046FFF77BFF074612
:101E740000B101272046FFF78DFF00B101270023A1
:101E840033617361F3610AE0C3B94FF00060C2F8D3
:101E9400000900220A614FF67F328A600133079AF3
:101EA4009A4210D905EB431202F51061D2F80009E9
:101EB4000028E9DB0020C2F80009EAE74FF090406F
:101EC400C2F80009E5E700230AE0C3B94FF0006057
:101ED400C2F8000B00220A614FF67F328A60013398
:101EE400079A9A4210D905EB431202F53061D2F8F1
:101EF400000B0028E9DB0020C2F8000BEAE74FF0F2
:101F04009040C2F8000BE5E7336923F48073336132
:101F14000023A3616FF0804363610A9B1BB9A3692B
:101F240043F01003A361A2690B4B1343A3610D9B00
:101F34001BB1A36943F00803A361119B012B04D0D7
:101F44003846BDE8F84004B07047A36943F08043C5
:101F540043F00403A361F3E700383C80D0F8083869
:101F640013F0060307D0022B07D0062B01D00F2055
:101F7400704702207047002070470220704770B4F9
:101F84000B784A78012A22D0D0F81C2803F00F06D7
:101F94000124B44042EA0442C0F81C2800EB431078
:101FA400D0F8003B13F4004F0ED1D0F8003B8A6800
:101FB400C2F30A02C97842EA8142134343F08053D0
:101FC40043F40043C0F8003B002070BC7047D0F8D5
:101FD4001C4803F00F06B24092B22243C0F81C28FA
:101FE40000EB4310D0F8002912F4004FECD1D0F8E4
:101FF40000298C68C4F30A04C97844EA814444EA99
:102004008353134343F0805343F40043C0F800392F
:10201400DAE7000030B40B784A78012A24D000EBC8
:102024004313D3F8002B002A50DBD0F83C580A782D
:1020340002F00F02012404FA02F225EA0242C0F877
:102044003C28D0F81C28097801F00F018C4022EAC2
:102054000444C0F81C48D3F8001B234A0A40C3F8C0
:10206400002B002030BC704700EB4313D3F8002949
:10207400002A1EDBD0F83C580A7802F00F02012433
:1020840004FA02F292B225EA0202C0F83C28D0F81F
:102094001C28097801F00F018C40A4B222EA040440
:1020A400C0F81C48D3F80019104A0A40C3F80029A4
:1020B400D7E7D3F8002942F00062C3F80029D3F827
:1020C400002942F08042C3F80029D3E7D3F8002B5B
:1020D40042F00062C3F8002BD3F8002B42F0804298
:1020E400C3F8002BA1E700BF0078F3EF007833ECCE
:1020F40070B40B784C78012C26D000EB431000F51B
:1021040030631C69E40CE4041C611C6924F0FF5472
:1021140024F4C0141C614C690CB18C684C611C69BA
:1021240044F400241C611C698D68C5F312052C431A
:102134001C61012A65D0D0F8003B43F00443C0F889
:10214400003B002070BC70474C696CBB00EB43142F
:10215400D4F8105925F0FF5525F4C015C4F81059CA
:10216400D4F8105945F40025C4F81059D4F810597E
:10217400ED0CED04C4F81059012A33D000EB4313DD
:10218400D3F8002942F00442C3F800294B69002B1C
:10219400D7D0D0F83428097801F00F040121A140E8
:1021A4000A43C0F83428CCE700EB431404F5106468
:1021B4002569ED0CED042561256925F0FF5525F40D
:1021C400C01525614E698D68AE4200D94D612569FF
:1021D40045F40025256125694E69C6F31206354389
:1021E4002561C9E70A691AB100EB4311C1F8142942
:1021F40000EB4310D0F8002942F00442C0F8002953
:102204009FE7CA68002A96D05A6194E770B49DF893
:102214000C4064B903339E08B44208D200EB023385
:1022240003F5805351F8045B1D600134F4E700208A
:1022340070BC7047F0B583B00B784C78012C2BD070
:1022440000EB431303F530642569ED0CED042561BF
:10225400256925F0FF5525F4C01525614D69002D2C
:1022640040F0C38025698E68C6F3120635432561A4
:10227400256945F400252561012A00F0CB80CA7840
:10228400012A00F0CD80D3F8002B42F00442C3F8B9
:10229400002B002003B0F0BD4C6984BB00EB431459
:1022A400D4F8105925F0FF5525F4C015C4F8105979
:1022B400D4F8105945F40025C4F81059D4F810592D
:1022C400ED0CED04C4F81059012A4CD000EB431373
:1022D400D3F8004944F00444C3F80049CC78012CF5
:1022E4006AD04B69002BD4D0D0F83428097801F097
:1022F4000F040121A1400A43C0F83428C9E700EBC8
:102304004314D4F81059ED0CED04C4F81059D4F862
:10231400105925F0FF5525F4C015C4F81059D4F808
:1023240010694D698F683D44013DB5FBF7F5464F93
:1023340007EAC5453543C4F81059D4F810594E6915
:10234400C6F312063543C4F8105904F51064CD7869
:10235400012DB9D1256925F0C0452561256945F0D0
:1023640000552561B0E70A691AB100EB4314C4F8BB
:102374001429CA78012A08D000EB4313D3F80029A2
:1023840042F00442C3F8002983E7D0F8082812F485
:10239400807F08D100EB4311D1F8002942F00052AC
:1023A400C1F80029E8E700EB4311D1F8002942F015
:1023B4008052C1F80029DFE7D0F8084814F4807F80
:1023C4000CD1D3F8004944F00054C3F800490092FA
:1023D4008B8A0A78C968FFF719FF5AE7D3F80049CE
:1023E40044F08054C3F80049F1E78E683544013D58
:1023F400B5FBF6F52669144F07EAC5473E43266147
:1024040027698E68ADB206FB05F5C5F312053D4399
:10241400256131E7CA68002A3FF431AF62612EE7D3
:10242400D0F8082812F4807F06D1D3F8002B42F0AC
:102434000052C3F8002B26E7D3F8002B42F0805259
:10244400C3F8002B1FE700BF0000F81F70B483B06F
:102454000646950802F003020023AB4206D206F5B5
:102464008054246841F8044B0133F6E77AB100F54F
:102474008050036801930025EBB2DC00019BE3402C
:1024840001F8013B0135013A92B2002AF4D1084621
:1024940003B070BC70470B784A78012A14D000EB63
:1024A4004310D0F8002B002A06DB2BB1D0F8003BF8
:1024B40023F08043C0F8003BD0F8003B43F4001302
:1024C400C0F8003B0020704700EB4310D0F800290F
:1024D400002A06DB2BB1D0F8003923F08043C0F882
:1024E4000039D0F8003943F40013C0F80039E9E7A3
:1024F4000B784A78012A0ED000EB4310D0F8003B49
:1025040023F40013C0F8003BCB78023BDBB2012B71
:1025140015D90020704700EB4310D0F8003923F49C
:102524000013C0F80039CB78023BDBB2012BF0D8A2
:10253400D0F8003943F08053C0F80039E9E7D0F807
:10254400003B43F08053C0F8003BE2E7D0F800388A
:1025540023F4FE63C0F80038D0F80038090101F410
:10256400FE610B43C0F8003800207047D0F8003EED
:1025740023F00303C0F8003ED0F8043823F002032C
:10258400C0F8043800207047D0F8003E23F003035D
:10259400C0F8003ED0F8043843F00203C0F8043811
:1025A400002070474269806910407047D0F818389D
:1025B40000F50060C0691840000C7047D0F8183866
:1025C40000F50060C069184080B2704700EB41110B
:1025D400D1F8082B00F5006040691040704710B432
:1025E400D0F81048D0F8343801F00F02D340DB01A2
:1025F400DBB2234300EB411000F510608068184003
:1026040010BC7047406900F00100704738B50546BA
:10261400C36823F0C043C360012913D019BBC36846
:1026240043F08043C36000240120FEF789F801349D
:102634002846FFF7E7FF08B1312CF5D9322C14D026
:10264400002038BDC36843F00053C3600024012058
:10265400FEF776F801342846FFF7D4FF0128EDD0C1
:10266400312CF4D9EAE70120EBE70120E9E7D0F8BF
:10267400003923F4FF6323F00703C0F80039D0F8CE
:10268400043843F48073C0F8043800207047000015
:1026940010B4046C144B9C4203D9D0F8003B002BBB
:1026A40016DB0024C0F8104BD0F8104B44F400247F
:1026B400C0F8104BD0F8104B44F01804C0F8104B7D
:1026C400D0F8104B44F0C044C0F8104B012902D09C
:1026D400002010BC7047C0F8142BD0F8003B43F026
:1026E4008023C0F8003BF3E70A30544F10B5D0F80C
:1026F400BC4284B1D0F8C0327BB194F80002FF2808
:102704000DD09B6894F8012221469847FF2384F852
:102714000032002010BD0320FCE70020FAE700206F
:10272400F8E700004323038000487047440000207A
:10273400432303800048704788000020432303801C
:1027440000487047D80000200A23038000487047DF
:10275400CC00002038B5D0F8BC5275B1044601F065
:10276400BAF8C5F80C02D4F8C032DB6805F5037179
:10277400D5F804029847002038BD0320FCE770B563
:10278400D0F8C442D0F8BC5255B301EB8102930097
:1027940003449B694BB1C1EBC106B2001444646CA1
:1027A400B3FBF4F204FB123373B10023C5F8143203
:1027B400D0F8C0321B69ABB10A4605F50471D5F8EF
:1027C40008029847002070BD01EB81029300034486
:1027D40000249C612346224601F0C6F82046F2E715
:1027E4000320F0E70020EEE7F0B583B0D0F8BC7228
:1027F40000238DF80730ADF80430002F6CD00C4660
:1028040006460B7813F060052AD0202D5ED1CA88C5
:10281400F2B113F0800F0FD0D0F8C0329B68394664
:1028240060789847E288072A28BF0722394630464D
:1028340000F018FE00254CE04B7887F800328B79C5
:1028440087F80132CA88394600F021FE002540E0AD
:10285400D0F8C0329B68002248789847002538E0B9
:102864004F780B2F2ED8DFE807F006342D2D2D2DB1
:102874002D2D2D2D152490F89C32DBB2032B03D083
:1028840000F0C2FA032524E0022201A900F0EAFDC7
:102894003D461EE090F89C32DBB2032B03D000F0DF
:1028A400B3FA032515E001220DF1070100F0DAFD6A
:1028B4000FE090F89C32DBB2032B0AD000F0A4FAAC
:1028C400032506E000F0A0FA032502E000F09CFADC
:1028D4000325284603B0F0BD0325FAE738B50446BE
:1028E400812101F021F8002525870121204601F0EE
:1028F4001BF8A4F878518221204601F015F8A4F8B9
:102904004C50A4F84E50D4F8BC324BB1D4F8C03279
:102914005B689847D4F8BC0200F0E8FFC4F8BC52E6
:10292400002038BD70B504464FF4077000F0DAFF9C
:10293400B8B30546C4F8BC02237CBBBB4FF4007398
:1029440002228121204600F0E4FF012626874FF46D
:10295400007302223146204600F0DBFFA4F87861C0
:102964001023A4F84E30082303228221204600F0CD
:10297400D0FF0123A4F84C30D4F8C0321B68984728
:102984000023C5F81432C5F81832267C16BB4FF460
:102994000073D5F804220121204600F0EDFF3046F3
:1029A40070BD0023C4F8BC320226F8E7402302229B
:1029B4008121204600F0ADFF012626874023022214
:1029C4003146204600F0A5FFA4F878611023A4F84E
:1029D4004E30C8E74023D5F804220121204600F0F8
:1029E400CBFF0026DBE719B1C0F8C0120020704706
:1029F40003207047D0F8BC322BB1C3F80812C3F8D7
:102A040010220020704703207047D0F8BC321BB15D
:102A1400C3F804120020704703207047D0F8BC228A
:102A2400A2B108B5D2F814320BB1012008BD0123BC
:102A3400C2F81432D2F81032C362D2F81032D2F88B
:102A44000822812100F090FF0020EFE70320704767
:102A540010B5D0F8BC2292B1047C44B94FF4007391
:102A6400D2F80422012100F087FF204610BD402344
:102A7400D2F80422012100F07FFF0024F5E70324AB
:102A8400F3E798B108B503460020C3F8B802C3F8C9
:102A9400C002C3F8CC0209B1C3F8B412184601232A
:102AA40080F89C32027000F0CBFE08BD0320704712
:102AB40010B582B00023ADF8063061B1C0F8B81289
:102AC400CB6A53B104460DF106009847C4F8CC0212
:102AD400002002B010BD0320FBE70020F9E708B591
:102AE40000F00FFF08BD08B5D0F8B83213B11B6869
:102AF400984708BD0320FCE708B5D0F8B8320BB1FD
:102B04005B689847002008BD38B5044600F2AA2542
:102B1400284600F065F90123C4F89432B4F8B032C1
:102B2400C4F8983294F8AA1201F01F03012B0ED0B6
:102B34005AB23AB1022B0FD001F08001204600F0C6
:102B4400FBFE03E02946204600F009FB38BD294678
:102B5400204600F03CFBF9E72946204600F06BFBD9
:102B6400F4E738B505460C4641BB1346D0F8942229
:102B7400032A01D0084638BDD0F85C11D0F8602192
:102B8400914209D890F89C32DBB2032B0FD028462F
:102B940000F094FC2046EEE7891AC0F85C118A42E2
:102BA40028BF0A46194600F081FC2046E3E7D0F826
:102BB400B8321B69002BEAD09847E8E790F89C32BA
:102BC400DBB2032B01D00020D5E7D0F8B8329B69E3
:102BD4000BB19847CFE70020CDE738B504460D4642
:102BE40000294AD11346D0F89422022A05D094F839
:102BF400A032012B3CD0284638BDC269016A8A4202
:102C04000ED88A4218D094F89C32DBB2032B27D01A
:102C14008021204600F090FE204600F05AFCE6E7B2
:102C2400521AC261194600F02AFC00231A461946BA
:102C3400204600F0A1FEDAE783699942E3D8D0F890
:102C440098229342DFD20022114600F018FC0021A2
:102C5400C4F898120B460A46204600F08DFEC6E7DB
:102C6400D4F8B832DB68002BD2D020469847CFE79F
:102C7400002384F8A0322846BEE790F89C32DBB2E9
:102C8400032B01D00020B7E7D0F8B8325B690BB151
:102C94009847B1E70020AFE7012380F89C32002376
:102CA400C0F894324360C0F8A432D0F8B832F3B11B
:102CB40070B50446D0F8BC221AB15B680BB1002190
:102CC4009847402300221146204600F022FE0126A8
:102CD400A4F864614025C4F860512B460022802189
:102CE400204600F016FEA6842562002070BD032055
:102CF400704701740020704790F89C32DBB280F872
:102D04009D32042380F89C320020704790F89C3256
:102D1400DBB2042B01D00020704790F89D32DBB267
:102D240080F89C32F7E7D0F8B82262B108B590F881
:102D34009C32DBB2032B01D0002008BDD36923B140
:102D440098470020F9E7032070470020F5E7D0F802
:102D5400B82262B108B590F89C32DBB2032B01D0E3
:102D6400002008BD136A23B198470020F9E7032027
:102D740070470020F5E7D0F8B82262B108B590F8A2
:102D84009C32DBB2032B01D0002008BD536A23B16F
:102D940098470020F9E7032070470020F5E700205A
:102DA400704708B5012380F89C32D0F8B83213B1CB
:102DB4005B6801799847002008BD002302781AB1A6
:102DC4000133DBB20130F9E71846704708B54B8888
:102DD400012B00D008BDC0F8A43200F06FFBF9E766
:102DE4000B7803704B7843708B78CA7843EA0223DC
:102DF40043800B794A7943EA022383808B79CA7929
:102E040043EA0223C380704710B50446802100F0D2
:102E140093FD0021204600F08FFD10BD30B583B036
:102E240004460D460023ADF806304A88130A013BD8
:102E3400062B00F2AB80DFE803F0041F33A9A98D51
:102E44009A00D0F8B4321B680DF10601007C984753
:102E5400EA88002A00F0A380BDF80630002B00F0B9
:102E640099809A4228BF1A46ADF8062001462046AA
:102E740000F0F8FA03B030BD037C43B9D0F8B8329F
:102E84009B6A0DF10600984702234370E0E7D0F8EF
:102E9400B832DB6A0DF10600984702234370D7E786
:102EA400D2B2052A52D8DFE802F003101D2A3744B3
:102EB400D0F8B4325B6823B10DF10601007C984769
:102EC400C6E72946FFF7A0FFD4E7D0F8B4329B68E1
:102ED40023B10DF10601007C9847B9E72946FFF7B5
:102EE40093FFC7E7D0F8B432DB6823B10DF10601D4
:102EF400007C9847ACE72946FFF786FFBAE7D0F88D
:102F0400B4321B6923B10DF10601007C98479FE799
:102F14002946FFF779FFADE7D0F8B4325B6923B1F6
:102F24000DF10601007C984792E72946FFF76CFFF4
:102F3400A0E7D0F8B4329B6923B10DF10601007CFF
:102F4400984785E72946FFF75FFF93E72946FFF790
:102F54005BFF8FE7037C33B9D0F8B8325B6B0DF1BC
:102F64000600984774E72946FFF74EFF82E7037C83
:102F740043B9D0F8B8321B6B0DF10600984707230C
:102F8400437065E72946FFF73FFF73E72946FFF7DC
:102F94003BFF6FE729462046FFF736FF6AE72046E6
:102FA40000F08CFA66E738B504468B88FBB9CB8809
:102FB400EBB94B887F2B1AD803F07F0590F89C322D
:102FC400DBB2032B0CD080F89E52294600F0C4FCDF
:102FD400204600F073FA35B1022384F89C3209E0EC
:102FE400FFF712FF06E0012384F89C3202E020463A
:102FF400FFF70AFF38BD000070B505460E468C7811
:103004002E4B1C70012C10D890F89C32DBB2022B92
:103014000FD0032B23D0FFF7F7FE284B197828464F
:10302400FFF76AFD0324204670BDFFF7EDFE03247D
:10303400F9E78CB144602146FFF755FD044620B101
:1030440031462846FFF7E0FEEDE7284600F036FA61
:10305400032385F89C32E6E700F030FAE3E7CCB1CD
:1030640041688C4225D0C9B2FFF746FD134B19784D
:1030740069602846FFF737FD0446B0B1314628465B
:10308400FFF7C2FE29792846FFF736FD022385F8AB
:103094009C32C8E7022380F89C3244602146FFF743
:1030A4002BFD284600F00AFABDE7284600F006FA90
:1030B400B9E700F003FA0024B5E700BF9C01002043
:1030C40008B5CB88012B0DD190F89C32DBB25AB2F3
:1030D4009AB1022B09D9032B0FD10122011D00F053
:1030E400C1F901E0FFF790FE08BD0146002341F855
:1030F400083F012200F0B6F9F6E7FFF785FEF3E793
:1031040008B590F89C32013B022B12D8CB88022BD5
:103114000CD10123C360D0F8A4320BB10323C360E4
:10312400022200F10C0100F09DF908BDFFF76CFECE
:10313400FBE7FFF769FEF8E708B590F89C32013B1E
:10314400022B09D84B88012B00D008BD0023C0F8FE
:10315400A43200F0B3F9F8E7FFF756FEF5E738B507
:103164000C7804F06004202C06D0402C04D054B118
:10317400FFF74AFE002404E0D0F8B8329B68984771
:103184000446204638BD4D78092D1DD8DFE805F0EA
:1031940012191C161C08051C0F0BFFF73FFEF0E765
:1031A400FFF701FFEDE7FFF727FF0446E9E7FFF725
:1031B40087FFE6E7FFF7A4FF2C46E2E7FFF706FEEA
:1031C400DFE7FFF7B9FFDCE7FFF71EFED9E770B5CD
:1031D40005460C460B7803F06003202B07D0402BE8
:1031E40005D023B1FFF710FE0026304670BD95F8D8
:1031F4009C32013B022B18D82379012B0FD8D5F828
:10320400B8329B682146284698470646E388002B37
:10321400EBD10028E9D1284600F050F9E5E7214632
:103224002846FFF7F1FD0026DFE721462846FFF791
:10323400EBFD0026D9E7F8B506460D468B880C78D9
:1032440004F06004202C08D0D9B2402C05D06CB115
:103254002946FFF7D9FD002406E0D6F8B8329B686A
:1032640029463046984704462046F8BD6F78012F1A
:103274002DD07AB2002A58D0032F40F0D48090F891
:103284009C32DBB2022B05D0032B12D02946FFF768
:10329400BBFDE9E709B1802904D129463046FFF78F
:1032A400B3FDE1E700F048FB8021304600F044FB29
:1032B400DAE76B8823B919B1802901D0EB881BB1F7
:1032C400304600F0FBF8CFE700F036FBF8E790F863
:1032D4009C32DBB2022B05D0032B12D02946FFF718
:1032E40093FDC1E709B1802904D129463046FFF78F
:1032F4008BFDB9E700F020FB8021304600F01CFB79
:10330400B2E76B88002BAFD111F07F0F0AD13046A2
:1033140000F0D4F8D6F8B8329B682946304698476E
:103324000446A1E700F010FBF1E790F89C22D2B22A
:10333400022A06D0032A2AD02946FFF765FD3C4617
:1033440092E709B1802913D113F0800F15D101F050
:103354007F0101EB81018B0003F5A8713144043135
:1033640000230B600222304600F07CF83C467BE7E9
:103374002946FFF749FD3C4676E701F07F0101EB62
:1033840081018B0003F1100131440431E8E75BB2A1
:10339400002B1FDB01F00F0202EB8202900030448D
:1033A400B0F864212AB3002B29DB01F07F0202EB81
:1033B4008202930003F5A8743444043409B18029CB
:1033C40027D10023236002222146304600F04AF828
:1033D4003C4649E701F00F0202EB820290003044C0
:1033E400828C002ADFD129463046FFF70DFD3C468A
:1033F4003AE729463046FFF707FD3C4634E701F03B
:103404007F0202EB8202930003F11004344404347B
:10341400D4E7304600F048FA10B101232360D2E724
:1034240000232360CFE72946FFF7EEFC1CE7C0B179
:1034340070B50D4616460446FFF7BFFC0130400048
:103444003080287003236B700223227842B1EA543F
:1034540001345A1CD2B20021A9540233DBB2F4E77E
:1034640070BD704710B513460222C0F894228361E0
:10347400C3610A46002100F077FA002010BD08B5A8
:1034840013460A46002100F06FFA002008BD10B56B
:1034940013460322C0F89422C0F85831C0F85C31B6
:1034A4000A46002100F068FA002010BD08B5134652
:1034B4000A46002100F060FA002008BD08B5042285
:1034C400C0F8942200231A46194600F04DFA002051
:1034D40008BD08B50522C0F8942200231A461946EF
:1034E40000F04AFA002008BD08B500220F49104830
:1034F400FFF7C7FA70B90F490D48FFF7D9FA60B959
:103504000D490B48FFF76FFA50B90948FFF7E7FA7E
:1035140048B908BDFDF71EF8EDE7FDF71BF8EFE726
:10352400FDF718F8F1E7FDF715F8F2E73001002090
:10353400C40300200C0000201C0100200020704760
:10354400002070470020704710B5054C0146204606
:10355400FFF75BFA2046FFF77BFA002010BD00BF9F
:10356400C403002010B5064C002206492046FFF78C
:1035740041FA05492046FFF748FA002010BD00BF74
:10358400C4030020940E002094060020094BD3F8B5
:10359400BC32D3F814320BB10120704710B50A467F
:1035A4000146044C2046FFF725FA2046FFF736FA79
:1035B40010BD00BFC403002012230B8000487047D5
:1035C4004C01002004230B80004870476001002058
:1035D4000023934216D230B40BE0373401F8134081
:1035E40000015C00013400250D550133DBB2934228
:1035F40006D2040F092CF0D8303401F81340EFE759
:1036040030BC70477047000038B50A4B1868043363
:103614001C6804331B68C01800D138BD064D08224D
:10362400A91CFFF7D5FF042205F112012046FFF77C
:10363400CFFFF2E7107AFF1F6401002008B51A23B8
:103644000B80FFF7E1FF014808BD00BF64010020C3
:1036540008B50A4628B905490548FFF7E8FE0348B6
:1036640008BD02490248FFF7E2FEF8E7941600207D
:10367400A43A000810B5044C0A4621460348FFF753
:10368400D6FE204610BD00BF94160020903A0008D4
:1036940008B50A4628B905490548FFF7C8FE034896
:1036A40008BD02490248FFF7C2FEF8E7941600205D
:1036B400743A000808B50A4628B905490548FFF7D1
:1036C400B6FE034808BD02490248FFF7B0FEF8E71A
:1036D40094160020803A000830B589B00023039383
:1036E40004930593069307930368B3F1A04F01D0A5
:1036F40009B030BD00250195164C236B43F001033E
:103704002363236B03F001030193019B4FF4C05324
:10371400039302230493032306930A23079303A921
:103724000D48FDF78BF8636B43F0800363630295E8
:10373400636C43F480436364636C03F480430293D7
:10374400029B2A4629464320FDF720F84320FDF733
:1037540051F8CDE7003802400000024008B500F5FA
:103764007171D0F80404FFF7CFF908BD08B5C1EBB7
:10377400C10293000344D3F80822D0F80404FFF7ED
:10378400F0F908BD08B5C1EBC102930003449A6C7B
:10379400D0F80404FFF721FA08BD08B5D0F80404F2
:1037A400FFF7C1FA08BD10B50446C3683BB1022B4C
:1037B40001D1012104E0FCF7CDFE012100E000214C
:1037C400D4F80404FFF795FAD4F80404FFF764FA74
:1037D40010BD000010B50446D0F80404FFF78CFABD
:1037E4002268D2F8003E43F00103C2F8003E236A87
:1037F40023B1034A136943F00603136110BD00BFEC
:1038040000ED00E008B5D0F80404FFF77FFA08BD26
:1038140008B5D0F80404FFF7AEFA08BD08B5D0F82F
:103824000404FFF794FA08BD08B5D0F80404FFF7C0
:10383400B6FA08BD08B5D0F80404FFF7B2FA08BD1B
:1038440003780BB10020704710B503461548C0F843
:103854000434C3F8C4024FF0A0430360042343605C
:103864000222C260002303618261C3610362436276
:10387400C3620363FDF732F980B90A4C8021204604
:10388400FDF760FE402200212046FDF737FE80222E
:1038940001212046FDF732FE002010BDFCF75AFE40
:1038A400EBE700BF94180020D0F8C43211F0800F69
:1038B40008D101F07F01C1EBC1018A00134493F8E0
:1038C400FE01704701F07F01C1EBC1018A0013447E
:1038D40093F83E00704708B5D0F8C402FDF763FDC5
:1038E40008BD000000487047A0010020704703286D
:1038F40005D8DFE800F00504020501207047032025
:10390400704708B5D0F8C402FDF779F9FFF7EFFF67
:1039140008BD10B51C4613462246D0F8C402FDF774
:103924009EFCFFF7E4FF10BD08B5D0F8C402FDF714
:10393400D6FCFFF7DCFF08BD08B5D0F8C402FDF7DC
:1039440065FDFFF7D4FF08BD08B5D0F8C402FDF744
:103954009EFDFFF7CCFF08BD08B5D0F8C402FDF703
:103964006AFCFFF7C4FF08BD08B5D0F8C402FDF730
:1039740023FDFFF7BCFF08BD08B5D0F8C402FDF76E
:10398400E4FCFFF7B4FF08BDDFF834D00D480E495E
:103994000E4A002302E0D458C4500433C4188C42A5
:1039A400F9D30B4A0B4C002301E013600432A2420A
:1039B400FBD3FCF771FE00F011F8FCF721FE704711
:1039C400008001200000002080010020CC3A000883
:1039D400800100209C1C0020FEE7000070B50D4D06
:1039E4000D4C641BA4100026A64209D10B4D0C4CAF
:1039F40000F020F8641BA4100026A64205D170BD77
:103A040055F8043B98470136EEE755F8043B9847D0
:103A14000136F2E7C43A0008C43A0008C43A000880
:103A2400C83A000802440346934200D1704703F8A1
:103A3400011BF9E7F8B500BFF8BC08BC9E46704707
:0C3A4400F8B500BFF8BC08BC9E467047F7
:103A50006D61646520627920C1BAD6A5C8F0200ADC
:103A6000000000000000000000000000010203044C
:103A70000607080943444320436F6E6669670000E8
:103A800043444320496E74657266616365000000BB
:103A900053544D6963726F656C656374726F6E69C0
:103AA0006373000053544D3332205669727475614C
:0C3AB0006C20436F6D506F7274000000BA
:083ABC0048C7FF7F0100000074
:043AC400B90100083C
:043AC800950100085C
:103ACC000024F40001000000100000002929000867
:103ADC00E1280008ED27000800000000F12600088E
:103AEC008327000859270008000000000000000090
:103AFC00000000003527000829270008412700088E
:103B0C004D27000809024300020100C032090400DD
:103B1C00000102020100052400100105240100012E
:103B2C000424020205240600010705820308001084
:103B3C0009040100020A0000000705010240000010
:103B4C00070581024000000009024300020100C089
:103B5C0032090400000102020100052400100105D5
:103B6C002401000104240202052406000107058239
:103B7C000308001009040100020A000000070501F7
:103B8C000200020007058102000200000A06000282
:103B9C00000000400100000009074300020104C0BE
:103BAC003209040000010202010005240010010585
:103BBC0024010001042402020524060001070582E9
:103BCC000308001009040100020A000000070501A7
:103BDC000240000007058102400000006935000822
:103BEC0041350008453500084D35000849350008B9
:103BFC00BD350008C935000879360008553600086F
:103C0C004136000895360008B9360008120100024A
:103C1C00020200408304405700020102030100002D
:103C2C00040309041A030000000000000000000057
:103C3C000000000000000000000000000000000078
:040000050800398D29
:00000001FF
