S31508000000400600204501000845090008A10500082A
S3150800001041090008DB010008631000080000000021
S31508000020000000000000000000000000E50A0008CB
S31508000030DF01000800000000CD090008F50B0008E4
S315080000405B0100085B0100085B0100085B01000812
S315080000505B0100085B0100085B0100085B01000802
S315080000605B0100085B0100085B0100085B010008F2
S315080000705B0100085B0100085B0100085B010008E2
S315080000805B0100085B0100085B0100085B010008D2
S315080000905B0100085B0100085B0100085B010008C2
S315080000A05B0100085B0100085B0100085B010008B2
S315080000B05B010008F90B00085B0100085B010008FA
S315080000C05B0100085B0100085B0100085B01000892
S315080000D05B010008DD0D00085B0100085B010008F4
S315080000E0E10100085B0100085B0100085B010008EC
S315080000F05B0100085B0100085B0100085B01000862
S315080001005B0100085B0100085B0100085B01000851
S315080001105B0100085B0100085B0100085B01000841
S315080001205B0100085B0100085B0100085B01000831
S31508000130DFF80CD000F014F8004800473112000828
S315080001404006002005480047FEE7FEE7FEE7FEE713
S31508000150FEE7FEE7FEE7FEE7FEE7FEE731010008F9
S31508000160064C074D06E0E06840F0010394E80700F6
S3150800017098471034AC42F6D3FFF7DEFFCC130008DD
S31508000180EC13000870B58C1810F8015B15F007031E
S3150800019001D110F8013B2A1106D110F8012B03E012
S315080001A010F8016B01F8016B5B1EF9D12B0705D41A
S315080001B00023521E0DD401F8013BFAE710F8013B63
S315080001C0CB1A921C03E013F8015B01F8015B521E7F
S315080001D0F9D5A142D8D3002070BD00BFFEE770470D
S315080001E070B500204D4908704FF42F7000F0D8FF05
S315080001F04FF480514A4800F0CAF9002877D14FF4E5
S315080002007A7404E0012000F0CBFF601E84B24FF43C
S315080002108051434800F0BBF908B9002CF2DC4FF4D2
S3150800022080513F4800F0B3F9012857D14FF4FA74CA
S3150800023004E0012000F0B4FF601E84B24FF4805140
S31508000240374800F0A4F9012801D1002CF1DC00257B
S3150800025042E000263CE03C2404E0012000F0A0FF38
S31508000260601E84B24FF480512D4800F090F908B909
S31508000270002CF2DC4FF4FA740EE00A2000F090FF2E
S3150800028026480078401C25490870601E84B2084636
S3150800029000781E2800DD70BD4FF48051204800F01C
S315080002A076F9012801D1002CE7DC1E48405D401094
S315080002B01C49485519480078082804DB0846405D5B
S315080002C040F080004855002014490870701CC6B2DA
S315080002D0082EC0DB681CC5B2042DBADB114880782D
S315080002E01049C978C943884201D0D4E7FFE70E48C8
S315080002F0006808B9012000E000200B4908604FF4A7
S31508000300805000F04BF80748807820B1054881787E
S31508000310064800F0A2FE00BFBDE700001800002056
S31508000320000C0140190000208401214200380140D8
S3150800033008B5032008239A0210210090144800F0FB
S3150800034083F803200823DA0210210090104800F0F1
S315080003507BF8032008235A02042100900C4800F079
S3150800036073F80121084600F043FB01220C211046D0
S3150800037000F01AF8022328220021012000F086FA4C
S3150800038000200449086001200349C1F8B80108BDE6
S31508000390000C0140B48121420080214201490860D5
S315080003A0704700001404014070B504460B46CE178A
S315080003B001EB9676C6F38700CE1701EB9676B61054
S315080003C0A1EB8606B606350E1C4B9B6943F0010366
S315080003D01A4EB3614FEAB63353F820300F26AE40B3
S315080003E0B343174E46F82030334653F8203004FA04
S315080003F005F61E43124B43F82060124B1B68012674
S315080004008E4033430F4E336002F0010343B10D4B68
S315080004100C331B6801268E4033430A4E0C36336074
S3150800042002F0020343B1074B08331E6801238B40D1
S315080004301E43044B08331E6070BD000000100240C6
S3150800044008000140000401402DE9F84307460C4620
S3150800045015461E46DDF820800121304600F0C8FA10
S315080004608DF80340ADF800508DF80280694638468D
S3150800047000F002F8BDE8F8832DE9F04102460025B0
S315080004800026002000230024002791F803C00CF062
S315080004900F0591F803C00CF0100CBCF1000F03D047
S315080004A091F802C04CEA050591F800C0BCF1000FAE
S315080004B031D0146800202BE04FF0010C0CFA00F341
S315080004C0B1F800C00CEA03069E4220D183004FF023
S315080004D00F0C0CFA03F7BC4305FA03FC4CEA0404B8
S315080004E091F803C0BCF1280F06D14FF0010C0CFAA5
S315080004F000FCC2F814C00AE091F803C0BCF1480F2A
S3150800050005D14FF0010C0CFA00FCC2F810C0401CD3
S315080005100828D1D31460B1F800C0BCF1FF0F34DD50
S31508000520546800202EE000F1080C4FF0010808FA84
S315080005300CF3B1F800C00CEA03069E4221D18300F1
S315080005404FF00F0C0CFA03F7BC4305FA03FC4CEA10
S31508000550040491F803C0BCF1280F05D100F1080C7A
S3150800056008FA0CF8C2F8148091F803C0BCF1480FD9
S3150800057007D100F1080C4FF0010808FA0CF8C2F888
S315080005801080401C0828CED35460BDE8F08102468E
S31508000590002093680B400BB1012000E00020704753
S315080005A000BFFEE7F8B504460D46164610208DF83E
S315080005B00300102C51D2DFE804F0080C1014181CA4
S315080005C02024282D32373C41464B0120ADF8000047
S315080005D044E00220ADF8000040E00420ADF8000039
S315080005E03CE00820ADF8000038E01020ADF8000027
S315080005F034E02020ADF8000030E04020ADF80000DF
S315080006002CE08020ADF8000028E04FF48070ADF8AB
S31508000610000023E04FF40070ADF800001EE04FF430
S315080006208060ADF8000019E04FF40060ADF80000F6
S3150800063014E04FF48050ADF800000FE04FF400507E
S31508000640ADF800000AE04FF48040ADF8000005E080
S315080006504FF40040ADF8000000E000BF00BF022DD7
S3150800066007D00A2D09D0322D0BD103208DF80200B0
S3150800067008E002208DF8020004E001208DF802004F
S3150800068000E000BF00BF69463046FFF7F5FEF8BD3B
S3150800069010B500210C2000F093F80021802000F00E
S315080006A08FF8002404E00121002000F089F8641C7A
S315080006B0B4F5FC7FF7D310BD2DE9F04F81468A4685
S315080006C093461F46099CE11704EB5171C910A4EB28
S315080006D0C10131B92046E11704EB5171C1F3C708CE
S315080006E007E02046E11704EB5171C910491C01F0D7
S315080006F0FF085146484600F055F8002514E0002644
S315080007000FE00AEB0502D1B209EB0602D0B200F0FF
S3150800071049F805FB07611BF80100012100F050F8B4
S31508000720761CBE42EDD36D1C4545E8D3BDE8F08F77
S3150800073000B500201949086000F03AFD0120184963
S31508000740C1F8940100201549091F086000F030FD22
S3150800075001201349C1F8900100F02AFD002121204B
S3150800076000F02EF80021BD2000F02AF8002106200E
S3150800077000F026F80021132000F022F8002120209E
S3150800078000F01EF8FFF784FF00210C2000F018F88F
S3150800079000200249091F086000BD0000940121429B
S315080007A00000214230B504460D4645F040000021C0
S315080007B000F006F844F08000002100F001F830BD92
S315080007C010B50A460023154C236012B9241F23606E
S315080007D003E00123114C241F2360002117E000F0D9
S315080007E0800323B101230D4C083C236003E000235A
S315080007F00A4C083C23600023084C0C3C2360430643
S31508000800180E0123064CC4F884314B1CD9B20829AA
S31508000810E5DB0123014C236010BD00009001214255
S315080008200000214200B5002015490861C86014205F
S31508000830486100208861C8610846006840F00100E8
S315080008400860084640680F4908400D494860084650
S3150800085000680D4908400A4908600846006820F4FF
S31508000860802008600846406820F4FE0048600020A2
S31508000870886000214FF0006000F058F800BD0000C5
S31508000880001002400000FFF8FFFFF6FE2DE9F041D8
S315080008900746884614461D46284600F033F8C5F133
S315080008A0040007FA00F60F20284100EA080006436C
S315080008B006F00F06E21704EBD2625211920002F11B
S315080008C0E022D2F800212146E31704EBD3635B113B
S315080008D0A4EB431C012303FA0CF31A432046E3173F
S315080008E004EBD3635B119B0003F1E023C3F80021FB
S315080008F00348005D40EA061001490855BDE8F08145
S3150800090000E400E00146072323EA01021202054B30
S3150800091018684FF6FF031840034B18431043014B62
S31508000920186070470CED00E00000FA05024A0A401C
S315080009300243024B1A60704780FFFF1F08ED00E074
S3150800094000BFFEE77047000070B5002100230F22A4
S31508000950C47804B3154C246804F4E064C4F5E06470
S31508000960210AC1F10403CA40447804FA03F18478E1
S315080009701440214309010E4C0678A155047804F069
S315080009801F050124AC4005786D11AD0005F1E02581
S31508000990C5F8004109E0047804F01F050124AC40BD
S315080009A0044D0678761145F8264070BD0CED00E03A
S315080009B000E400E080E100E002490143024A1160D8
S315080009C0704700000000FA050CED00E070470000D3
S315080009D029B1064AD2690243044BDA6104E0034AA4
S315080009E0D2698243014BDA61704700000010024069
S315080009F029B1064A92690243044B9A6104E0034A04
S31508000A0092698243014B9A617047000000100240C8
S31508000A1030B500210022002400232D4D6D6805F015
S31508000A200C0121B1042905D0082923D105E0294D57
S31508000A30056022E0274D05601FE0254D6D6805F429
S31508000A407012234D6D6805F48034022505EB924239
S31508000A501CB9214D554305600BE01D4D6D6805F425
S31508000A6000351DB11C4D5543056002E0194D55432F
S31508000A70056002E0174D056000BF00BF144D6D68A4
S31508000A8005F0F0010909154D6B5C0568DD40456008
S31508000A900F4D6D6805F4E061090A104D6B5C4568F9
S31508000AA0DD4085600A4D6D6805F46051C90A0B4D35
S31508000AB06B5C4568DD40C560054D6D6805F44041D1
S31508000AC0890B074D6B5CC568B5FBF3F5056130BD51
S31508000AD00010024000127A0000093D0000000020C4
S31508000AE0100000207047000030B504460025FFF7C7
S31508000AF099FE1F48006840F480301D49086000BF11
S31508000B001B480068400C0028FAD04FF4806018494A
S31508000B104860A01EC4B20846406840EA844048605F
S31508000B200846406840F4803048601248006840F043
S31508000B303200104908600E48006840F080700C4981
S31508000B40086000BF0A480068400E0028FAD0084826
S31508000B50406840F002000649486005E004484068DD
S31508000B60C0F3870505F00305022DF7D130BD000057
S31508000B70001002400020024010B50920FFF7B4FF1C
S31508000B80482000F017FB01210420FFF731FF174A20
S31508000B9032210120FFF706FD144A32210220FFF711
S31508000BA001FD124A32210320FFF7FCFC0F4A3221CD
S31508000BB00420FFF7F7FC0D4A32210520FFF7F2FC67
S31508000BC00A4A32210020FFF7EDFCFFF7B1FD41F696
S31508000BD01F4142F20F7000F04FF8FFF7A9FB00F033
S31508000BE0DBF900200249086010BD0000000801403A
S31508000BF0800121427047000010B50121194800F014
S31508000C0080F801280ED118480068401C164908606B
S31508000C10084600683C2801DB0020086001211148CD
S31508000C2000F060F810480068104908600846006837
S31508000C303B2815D10E480068401C0D490860084637
S31508000C4000683B280CDD002008600A480068401C44
S31508000C500849086008460068182801DB0020086073
S31508000C6010BD000000040040200000202C000020D9
S31508000C7028000020240000207FB505460C460121E7
S31508000C800220FFF7A5FEA8B2ADF80800A0B2ADF89D
S31508000C9004000020ADF80600ADF80A0001A91048C6
S31508000CA000F04AF8012211460D4800F03BF84FF4CF
S31508000CB0A060FFF781FE1D208DF8000000208DF84A
S31508000CC0010002208DF8020001208DF80300684615
S31508000CD0FFF73AFE0121024800F007F87FBD000041
S31508000CE000040040CA430282704721B1028842F0DC
S31508000CF00102028004E002884FF6FE731A40028061
S31508000D00704730B50246002000230024158A05EAFC
S31508000D100103958905EA010413B10CB1012000E02D
S31508000D20002030BD1AB183890B43838102E0838991
S31508000D308B43838170470000002202881D4B98422E
S31508000D400ED01D4B98420BD0B0F1804F08D01B4BEC
S31508000D50984205D01A4B984202D01A4B984204D1B1
S31508000D604FF68F731A404B881A43174B984207D091
S31508000D70164B984204D04FF6FF431A40CB881A43C5
S31508000D8002808B8883850B8803850A4B98420BD093
S31508000D90094B984208D00E4B984205D00D4B984205
S31508000DA002D00D4B984201D10B7A03860123838228
S31508000DB070470000002C0140003401400004004048
S31508000DC000080040000C00400010004000140040DD
S31508000DD000400140004401400048014010B540F27F
S31508000DE02551074800F01CF848B1054800F030F9CD
S31508000DF00449087008460178014800F02EF910BD2C
S31508000E00003801403000002021B1828942F40052A6
S31508000E10828104E082894DF6FF731A408281704709
S31508000E2070B50246002400230025002040F66A1605
S31508000E30B14200D100BFC1F3421501F01F030126DC
S31508000E4006FA03F3012D02D19689334006E0022DF6
S31508000E5002D1168A334001E0968A33400C120126E5
S31508000E6006FA04F41688344013B10CB1012000E0E8
S31508000E70002070BDF0B5034600240026002500209A
S31508000E8040F66A17B94200D100BF1846C1F34214AA
S31508000E9001F01F06012707FA06F5012C01D10C30CF
S31508000EA004E0022C01D1103000E014301AB10768B2
S31508000EB02F43076002E00768AF430760F0BD0000F4
S31508000EC02DE9F04786B005460E460024A24600BF27
S31508000ED0A1460027B08900B100BF2F462C8A4CF6E0
S31508000EE0FF700440F08804432C82AC894EF6F31058
S31508000EF00440B08831890843718908430443AC81AA
S31508000F00AC8A4FF6FF400440B0890443AC8201A87E
S31508000F10FFF77EFD1F48874202D1DDF810A001E0E9
S31508000F20DDF80CA0A88900F4004040B10AEBCA001D
S31508000F3000EB0A1031684900B0FBF1F807E00AEB4C
S31508000F40CA0000EB0A1031688900B0FBF1F864208A
S31508000F50B8FBF0F004012009642101FB1089A88977
S31508000F6000F4004040B1322000EBC900B0FBF1F0BC
S31508000F7000F00700044308E0322000EB0910642162
S31508000F80B0FBF1F000F00F0004432C8106B0BDE879
S31508000F90F08700000038014000B587B00121042021
S31508000FA0FFF726FD01218803FFF722FD18208DF89B
S31508000FB01B004FF40070ADF8180001208DF81A00D8
S31508000FC006A92148FFF758FA04208DF81B000002ED
S31508000FD0ADF8180001208DF81A0006A91A48FFF77F
S31508000FE04BFA4FF4165002900020ADF814000C206E
S31508000FF0ADF812000020ADF81000ADF80E00ADF8FF
S315080010000C0001211148FFF7FFFE02A90F48FFF760
S3150800101057FF01210D48FFF7F7FE012240F225513F
S315080010200A48FFF727FF25208DF8040002208DF8CF
S3150800103005008DF8060001208DF8070001A8FFF7C6
S3150800104083FC07B000BD00000008014000380140DD
S3150800105001468888C0F308007047C1F308028280F9
S31508001060704700BFFEE702E008C8121F08C1002A41
S31508001070FAD170477047002001E001C1121F002A0B
S31508001080FBD170472DE9F84304460D4690461E46A7
S31508001090089F0A2098FBF0F03F4901EB0019102041
S315080010A0E9B20090E0B208234A46FFF705FB083488
S315080010B00A2098FBF0F100FB1180374901EB001973
S315080010C01020E9B20090E0B208234A46FFF7F4FA86
S315080010D008341020E9B20090E0B208232E4AA03264
S315080010E0FFF7EAFA08340A2096FBF0F02A4901EBE2
S315080010F000191020E9B20090E0B208234A46FFF72B
S31508001100DBFA08340A2096FBF0F100FB116022494D
S3150800111001EB00191020E9B20090E0B208234A4614
S31508001120FFF7CAFA08341020E9B20090E0B20823A3
S31508001130194AA032FFF7C0FA08340A2097FBF0F0E4
S31508001140154901EB00191020E9B20090E0B2082316
S315080011504A46FFF7B1FA08340A2097FBF0F100FB7C
S3150800116011700D4901EB00191020E9B20090E0B2A8
S3150800117008234A46FFF7A0FA00242EB9022F03DAFD
S3150800118001200649086005E026B9022F02D1002091
S3150800119002490860BDE8F883FC000020800121426E
S315080011A010B5044604EB8401480000F023F810BD8E
S315080011B0704700004FF0E021096921F004014FF063
S315080011C0E0221161C21700EB5272C2F3C702074B45
S315080011D01A701946097801EB4102C2EBC1114FF6A4
S315080011E0FF7202EAC101024A11807047140000200A
S315080011F01600002001460D4A12784A434FF0E023B4
S315080012005A6100229A6101221A6100BF4FF0E0225A
S31508001210106900F001021AB100F48032002AF5D0F4
S3150800122000224FF0E0231A619A61704714000020EB
S3150800123008B50026002700250C205C490860002018
S315080012405B490860FFF798FC4FF0030800240CE0A0
S315080012501020584B03EB051208F0FF010090E0B28E
S315080012600823FFF729FA6D1C0834482CF0DD9BE0AB
S315080012705148007800F0F000A0280FD14B480068CC
S31508001280401C4A49086000204B49087047480068D6
S31508001290182826DB00204549086022E046480078E1
S315080012A000F0F000B0280FD141480068401C4049C2
S315080012B008600020404908703D4800683C2810DB5B
S315080012C000203B4908600CE03B48007800F0F0003D
S315080012D0C02806D1002039490860394908603649CE
S315080012E0087038488078402804D130480068401E85
S315080012F02E49086033488078432804D12B48006873
S31508001300401C2A4908602F488078152804D12848A7
S315080013100068401E264908602A488078092804D1B2
S3150800132023480068401C2249086026488078072818
S3150800133004D1002021490860214908601C4800683A
S31508001340002802DA3B201A490860194800683B2839
S3150800135002DD00201649086014480068002802DAF1
S3150800136017201249086011480068172802DD002076
S315080013700E49086013488078452807D11248006846
S3150800138008B9012000E000200F49086000200D4937
S3150800139088700A480068009005480368034839467B
S315080013A002683046FFF76EFE62E700002400002060
S315080013B028000020AC010020300000202C0000206E
S315080013C0200000201900002080012142EC130008AB
S315080013D0000000203C020000840100083C150008BB
S315080013E03C0200200404000076100008412D01028A
S315080013F003040400092006070809020406083278CF
S3150800140032BE5A1F082910419A1804327E9A3C1097
S31508001410290C2914A924321032305A7F04290C29A0
S31508001420142981320C5AFE04290C6995324A5AFF4E
S3150800143004290C416968E9702112401AE00212A0D9
S315080014401EB001B0011002700918030C060C06FE46
S315080014500F27E010080810E02E0F10202010155452
S315080014601010F82620203F20201B7008011AF0993A
S315080014701D282422219E1A300F1B887061362021D0
S3150800148021221C2C804030311008060524243F24D4
S31508001490241EF888888808AA2F19202020110E6093
S315080014A0348888901B0F11111A1F38193F2A689E15
S315080014B011433E011A702E29504B1C22501AF06017
S315080014C029903E0112222211A563C0C01A307E114E
S315080014D010080808E85C48C8083704037F09097F2C
S315080014E01EF010FC1010A01E7F040301461117F809
S315080014F048FE4848F89009806319077F5558607276
S315080015003C17FC08785658281808017F0205FD057F
S31508001510078312E01CFE4040EF4A3FF02788700A16
S315080015200CA8C81E40211E1720181135FC52527CE3
S3110800153037245B271D433F29ED41521B61
S70508000131C0
