:020000040800F2
:1000000030070020CD010008A50300089D0300086B
:10001000A10300086D020008510400080000000060
:10002000000000000000000000000000C9030008FC
:100030007102000800000000A7030008CB030008BD
:10004000E3010008E3010008E3010008E301000800
:10005000E3010008E3010008E3010008E3010008F0
:10006000E3010008E3010008E3010008E3010008E0
:10007000E3010008E3010008E3010008E3010008D0
:10008000E3010008E3010008E3010008E3010008C0
:10009000E3010008E3010008E3010008E3010008B0
:1000A000E3010008E3010008E3010008E3010008A0
:1000B000E3010008E3010008E3010008E301000890
:1000C000E3010008E3010008E3010008E301000880
:1000D000E3010008CD030008E3010008E301000884
:1000E000E3010008E3010008E3010008E301000860
:1000F000E3010008E3010008E3010008E301000850
:10010000E3010008E3010008E3010008E30100083F
:10011000E3010008E3010008E3010008E30100082F
:10012000E3010008E3010008E3010008E30100081F
:1001300000F002F800F03AF80AA090E8000C8244BF
:100140008344AAF10107DA4501D100F02FF8AFF29C
:10015000090EBAE80F0013F0010F18BFFB1A43F0A5
:10016000010318475C0300007C030000103A24BF21
:1001700078C878C1FAD8520724BF30C830C144BF0C
:1001800004680C607047000000230024002500264E
:10019000103A28BF78C1FBD8520728BF30C148BFEA
:1001A0000B6070471FB51FBD10B510BD00F02FF8D4
:1001B0001146FFF7F7FF00F051F900F04DF803B4D6
:1001C000FFF7F2FF03BC00F045F9000008480047C4
:1001D000FEE7FEE7FEE7FEE7FEE7FEE7FEE7FEE7F7
:1001E000FEE7FEE703480449044A054B7047000058
:1001F00031010008300100203007002030030020CA
:10020000300300207047704770477047704775464D
:1002100000F028F8AE4605006946534620F0070076
:10022000854618B020B5FFF7DDFFBDE820404FF050
:1002300000064FF000074FF000084FF0000B21F0D0
:100240000701AC46ACE8C009ACE8C009ACE8C0099D
:10025000ACE8C0098D4670470446AFF300802046E5
:10026000FFF7ADFF00487047D000002000BFFEE759
:1002700070470A2100E0491C8142FCD370472DE9F8
:10028000F04102460025002600200023002400271C
:1002900091F803C00CF00F0591F803C00CF0100C9E
:1002A000BCF1000F03D091F802C04CEA050591F8AB
:1002B00000C0BCF1000F31D0146800202BE04FF0DB
:1002C000010C0CFA00F3B1F800C00CEA03069E42E0
:1002D00020D183004FF00F0C0CFA03F7BC4305FA52
:1002E00003FC4CEA040491F803C0BCF1280F06D1CA
:1002F0004FF0010C0CFA00FCC2F814C00AE091F8AF
:1003000003C0BCF1480F05D14FF0010C0CFA00FC02
:10031000C2F810C0401C0828D1D31460B1F800C046
:10032000BCF1FF0F34DD546800202EE000F1080C12
:100330004FF0010808FA0CF3B1F800C00CEA03060C
:100340009E4221D183004FF00F0C0CFA03F7BC43FF
:1003500005FA03FC4CEA040491F803C0BCF1280F31
:1003600005D100F1080C08FA0CF8C2F8148091F8D5
:1003700003C0BCF1480F07D100F1080C4FF0010891
:1003800008FA0CF8C2F81080401C0828CED354603C
:10039000BDE8F081416170470161704700BFFEE731
:1003A00000BFFEE77047704729B1064A92690243D1
:1003B000044B9A6104E0034A92698243014B9A61BB
:1003C0007047000000100240704770471D490988BF
:1003D00001F0200111B31B49091D0988C8B21A494F
:1003E000098801F40041C9B91749098801F480411D
:1003F00061B10A2803D00021134A118020E012497C
:10040000098841F40041104A118019E00D2806D1F5
:100410000D49098841F480410B4A118010E00A49D6
:100420000988C1F30D01094A505407490988491C3C
:10043000054A118011460988C72901DD0021118074
:100440007047000000380140040000200800002030
:1004500000BFFEE7014600BF7047000008B501215C
:100460000820FFF7A1FF4FF6FF70ADF80000102045
:100470008DF8030003208DF8020069460E48FFF74F
:10048000FEFE4FF6FF710C48FFF786FF4FF6FF7038
:10049000ADF800000FE04FF6FF710748FFF77AFF55
:1004A0000648FFF7E6FE4FF6FF710348FFF774FFBB
:1004B0000248FFF7DEFEEEE7000C0140C0C62D004B
:1004C000E004000800000020080000006C010008A3
:1004D000E804000808000020280700008801000840
:0804E000000000000000000014
:0400000508000131BD
:00000001FF
