:0A086E00C0F9A4B0999282F88090BE
:0D085400EFD3940040077EC8DEFE1F80F346
:010861002274
:03000B0002087870
:09087800758C3C758AB00509324B
:10080000E4F509F508D2AFD2A9758901758C3C755C
:100810008AB0D28CE509B414180508E50890086E72
:1008200093F580C2A07F32120854D2A0E4F509806B
:1008300017E50964146011E50890086E93F580C20D
:10084000A07F64120854D2A0E508D3940940C5E4FF
:04085000F50880C067
:0300000002086291
:0C086200787FE4F6D8FD758109020800DB
:00000001FF
