:020000040800F2
:1000000038070020CD0100081504000891030008FE
:10001000110400086D0200085505000800000000EA
:10002000000000000000000000000000390400088B
:10003000710200080000000017040008CD04000849
:10004000E3010008E3010008E3010008E301000800
:10005000E3010008E3010008E3010008E3010008F0
:10006000E3010008E3010008E3010008E3010008E0
:10007000E3010008E3010008E3010008E3010008D0
:10008000E3010008E3010008E3010008E3010008C0
:10009000E3010008E3010008E3010008E3010008B0
:1000A000E3010008E3010008E3010008E3010008A0
:1000B000E3010008E3010008E3010008E301000890
:1000C000E3010008E3010008E3010008E301000880
:1000D000E3010008D1040008E3010008E30100087F
:1000E000E3010008E3010008E3010008E301000860
:1000F000E3010008E3010008E3010008E301000850
:10010000E3010008E3010008E3010008E30100083F
:10011000E3010008E3010008E3010008E30100082F
:10012000E3010008E3010008E3010008E30100081F
:1001300000F002F800F03AF80AA090E8000C8244BF
:100140008344AAF10107DA4501D100F02FF8AFF29C
:10015000090EBAE80F0013F0010F18BFFB1A43F0A5
:10016000010318477405000094050000103A24BFED
:1001700078C878C1FAD8520724BF30C830C144BF0C
:1001800004680C607047000000230024002500264E
:10019000103A28BF78C1FBD8520728BF30C148BFEA
:1001A0000B6070471FB51FBD10B510BD00F02FF8D4
:1001B0001146FFF7F7FF00F011FA00F04DF803B415
:1001C000FFF7F2FF03BC00F0C7F900000848004742
:1001D000FEE7FEE7FEE7FEE7FEE7FEE7FEE7FEE7F7
:1001E000FEE7FEE703480449044A054B7047000058
:1001F00031010008380100203807002038030020B2
:100200003803002070477047704770477047754645
:1002100000F028F8AE4605006946534620F0070076
:10022000854618B020B5FFF7DDFFBDE820404FF050
:1002300000064FF000074FF000084FF0000B21F0D0
:100240000701AC46ACE8C009ACE8C009ACE8C0099D
:10025000ACE8C0098D4670470446AFF300802046E5
:10026000FFF7ADFF00487047D400002000BFFEE755
:1002700070472DE9F04102460025002600200023AA
:100280000024002791F803C00CF00F0591F803C07B
:100290000CF0100CBCF1000F03D091F802C04CEA36
:1002A000050591F800C0BCF1000F31D014680020A2
:1002B0002BE04FF0010C0CFA00F3B1F800C00CEA8F
:1002C00003069E4220D183004FF00F0C0CFA03F777
:1002D000BC4305FA03FC4CEA040491F803C0BCF1EA
:1002E000280F06D14FF0010C0CFA00FCC2F814C024
:1002F0000AE091F803C0BCF1480F05D14FF0010CA2
:100300000CFA00FCC2F810C0401C0828D1D31460BD
:10031000B1F800C0BCF1FF0F34DD546800202EE0BE
:1003200000F1080C4FF0010808FA0CF3B1F800C016
:100330000CEA03069E4221D183004FF00F0C0CFA09
:1003400003F7BC4305FA03FC4CEA040491F803C02C
:10035000BCF1280F05D100F1080C08FA0CF8C2F81E
:10036000148091F803C0BCF1480F07D100F1080CCC
:100370004FF0010808FA0CF8C2F81080401C082859
:10038000CED35460BDE8F081416170470161704790
:1003900000BFFEE700B5002015490861C8601420C1
:1003A000486100208861C8610846006840F001008B
:1003B0000860084640680F4908400D4948600846F3
:1003C00000680D4908400A4908600846006820F4A2
:1003D000802008600846406820F4FE004860002045
:1003E000886000214FF0006000F008F800BD0000B8
:1003F000001002400000FFF8FFFFF6FE024A0A402C
:100400000243024B1A60704780FFFF1F08ED00E0B7
:1004100000BFFEE77047704729B1064A9269024360
:10042000044B9A6104E0034A92698243014B9A614A
:1004300070470000001002407047000030B50446CD
:100440000025FFF7A7FF1F48006840F480301D49D2
:10045000086000BF1B480068400C0028FAD04FF429
:10046000806018494860A01EC4B20846406840EA4F
:10047000844048600846406840F480304860124834
:10048000006840F03200104908600E48006840F0F3
:1004900080700C49086000BF0A480068400E0028C0
:1004A000FAD00848406840F002000649486005E07C
:1004B00004484068C0F3870505F00305022DF7D115
:1004C00030BD0000001002400020024070470000D4
:1004D0001D49098801F0200111B31B49091D098834
:1004E000C8B21A49098801F40041C9B917490988F5
:1004F00001F4804161B10A2803D00021134A118020
:1005000020E01249098841F40041104A118019E0A5
:100510000D2806D10D49098841F480410B4A11800C
:1005200010E00A490988C1F30D01094A50540749EE
:100530000988491C054A118011460988C72901DD2F
:1005400000211180704700000038014008000020A1
:100550000C00002000BFFEE7014600BF704700000E
:100560004FF0E021096921F004014FF0E022116110
:10057000C21700EB5272C2F3C702074B1A7019463A
:10058000097801EB4102C2EBC1114FF6FF7202EA9A
:10059000C101024A118070470000002002000020C3
:1005A00001460D4A12884A434FF0E0235A61002267
:1005B0009A6101221A6100BF4FF0E022106900F039
:1005C00001021AB100F48032002AF5D000224FF067
:1005D000E0231A619A6170470200002008B50920E3
:1005E000FFF72CFF4820FFF7BBFF01210420FFF796
:1005F00013FF10208DF803004FF6FF70ADF80000D8
:1006000003208DF8020069463248FFF732FE4FF6AC
:10061000FF713048FFF7BAFE5AE001212D48FFF77D
:10062000B3FE6420FFF7BCFF01212A48FFF7AEFEAE
:1006300002212848FFF7A8FE6420FFF7B1FF02213E
:100640002448FFF7A3FE04212248FFF79DFE642003
:10065000FFF7A6FF04211F48FFF798FE08211D4859
:10066000FFF792FE6420FFF79BFF08211948FFF770
:100670008DFE10211748FFF787FE6420FFF790FFDB
:1006800010211448FFF782FE20211248FFF77CFE5C
:100690006420FFF785FF20210E48FFF777FE6420D6
:1006A000FFF77EFF40210B48FFF76EFE6420FFF747
:1006B00077FF40210748FFF769FE80210548FFF7D3
:1006C00063FE6420FFF76CFF80210248FFF75EFEA7
:1006D000A3E7000000080140F80600080000002021
:1006E0000C0000006C010008040700080C0000204A
:1006F0002C07000088010008000000000000000036
:0407000000000000F5
:0400000508000131BD
:00000001FF
